:020000040800F2
:1000000000090020A5010008212A0008BD290008D8
:10001000FD290008BD290008DD290008A701000806
:10002000A7010008A7010008A7010008D53D0008A6
:10003000A7010008A7010008A7010008A701000800
:10004000A7010008A7010008A7010008A7010008F0
:10005000A7010008A7010008A7010008A7010008E0
:10006000A7010008A7010008A7010008A7010008D0
:10007000A7010008A7010008A7010008A7010008C0
:10008000A7010008A7010008A7010008C12800086F
:10009000D1280008E1280008A7010008A7010008EE
:1000A000A7010008A7010008A7010008A701000890
:1000B000554C0008A7010008A7010008A701000887
:1000C000A7010008A7010008A7010008A701000870
:1000D000A7010008A7010008A7010008A701000860
:1000E000A7010008A7010008A7010008A701000850
:1000F000A7010008A7010008A7010008A701000840
:10010000A7010008A7010008A7010008A70100082F
:10011000A7010008A7010008A7010008A70100081F
:10012000A7010008A7010008A7010008A70100080F
:10013000A7010008A7010008A7010008A7010008FF
:10014000A7010008A7010008A7010008A7010008EF
:10015000A7010008A7010008A7010008A7010008DF
:10016000A7010008A7010008A7010008A7010008CF
:10017000A7010008A7010008A7010008A7010008BF
:10018000A7010008A7010008A7010008A7010008AF
:10019000A7010008A7010008A7010008A70100089F
:1001A0006911000802E000F000F8FEE772B6374877
:1001B00080F30888364880F3098836483649086055
:1001C00040F20000CCF200004EF63471CEF2000195
:1001D0000860BFF34F8FBFF36F8F40F20000C0F293
:1001E000F0004EF68851CEF200010860BFF34F8F49
:1001F000BFF36F8F4FF00000E1EE100A4EF63C7136
:10020000CEF200010860022080F31488BFF36F8FE4
:1002100004F010FB04F0D4FB4FF055301F491B4A8B
:1002200091423CBF41F8040BFAE71D49184A91423C
:100230003CBF41F8040BFAE71A491B4A1B4B9A4290
:100240003EBF51F8040B42F8040BF8E700201849B0
:10025000184A91423CBF41F8040BFAE704F0EEFA69
:1002600004F0B4FB144C154DAC4203DA54F8041BF3
:100270008847F9E700F042F8114C124DAC4203DA1E
:1002800054F8041B8847F9E704F0D6BA00090020A7
:10029000001100200000000808ED00E0000100202F
:1002A00000090020B04E0008001100206811002055
:1002B00068110020683A0020A0010008A40100088D
:1002C000A4010008A40100082DE9F04F2DED108ACB
:1002D000C1F80CD0C3689D46BDEC108ABDE8F08F14
:1002E000002383F311882846A047002003F002FF73
:1002F000FEE703F081FE00DFFEE70000F8B500F046
:1003000037FF04F02DFA064604F082FA0746A8B932
:100310002B4B9E422AD001339E422AD026F0FF0268
:10032000284B9A4203D005464FF47A7408E0F0B2A5
:1003300000F02EFE3D4642F2107401E00546002416
:1003400000F02CFE08B10024254601F0BDFB98B951
:10035000B4F57A7F16D017B11B4B9E4214D1002002
:1003600004F00AFAADB900F053FE24E0054600247B
:10037000E6E700240125E3E7032000F02FF800243E
:100380002546E8E70125E6E704F03AFA0024254689
:10039000E5E700F041F8E6E700F08AFE4FF47A70F6
:1003A00003F0B0FE002CF7D002F042FB401BA0424D
:1003B000F2D900F031F802F03BFB0546F2E700BF4E
:1003C000010007B0000008B0263A09B0302383F3DB
:1003D0001188854680F308880847704708B50C4B9C
:1003E0001870032806D8DFE800F00A06020E022083
:1003F00000F02AFF08BD022000F01CFFFAE7054BC1
:1004000000225A60F6E7034B00225A60F2E700BF71
:10041000701100206811002008B501F055FB03465B
:1004200068B9072B0FD89A0002F1006202F520424A
:100430001268B2F1FF3F05D00133DBB2F1E70320D0
:10044000FFF7CCFF08BD1A4B5A689A42FAD3194BF2
:100450009B6803F1006303F520439A42F2D204F053
:10046000A1F904F0B3F9002000F09EFE0220FFF78E
:10047000B5FF114B9A6D00229A65996F9A67996F33
:10048000D96DDA65D96FDA67D96F196E1A66D3F844
:100490008010C3F88020D3F8803072B6044B4FF040
:1004A000E022C2F8083D59681868FFF78FFFC9E7D6
:1004B00000A000080011002000100240BFF34F8F81
:1004C0000549CA6802F4E062044B1343CB60BFF3F2
:1004D0004F8F00BFFDE700BF00ED00E00400FA050C
:1004E000094A136899B21B0C49F2690000FB0133F9
:1004F0001360064B186882B2000C44F2506101FB95
:100500000200186080B27047141100201011002002
:1005100010B50446FFF7E4FFB0FBF4F304FB13004F
:1005200080B210BD70B50E4614461D4602F05EFF47
:1005300060B9022D33D1012C01D0002030E019A385
:10054000D3E90023C6E90023012029E0282C1FD08D
:100550000CD8012C15D0052C06D114A3D3E9002307
:10056000C6E9002301201BE0002019E0302C06D151
:1005700010A3D3E90023C6E90023012010E00020E6
:100580000EE00EA3D3E90023C6E90023012007E013
:100590000CA3D3E90023C6E90023012000E00020DA
:1005A00070BD00BF401DA12026812A0BF017304AE4
:1005B00039059E5678F6339F93CACD8D9E6AC42125
:1005C000818A46EE26417272DF25D7B710B4034602
:1005D0000022026042608260C260044C07CC186056
:1005E00059609A605DF8044B704700BF9075FF1F1B
:1005F00070B58AB006460D4602F01AFA04464FF46A
:10060000C870FFF785FF044404F51674184B1C608E
:10061000EB7E23B9174B00221A700AB070BD05A9F2
:10062000284601F00DF80028F7D101AC2046FFF76D
:10063000CDFF9DF816502A4621460DF1170004F013
:1006400037FB48B90F2D0BD80A4B1D70084A1368A9
:10065000A3F516731360E0E7064B00221A70DCE77F
:100660009DF814100029D8D0304602F0B7FED4E728
:10067000B0160020AC1600202DE9F041ADF5507DFC
:1006800007460E460EAC4FF4C4720021204600F01F
:10069000F9FD02F0CDF9324BA3FB00308009314B5C
:1006A000186093E8070084E80700022323744FF0E2
:1006B000000884F811800DF15A00FFF787FF04232A
:1006C00084F82030552384F821300DF1180CE646CB
:1006D000254D0FCDAEE80F0095E80F00AEE80700FE
:1006E0002EF8023B1B0C8EF800301E2384F83231AA
:1006F000BCE80F00CDF86B01CDF86F11CDF8732178
:10070000CDF87731BCE80700CDF87B01CDF87F113B
:10071000CDF88321BCF80030ADF8873171AD0122EE
:100720002946204600F0EEFE80B205900495CDF8F3
:100730000C80B37E029306F1190301930123009309
:1007400005A3D3E90023F17E384602F003FF0DF53F
:10075000507DBDE8F08100BF9E6AC421818A46EECB
:10076000D34D6210B4160020304D0008F0B5FDB036
:1007700006460D462B4B1C7A6CBB07A9284600F099
:10078000CBFF002846D19DF81D70C82F42D84FF4EA
:10079000A6620021234800F075FD09E02202214BEA
:1007A0004FF48A7101FB0433C3F8E4200134E4B24E
:1007B000032CF3D91C4C3A460DF11E01204600F0E3
:1007C0004DFD093CE219002353729DF81C30237241
:1007D0000BB9EA7E22723AAF81220021384600F03E
:1007E00051FD5BAC01222146384600F0EFFF80B29C
:1007F0000590049400230393AB7E029305F1190343
:1008000001932823009305A3D3E90023E97E304612
:1008100002F0A0FE7DB0F0BDAFF300802641727201
:10082000DF25D7B77C11002085110020134BB3F8CA
:100830002C35834200D9704710B50446002100F0E2
:10084000DDFC01340D4BA3F82C450C4BB3F82C0503
:1008500000F0B8FC88B1094BB3F82C0500F0C4FCDB
:1008600058B9064C0021B4F82C0500F0C7FCB4F8C8
:100870002C350133A4F82C35E7E710BD7C1100209E
:100880002DE9F043F1B00646294C94F8D8304FF4E6
:100890008A7505FB004585F8DC30002785F8E8708F
:1008A0000DF1E808D8223946404600F0EBFC04F18F
:1008B0000909484600F0DCFC8DF8F000D5F8E4307A
:1008C0003A933B97C2B249460DF1F10000F0C6FCE5
:1008D00006AD01222946404600F0CEFF80B20590C9
:1008E0000495012303930823029304F1D803019391
:1008F000302300930CA3D3E90023217A0D4802F0A2
:1009000029FEB84203DC002071B0BDE8F08302F09C
:100910008FF84FF48A7202FB0643C3F8E00001200F
:10092000F2E700BFAFF3008078F6339F93CACD8D16
:100930007C110020B437002038B502F079F8054664
:10094000002408E00532B3EB420F02D3FFF798FF13
:10095000F8B10134E4B2032C1BD80E4B93F8D90044
:10096000204400F003004FF48A7202FB003393F836
:10097000E830002BEDD1074B02FB0033D3F8E03019
:10098000002BE3D0EB1A034A1268F92ADAD8FA22CC
:10099000D8E738BD7C11002010B586B0BDF82840DE
:1009A0000494099C03949DF82040029401930092C2
:1009B00002460B46024802F06DFD06B010BD00BFB6
:1009C000B437002010B58AB0244802F00FFD08B1FA
:1009D0000AB010BD02F02CF8214B1B689842F7D3E7
:1009E00002F026F804464FF4C870FFF791FD044466
:1009F00004F516741A4B1C6000238DF82030194B37
:100A00001B7813B901238DF8203004A8FFF7DEFD11
:100A1000144B1B78C3F11004E4B2062C00D9062451
:100A2000224604A919440DF1210000F017FC0134FD
:100A3000029408AB0193182300930B4B012205A1EC
:100A4000D1E90001FFF7A8FF064B00221A70BFE7AB
:100A5000AFF30080401DA12026812A0BB43700206F
:100A6000B0160020AC160020C016002010B586B0CD
:100A700001F0DEFF0F4BA3FB00239B090E48036030
:100A800004AC0122214600F083FD80B20290019463
:100A900018230093094B40F2551204A1D1E900013B
:100AA000FFF77AFF06B010BDAFF30080F1C6A7C113
:100AB000D068080FD34D6210B416002078110020C2
:100AC00010B502460B46094C204602F07DFD20463B
:100AD00002F08CFC38B1064B1B7A2BB10322054B7C
:100AE0005A71FFF7C3FF10BD0222F8E7B4370020A8
:100AF0007C110020B416002038B50025084C002DCC
:100B000005DA084A0849002004F0BCF838BD204640
:100B100001F07CFA013D04F587540834EFE700BF8B
:100B2000C81600201C380020451100080022026071
:100B30000273427342608260704700BFF0B587B0B5
:100B400020E041F2E80304FB03F3214A9E18D35846
:100B50001F6901F071FF1F4A82184FF000030093D4
:100B600041F1000302A93046B8470028C8BF45F04C
:100B700001050134E4B21AE0174802F01DFD174BDD
:100B800000221A70144802F013FD0446D0B102A8E6
:100B9000FFF7CCFF237B8DF8143003AB6068A168AE
:100BA00003C3236843F00043029300242546002C2E
:100BB000C7D0002DE0D1094B1B78072B04D8013397
:100BC000064A137007B0F0BD034802F0F5FCF9E7E0
:100BD000C816002040420F00B437002079110020D1
:100BE000CA7EA14B1B7A9A4240F03D812DE9F04725
:100BF00000AF08460024032C0CD89B4B4FF48A729C
:100C000002FB043393F8DC20437E9A4211D0013476
:100C1000E4B2F0E7002373B9934B1B68FA3340F654
:100C2000B832934200D913468F4A1360BD46BDE8DF
:100C3000F0870123EFE74FF48A7104FB01F1E03103
:100C4000894B19440A3100F069FE0028EED1864B29
:100C50004FF48A7202FB0434012384F8E83001F077
:100C6000E7FED4F8E030C31A192B05D940F6B832A4
:100C7000934202D9134600E019237B4AD2ED007A51
:100C8000F8EE677A9FED797A27EE877A07EE903A49
:100C9000F8EE677ADFED766A67EEA67A77EE277A66
:100CA000FCEEE77AC2ED007A3CE013464FF48A721C
:100CB00002FB0533002283F8E820C3F8E020B546A4
:100CC000694B5B689B0A01336A4A1381AEE70020D7
:100CD00042F8040B013B002BF9DA2246484600F0AB
:100CE000BDFA614B5B68002B4CD05F4B93F8D20090
:100CF00000F068FA8246002848D05B4BD3F8D43025
:100D0000002B4FD0584BD3F8D430234453454FD801
:100D10005FFA88F24946544B586800F0BDFA002843
:100D20004DD1B546504B93F8D9504FF48A7202FB1F
:100D3000053393F8E830002BC2D06E464A4A4FF490
:100D40008A7303FB0523D3F8E41053689942ACD1AE
:100D500045484FF48A7205FB02F28318B3F8EC4061
:100D6000E31C4FEA930802F1E00101440E314346CF
:100D70009A000732D208A6EBC2029546E94608F16E
:100D8000FF33A8E7012000F00FFAAEE70024364B4E
:100D90001C7200F03DFA204600F006FA354B0B229B
:100DA0001A818CE7304B93F8D200FFF73FFDA9E79B
:100DB0002D4B93F8D2000130FFF738FDA8E72A4BFE
:100DC0005A6822445A60D3F8D42004EB0208C3F8CE
:100DD000D48093F8D20000F0F5F980450BD3224B74
:100DE00093F8D220013283F8D220D3F8D420A2EB9A
:100DF0000A02C3F8D420FF2C23D91B4C4FF48A736A
:100E000003FB0543002283F8E820C3F8E020D3F871
:100E1000E42002F58062C3F8E42094F8D900FFF7DB
:100E20002FFDFFF78BFE94F8D93001335A4203F0BF
:100E3000030302F0030258BF534284F8D930B54689
:100E400070E70024084B1C7200F0E2F9204600F025
:100E5000ABF900F039FE074A108108B1B546E5E666
:100E6000FFF7DAFAFAE770477C1100206666663F02
:100E7000CDCCCC3DB416002038B505460C4602F06A
:100E8000B5FA50B1E38A282B1ED016D8012B10D109
:100E900021462846FFF7F0FB02E0237E022B00D01C
:100EA00038BDE38A012BFBD121462846FFF7A0FB82
:100EB000F6E7052BF4D1FFF701FB302BF0D12146EB
:100EC0002846FFF78DFEEBE721462846FFF74EFC4C
:100ED000E6E700BF2DE9F0418EB00AA8FFF726FE35
:100EE0000024254624B1002DFAD10EB0BDE8F081D2
:100EF00001238DF80C3000238DF80D3041F2E8020B
:100F000004FB02F21F4956188A5800200021CDE93F
:100F1000000197680DF10D0203A93046B8479DF80E
:100F20000C705FB3184A536983F00803536106AD30
:100F30000023069307930893099341F2E80304FB07
:100F400003F3104AD358D3F814800DF10E0304AA0A
:100F50000AA93046C04707AB0BAA92E8030083E812
:100F600003009DF834308DF824300A9B0693DDE9A8
:100F700004232946054802F0F1FC3D460134E4B261
:100F8000B0E700BFC816002000040048B4370020B6
:100F9000014B1870704700BFB02700204FF000537E
:100FA0001A68184B9A4201D0002070474FF0005346
:100FB000587D08B90020704710B5FFF7E9FF4FF0E2
:100FC00000531A7D104B1A72002309E019020E4AD1
:100FD0004FF48A7000FB0322C2F8E4100133DBB245
:100FE000032BF3D94FF00054C92204F1160107482E
:100FF00000F034F9E0220021204600F043F90120FE
:1010000010BD00BF9AAD44C57C11002085110020A1
:1010100010B582B000F058FD1C4B188102225A71A5
:1010200000240CB300230193194B0093194B4FF488
:1010300080521949194802F0B5F9194B197801BBCA
:1010400001F0F6FC04464FF4C870FFF761FA04445F
:1010500004F51674134B1C6003F0DAFB10B10B4B54
:101060000F221A8102B010BD41F2E80304FB03F322
:101070000D48C25852680D49184490470134E4B2F3
:10108000CFE7064802F0AAF9DAE700BFB41600205D
:1010900025050008790E0008B4270020B437002089
:1010A000B0270020B0160020C816002040420F00D4
:1010B00008B50CE0114B186001F0BEFCFFF700FD15
:1010C00013E0C82003F01EF80D4B1B7AA3B1FFF705
:1010D00035FDFFF7FFFEFFF775FC01F0A9FC074B9C
:1010E0001B68C31AB3F57A7FE4D2054B1B7A002B39
:1010F000E7D0FFF721FCE4E708BD00BF7411002032
:101100007C11002038B5044603793BB905682DB140
:10111000284600F0E7FC284600F040FE204638BD97
:1011200010B50446064B036000F583500C30FFF702
:10113000E9FF04F58250183000F0D4FC204610BDC1
:10114000984D000810B5064C064B9C4206D0A4F5FD
:101150008754083C2046FFF7E3FFF5E710BD00BFCA
:10116000B0270020C816002008B5FFF7C5FC08BD51
:1011700010B503F0D7F90A4B1880002406E003F0FD
:10118000CDF90444074A136801331360B4F5204FC6
:1011900005D2034B1B88034A10688342EFD810BD69
:1011A0000C3800201038002008B503F005FA08BDFF
:1011B00008B5920000F1006000F5204003F0F8F956
:1011C00008BD00BF08B5064B1B88064A12689B1A6B
:1011D000834201D8002008BD104403F09FF9FAE7CC
:1011E0000C3800201038002008B5034B1B68184449
:1011F00003F09AF908BD00BF1038002008B5034B72
:101200001B68184403F0A8F908BD00BF103800207F
:1012100008B5074B93F824300BB9012008BD0449E9
:10122000002381F824300822086AFFF7C1FFF5E7A0
:10123000E4370020022800D07047024B4FF4002210
:101240009A61F9E700040048022800D07047024B79
:1012500008229A61FAE700BF00040048002304E076
:1012600011F803C000F803C001339342F8D370476C
:101270000346002000E0013013F9012B002AFAD1C7
:10128000704700BF034602E003F8011B624602F10B
:10129000FF3C002AF8D170472DE9F84380460F46FD
:1012A0001546224B93F8243073B3204A126A02EB9E
:1012B0008303834228D0FFF7ABFF034620BB31E016
:1012C0001A48C0F820802022FF21FFF7DBFF174ECD
:1012D00096F82400C0F10804AC4228BF2C46E4B2C2
:1012E0004FEA84094A46394606EB8000FFF7B6FF0D
:1012F000C8444F442D1BEDB296F824302344DBB292
:1013000086F82430082B06D05DB1084B93F82430C2
:10131000002BDCD1D4E7FFF77BFF03460028F3D195
:1013200000E001231846BDE8F88300BFE437002041
:1013300070B506460C46154613462022096802F091
:1013400089FA2168203121602B1D0222304602F0EB
:1013500081FA2168023121606B1D0322304602F0C0
:1013600079FA216803312160AB1D0322304602F077
:1013700071FA21680331216005F10803102230461B
:1013800002F068FA23681033236070BD70B506461A
:101390000C46154613460822096802F05BFA2168DC
:1013A000083121606B1C0822304602F053FA216894
:1013B00008312160AB1C0822304602F04BFA21684C
:1013C000083121602B1D2022304602F043FA2168AB
:1013D0002031216005F108034022304602F03AFA3C
:1013E00023684033236070BD2DE9F04182B0074689
:1013F0000C461646984613460822096802F02AFA57
:10140000216808312160731C0822384602F022FA54
:1014100023680833236000250AE073190233082289
:101420002168384602F016FA21680831216001353A
:101430000F2DF2D9B37C8DF80730B8F1000F01D031
:10144000002517E00DF1070308222168384602F055
:1014500001FA236808332360F2E705F110033344EF
:10146000033308222168384602F0F4F92368083370
:10147000236001359DF80730AB42EED802B0BDE8DD
:10148000F08100BFF0B583B007460D4616461C46F6
:101490000023FFF74DFF002306F1100229463846CE
:1014A000FFF774FF002306F1200229463846FFF7B4
:1014B0009BFF96F83231502B28BF50238DF8073010
:1014C0000CB1002417E00DF1070307222968384604
:1014D00002F0C0F92B6807332B60F2E704F598732C
:1014E0003344033308222968384602F0B3F92B68E5
:1014F00008332B6001349DF80730A342EED803B0C7
:10150000F0BD00BF70B582B005460C4616460021FE
:10151000019140F279122046FFF7B4FE33462A4685
:1015200001A92046FFF7AEFF01980730C00802B0BE
:1015300070BD00BF70B506460C4615461346202206
:10154000096802F087F92168203121602B1D0222F1
:10155000304602F07FF92168023121606B1D0322C1
:10156000304602F077F9216803312160AB1D032278
:10157000304602F06FF921680331216005F108035C
:101580001022304602F066F923681033236070BDE4
:1015900000B583B0844608461346002101910160DE
:1015A000C0F80310624601A9FFF7C4FF0198073095
:1015B000C00803B05DF804FBF0B583B007460C46E5
:1015C00016461D46009200230722096802F044F8DF
:1015D000216807312160731C0093002301223846E3
:1015E00002F03AF82168013121604DB1BB8AC1EBAC
:1015F000C301C908B170B378102B1FD8002517E0BC
:10160000B31C009300230522384602F025F8236816
:1016100005332360EFE77319033300930023082297
:101620002168384602F018F8236808332360013532
:10163000B378AB42EFD8002003B0F0BD0120FBE748
:1016400010B582B004460A46037F13B1818A12297D
:1016500010D80021019101A92046FFF7ADFF0346F4
:1016600040B9019B0733DB08227F32B1A28AD31A2B
:1016700018BF0123184602B010BDA28A9A422CBF9F
:1016800000230123F6E700BFF0B583B007460D46FF
:10169000164653B1828A0B68C3EBC203DB08337072
:1016A0003378C82B1DD8002415E000920822096861
:1016B00001F0D2FF2B6808332B60F1E733190133B7
:1016C0000093002308222968384601F0C5FF2B68E3
:1016D00008332B6001343378A342EFD8002003B0E5
:1016E000F0BD0120FBE700BFF0B583B006460C4615
:1016F00015461F46009200230822096801F0ACFF3E
:101700002368083323603B466A1C21463046FFF7B6
:10171000BBFF03B0F0BD00BF10B582B004460A465F
:10172000037F13B1818ACA2910D80021019101A930
:101730002046FFF7D9FF034640B9019B0733DB087A
:10174000227F32B1A28AD31A18BF0123184602B0F1
:1017500010BDA28A9A422CBF00230123F6E700BFE6
:10176000F0B583B007460D4616461C4613460822C0
:10177000096802F06FF8296808312960737896F9D2
:101780000120002A04DB8DF807301CB1002416E08C
:101790007F23F8E70DF107030722384602F05AF8D5
:1017A0002B6807332B60F1E73319023308222968CD
:1017B000384602F04FF82B6808332B6001349DF84F
:1017C0000710A142F0D803B0F0BD00BF70B582B0E1
:1017D00005460C4616460021019181222046FFF75E
:1017E00051FD33462A4601A92046FFF7B9FF01986B
:1017F0000730C00802B070BDF0B583B007460D4693
:1018000016461278C82A28BFC8228DF807200BB1C7
:10181000002414E00DF107030822096802F01AF809
:101820002B6808332B60F3E733190133082229684A
:10183000384602F00FF82B6808332B6001349DF80E
:101840000730A342F0D803B0F0BD00BFF8B506469C
:101850000C4615461F4613462822096801F0FAFF78
:101860002368283323603B4605F1080221463046B1
:10187000FFF7C2FFF8BD00BF70B582B005460C4649
:10188000164600210191CE222046FFF7FBFC33468D
:101890002A4601A92046FFF7D9FF01980730C00862
:1018A00002B070BDF0B583B007460D4616461C4623
:1018B000009201231022096801F0CEFE2968103140
:1018C000296054B1BB8AC1EBC301C9087180738818
:1018D000B3F5807F1FD8002417E0B31C00930023CA
:1018E0000922384601F0B8FE2B6809332B60EEE779
:1018F000331904330093002308222968384601F085
:10190000ABFE2B6808332B6001347388A342EFD8F9
:10191000002003B0F0BD0120FBE700BF10B582B08E
:1019200004460A46037F1BB1818AB1F5827F10D835
:101930000021019101A92046FFF7B4FF034640B9F9
:10194000019B0733DB08227F32B1A28AD31A18BF6A
:101950000123184602B010BDA28A9A422CBF002370
:101960000123F6E700B596460AE040F3000C0A4A68
:101970000CEA020282EA50000133DBB2072BF4D9F1
:1019800073460EF1FF3E23B111F8013B584000238E
:10199000F4E75DF804FB00BF2083B8EDF0B583B039
:1019A0001F4B6A4693E80300CDE9000108231D4957
:1019B0001D4803F08DF930B304460369B3F5583F71
:1019C00023D8418B40F25542914220D100F11807B3
:1019D000164A024402F110018B421BD39B1AA3F159
:1019E000100511490020FFF7BDFF06462A4639467B
:1019F0000020FFF7B7FFA368B3420DD1E36883422D
:101A00000CD1002004E00A2002E00B2000E00C20B2
:101A100003B0F0BD1020FBE70D20F9E70D20F7E73C
:101A2000504D0008DC5F030000A000080860FFF7CD
:101A3000F0B583B0204B6A4693E80300CDE900017E
:101A400008231E491E4803F043F938B304460369CE
:101A5000B3F5583F24D8B0F8661040F25542914291
:101A600020D100F16407174A024402F15C018B4265
:101A70001BD39B1AA3F15C0511490020FFF772FFED
:101A800006462A4639460020FFF76CFFA368B3429A
:101A90000DD1E36883420CD1002004E00A2002E06B
:101AA0000B2000E00C2003B0F0BD1020FBE70D2060
:101AB000F9E70D20F7E700BF5C4D0008905F0300D9
:101AC00000A000080860FFF710B5FFF767FF0446A5
:101AD00008B9204610BDFFF7ABFF0028F9D1044636
:101AE000F7E700BF10B50446037C0BB1204610BDDC
:101AF000006803F0D5F8F9E7BFF35B8FC368BFF365
:101B00005B8FBFF35B8F8268BFF35B8F9A4208D90C
:101B10004268BFF35B8F8168BFF35B8F521AD018A6
:101B20007047BFF35B8F8268BFF35B8F981A704773
:101B30000023BFF35B8FC360BFF35B8FBFF35B8F8B
:101B40008360BFF35B8F70470346406800B97047FE
:101B5000BFF35B8F9A68BFF35B8FBFF35B8FD9686E
:101B6000BFF35B8F914209D35868BFF35B8FDB688B
:101B7000BFF35B8FD21A013A1044E8E70020F4E784
:101B800038B505460C46FFF7B7FFA04201D200204A
:101B900038BDBFF35B8FAB68BFF35B8F1C446B68D2
:101BA000B4FBF3F203FB1244BFF35B8FAC60BFF3F3
:101BB0005B8F0120ECE700BF70B504460E4615466A
:101BC000FFF7C2FFA84200D3284608B9002070BD25
:101BD0002368BFF35B8FE268BFF35B8F134433600E
:101BE0006268BFF35B8FE368BFF35B8FD11A8842F3
:101BF00007D971602168B1609B1A0344F360022029
:101C0000E5E770600120E2E738B505460C46FFF7CE
:101C10009BFFA04201D2002038BDBFF35B8FEB6871
:101C2000BFF35B8F1C446B68B4FBF3F203FB1244FD
:101C3000BFF35B8FEC60BFF35B8F0120ECE700BF6D
:101C40002DE9F04385B0814688466946FFF7B4FF29
:101C50000746002425460EE004AB03EBC40656F805
:101C60000C2C08EB050156F8100CFFF7F7FA56F8A4
:101C70000C3C1D440134A742EEDC29464846FFF7E0
:101C8000C3FF284605B0BDE8F08300BFBFF35B8FFC
:101C9000C368BFF35B8FBFF35B8F8268BFF35B8F5B
:101CA0009A4210D94368BFF35B8F8268BFF35B8FA2
:101CB0009B1A0B6073B10368BFF35B8F8268BFF33D
:101CC0005B8F98187047BFF35B8F8268BFF35B8FA1
:101CD0009B1AEEE700207047F0B583B007460E462A
:101CE0001546FFF709FF04460190A84200D32C4691
:101CF00014B9002003B0F0BD01A93846FFF7C6FFB4
:101D0000019B6BB1A34200D901943060019B7360C9
:101D1000A3420DD23A68B260E41AF4600220E9E707
:101D20003B68336074600023B360F3600120E1E737
:101D30000120DFE72DE9F04184B088466946FFF7CE
:101D4000CBFF0746002425460EE004AB03EBC40698
:101D500056F80C2C56F8101C08EB0500FFF77EFA1D
:101D600056F80C3C1D440134A742EEDC284604B072
:101D7000BDE8F08138B50546FFF7DCFF04460146B3
:101D80002846FFF7FDFE204638BD00BF08B500B964
:101D90000120012102F07CFF08BD00BF18B108B589
:101DA00002F07EFF08BD704708B503685B6898477E
:101DB00008BD00BF00207047704700BF002070477B
:101DC00000F5805090F8D800C0F34000704700BF85
:101DD00000F5805090F9E000704700BF00F580509A
:101DE000C0F8DC1001207047F0B583B0BDF820507A
:101DF0000C6814F0005F40F089800C7B082C00F226
:101E00008880302484F31188046AA66816F0806FF5
:101E10000ED1A66816F0006F6BD1A66816F0805F31
:101E200002D04FF0020E05E0002080F311885EE042
:101E30004FF0000EF4460E68002E5DDB76050EF1C5
:101E4000180E4FEA0E1E44F80E600E6816F0804F12
:101E500006D00CF118063601A75947F00207A75122
:101E60000F7B0CF118064FEA061E04EB061677608E
:101E70008E6804EB0C17C7F88C614E68C7F8886150
:101E800054F80E6046F0010644F80E6041F2780EF8
:101E90000EEB4C14044400EB4C1CE644CEF800203E
:101EA000CEF80430D1F800E04F688E68C4F808E03E
:101EB000E76026618E89A6820CF5845C9CF814404C
:101EC00065F300048CF81440C5F34006E4B266F3F1
:101ED00041048CF81440E4B224F008048CF8144057
:101EE000002484F31188009500F018FE012003B04F
:101EF000F0BD4FF0010E9DE7F60046F004060EF12E
:101F0000180E4FEA0E1E44F80E609EE74FF0FF30A9
:101F1000EDE74FF0FF30EAE708B5302383F311888F
:101F200000F58050C06EFFF703FE002383F3118895
:101F300008BD00BF2DE9F04106460F4603462F4A73
:101F400043F8042B002444605C609C60DC601C61EE
:101F50005C612B4B40F8243BFEF7E8FD0022002398
:101F6000C6E90E23A6F8404006F14400FEF7DEFD68
:101F700006F1580844467F250BE000220023C4E9FF
:101F800000230023238104F10C00FEF7CFFD013D67
:101F90002034002DF1DA06F58053C3F858804FF451
:101FA0008052DA6500221A665A66012183F86810A9
:101FB00006F582521832DA6683F8701006F58354FB
:101FC000183402250AE0204600220023E0E802231C
:101FD000FEF7ACFD0023A361013D2034002DF2DAB1
:101FE00006F5805383F8E07027B9064B336230461C
:101FF000BDE8F081044800F015FD00BFEC4D00087D
:10200000984D000800640040684D000810B5044673
:10201000034B19784A1C1A70FFF78CFF204610BD3D
:1020200014380020002978D070B582B00C46424B9D
:10203000994211D90A234149B1FBF4FC013BDBB2BF
:102040009E46581CBCFBF0F100FB11C131B1022BC4
:1020500065D9013BDBB2F3E71123ECE7BCFBF0FCF5
:102060000CF1FF31B1F5806F5CD2C3EBC30E1EF1F2
:1020700003004DD4C0F3C7008DF800001D1AEDB267
:102080008DF80150461C4FF47A7100FB0111701954
:1020900091FBF0F189B2ADF80210B1F5617F18D96A
:1020A000BEF1010E36D4CEF3C70E8DF804E0A3EBDB
:1020B0000E03DBB28DF805300EF101004FF47A719A
:1020C0000EFB0111034491FBF3F1ADF80610019BE7
:1020D00000939DF800104B1C9DF801502B440CFB05
:1020E00003F31648B0FBF3F3A3421DD10139C9B283
:1020F0000F291BD8E5B1082D1CD80CF1FF3CA2F824
:1021000000C000239370D170013D1571012007E0DC
:102110000730AFE70EF1070EC5E70020704700203B
:1021200002B070BD0020FBE70020F9E70020F7E7D0
:102130000020F5E70020F3E73F420F0000B4C4049D
:1021400070B506460D460024B4F57A7F0BD2336A8B
:102150005B6803F00103AB4207D04FF47A7001F0E3
:10216000D1FF0134F0E7002000E0012070BD00BF86
:10217000032963D82DE9F04188B004460D46164680
:1021800000F5805393F8D830C3F3800113F0040FA7
:1021900000D1114604F5805393F8D82061F38202F0
:1021A00083F8D82041F2780303EB4513E71804EBDA
:1021B000451303F5845310331B7913F0010F09D035
:1021C000CEB104EB451303F5845310331B7913F0A0
:1021D000080F13D07EB104EB451303F5845310337D
:1021E0001B7913F0080F06D104EB451404F5845451
:1021F00043F00803237508B0BDE8F08100220023F6
:10220000CDE900230023ADF808300DF10C0840465D
:10221000FEF78CFC4346B868F9683A6907C3BA8A86
:102220001A80DDE90E23CDE900230123ADF8083043
:1022300023689B6B694620469847CBE7704700BFF1
:10224000026A936913F0700F25D00023936100E0B8
:102250000133022B1FDC00EB431202F584521032D3
:10226000127912F0040FF3D000EB431202F58452FE
:102270001032127912F0020FEAD0026A064951F8C0
:102280002310916000EB431202F58452117D41F05E
:1022900004011175DCE77047D44D000870B582B0B9
:1022A000044616461D46036A9A6812F0010F16D1BD
:1022B000236A9A6812F4807F1CD1236A9A6812F408
:1022C000803F24D104F58053D3F8DC0010B10368BB
:1022D0001B6998472046FFF7B3FF02B070BD9A68AC
:1022E0000121996000960195C2F340020021FFF799
:1022F0003FFFDDE79A684FF4807199600096019581
:10230000C2F3402201212046FFF732FFD5E79A6849
:102310004FF48031996000960195C2F3404202214A
:102320002046FFF725FFCDE710B50B4B1C5604B137
:1023300010BD00F081FB02460B4652EA030102D0B9
:10234000013A43F1FF33054951F824000028EFD04A
:10235000FFF7A4FFECE700BFE04D000818380020AD
:1023600038B50446084600297CD1216A01F10C0CDD
:10237000DCF8001011F0030F73D0DCF80010216AB4
:1023800000F11B052D014D5915F0040F6ED100F120
:102390001B052D014D596D0D656200F11B052D01C9
:1023A0004D5915F0020F03D0656A45F0804565620E
:1023B00000F11B0501EB05156D6805F00F0E84F8A3
:1023C00030E001EB0011D1F8B80184F82800D1F811
:1023D000B801000A84F82900D1F8B801000C84F88B
:1023E0002A00D1F8B801000E84F82B00D1F8BC0106
:1023F00084F82C00D1F8BC01000A84F82D00D1F833
:10240000BC01000C84F82E00D1F8BC11090E84F830
:102410002F103821CCF80010656AA06AE16A656463
:10242000A064E164218EA4F85010A263E36300234A
:10243000A4F8403023689B6B04F13801204698478C
:1024400004F5805393F8D82042F0040283F8D82092
:10245000D3F8DC0010B103681B6998472046FFF7EA
:10246000EFFE38BD216A01F1100C81E700F11B0578
:102470002D014D59ED08656245F0004565628CE718
:1024800038B50C4B1D5605B138BD0C4600F0D4FADA
:1024900002460B4652EA030102D0013A43F1FF33F0
:1024A000054951F825000028EED02146FFF758FFD6
:1024B000EAE700BFE04D000818380020302181F322
:1024C00011880021022937DC30B502E001310229F0
:1024D0002EDC00EB411C0CF5845C0CF1100C9CF81C
:1024E00004C01CF0040FF1D100EB411C0CF5845C1E
:1024F0009CF8144014F0100FE8D000EB411C41F29E
:1025000078040CEB040E5CF80450DEF804409542AD
:102510009C41DBD2046A0A4D55F82150A5600CF5A8
:10252000845C9CF8144044F004048CF81440CDE71B
:10253000002383F3118830BD002383F31188704793
:10254000D44D000808B5302383F31188FFF778FED7
:10255000002383F3118808BD036A9B6813F0E05FD2
:1025600001D0012070470020704700BF08B530231C
:1025700083F3118800F58050C06EFFF7BDFA002389
:1025800083F311881F288CBF0020012008BD00BFE5
:10259000F8B507460E4614461D4600231370FFF794
:1025A000E5FF80F0010333701DB13846FFF7D4FF1B
:1025B0002070F8BDF8B504460D4616461F4600F0DB
:1025C0003BFA02460B46297809B9307860B12046BB
:1025D000FFF774FF2046FFF7B5FF3B46324629461A
:1025E0002046FFF7D5FF0120F8BD00BF302383F35D
:1025F00011881B4B9A6D42F000729A659A6B42F0FB
:1026000000729A639A6B22F000729A63002383F33C
:10261000118800F5805393F8D83013F0010F1ED1C4
:1026200010B5044601B910BD302383F3118803218E
:10263000132001F049FC0321142001F045FC032183
:10264000152001F041FC04F5805494F8D83043F093
:10265000010384F8D830002383F31188E3E770473F
:102660000010024000F5805393F8E030012B00F297
:1026700022812DE9F0418AB005460F468F4A52F873
:102680002320002A35D0EF618C4B1B68002B34D0FF
:1026900005F5805393F8E030012B06D1874B18687D
:1026A00003689B6A9847002836D001212846FFF727
:1026B0009DFF302383F311882A6A136823F00203F5
:1026C00013602A6A136843F0010313602A6A002327
:1026D000536183F3118801212846FFF731FD03463A
:1026E00040BB2A6A4FF40041116018460AB0BDE8A9
:1026F000F081724A42F82300C5E741F2E800FFF793
:1027000045FB044610B10021FFF714FC6B4B1C6025
:10271000002CBDD10023E8E7684C00212068FFF7BA
:1027200065FF206803685B683946984703460028C0
:10273000BBD1DAE705F58053D86EFFF7F9F94FF012
:10274000000827E0202200216846FEF79BFD02A832
:10275000FEF7ECF90023069341F2780606EB4816E3
:1027600005EB060EEC46BCE80F00A851CEF80410AD
:10277000CEF80820CEF80C30BCE80700CEF81000E8
:10278000CEF81410CEF818209CF800308EF81C30CB
:1027900008F10108B8F1020FD4D905F5805292F87A
:1027A000D83023F0040382F8D8300023ADF820306D
:1027B0008DF822308DF823308DF8243008AA394660
:1027C0002846FFF72FFC034620B92A6A4FF4004140
:1027D00011608AE72B6A65221A609DF822301B0679
:1027E00003F040739DF82320120402F47022134377
:1027F0009DF82420120502F4E0021343BDF82020C6
:10280000C2F30902296A1343CB612B6A13225A616E
:102810002A6A136823F00103136000212846FFF79A
:102820008FFC0346002841D005F5805292F8E02045
:102830009ABB296AD1F8002242F00102C1F80022B5
:10284000296AD1F8002222F47C5222F00E02C1F84B
:102850000022296AD1F8002242F46062C1F8002205
:10286000296A0022C1F81422296AC1F80422296ABF
:1028700041F6FF70C1F80C02296AC1F84022296AAA
:10288000C1F844222A6A0121C2F81C12296AD1F82F
:10289000002222F00102C1F8002205F5805595F8CA
:1028A000D82042F0020285F8D8201EE72A6A4FF4A9
:1028B0000041116019E700231846704718380020BE
:1028C00008B50020FFF730FD01F0B8FA08BD00BFE1
:1028D00008B500210846FFF7D3FD01F0AFFA08BDA7
:1028E00008B501210020FFF7CBFD01F0A7FA08BDD4
:1028F00038B504460D460068FFF726F91F2801D8B1
:10290000002038BD202229462068FFF799F92028A9
:1029100014BF00200120F4E708B500F583500C3007
:10292000FFF7E6FF08BD00BF38B504460D46006856
:10293000FFF7E2F81F2801D8002038BD20222946E1
:102940002068FFF717FA202814BF00200120F4E7C1
:10295000F0B589B005460C4616461F46302383F372
:10296000118800220023CDE900230023ADF80830B0
:1029700003A8FEF7DBF8694605F583500C30FFF736
:10298000D3FF18B980F3118809B0F0BD03AB07CBB2
:1029900020606160A2601B88A381DDE90023C6E995
:1029A0000023BDF808303B80002383F311883B46A9
:1029B00032462146284600F04BF8E5E700B59BB0CB
:1029C000EFF3098168226846FEF748FCEFF30583C0
:1029D000014B9B6BFEE700BF00ED00E000B59BB034
:1029E000EFF3098168226846FEF738FCEFF30583B0
:1029F000014B9B6BFEE700BF00ED00E000B59BB014
:102A0000EFF3098168226846FEF728FCEFF305839F
:102A1000014B5B6BFEE700BF00ED00E0FEE700BF8F
:102A2000FEE700BF0FB408B5029801F01DFBFEE7FA
:102A300008B501F02FFE08BD08B501F007FE08BD7E
:102A4000002070470120704700207047704700BF8A
:102A50002DE9F04383B01E461B8813F0040F1ED1EE
:102A600005468946041D00F11C080CE02B685B6BD1
:102A700028469847338843F004034A46C1B2206889
:102A80006768B8470834444509D000200090019099
:102A90002368002BEAD16368002BE7D1F2E701201D
:102AA00003B0BDE8F08300BF84B0CDE9001200227E
:102AB00001E00132D2B2022A18D80021029103911A
:102AC00000EBC20149680029F3D100EBC20189681B
:102AD0000029EED100EBC20000F1040CDDE9000199
:102AE0008CE8030001321A70012000E0002004B0DD
:102AF000704700BF0139C9B202290DD882B0002346
:102B00000093019300EBC100031D02AA12E9030028
:102B100083E8030002B07047704700BF2DE9F0471B
:102B20008AB005468A46BDF84870041D00F11C08AD
:102B30004FF0000906E0636863B902E0B9F1000FE5
:102B400016D00834444539D00023089309932368EC
:102B5000002BF0D017F0040FF0D12B685B6B2846E8
:102B600098473B465246C1B220686668B047E8E7DE
:102B700000220023CDE900230023ADF808300DF139
:102B80000C094846FDF7D2FF4B46DAF80000DAF8A8
:102B90000410DAF8082007C3BAF80C201A80FFF7EF
:102BA0004BFFCDE900010423ADF808302B689B6B87
:102BB0006946284698474FF00109C2E701200AB04C
:102BC000BDE8F087084670470846704708467047DA
:102BD00008467047401A83B2002800DB7047203354
:102BE00018B2FBE703780133DBB203701F2B01D966
:102BF00000230370704700BF0E2809D8DFE800F0FB
:102C00001515151515151515150A0C0E10121400AD
:102C1000402070470C2070471020704714207047E8
:102C2000182070472020704730207047082818D996
:102C30000C280BD910280BD914280BD918280BD91C
:102C400020280BD930280BD90F2070470920704756
:102C50000A2070470B2070470C2070470D207047EA
:102C60000E207047034621F0604C20F06042C00FF8
:102C700091EA030F0AD4C1F38071C3F380709445C5
:102C800014D094452CBF002001207047002908DB98
:102C9000002B09DB9445F8D094452CBF002001207F
:102CA00070474FEA9C4CF3E7920CF3E78142ECD17A
:102CB000E7E700BF2DE9F04107460D46D0F8248034
:102CC000B8F1000F0CD046464446A4B1696860686C
:102CD000FFF7C8FF30B9236826465BB11C46F4E70E
:102CE000796208E0A04502D035602C6003E02C60DA
:102CF0007D6200E02560BDE8F08100BFC37DC3F3C5
:102D00008402013262F38603C375C38A6FF3090339
:102D1000C382C37D23F08003C375704738B5044672
:102D20000D46006A04E0016804F10C00FFF74EFF55
:102D300010B10369AB42F6D138BD00BF2DE9F043B5
:102D4000079ECD0803EBD60401F0070E06F007033B
:102D500072442AE00EF0070803F00706C446B045A7
:102D600038BFB446CCF1080CA2EB0E018C4528BF4D
:102D70008C464FF47F4121FA0CF1C9B241FA06F7B3
:102D80004FEADE0100EB050919F8011001FA08F11C
:102D9000F140C9B24FEAD30814F8086071403940D5
:102DA0004E4004F80860E64463449645D2D1BDE83D
:102DB000F08300BF2DE9F04F87B00393838AB1EB16
:102DC000C30F80F0878082460E461546DA006918E8
:102DD0008A4203D2D3B2F2B29B1ADDB2DAF80C30D7
:102DE00043B3272E36D8C6F128039D4230D35FFA6D
:102DF00086FBCBF1280B5FFA8BFB00230093039B30
:102E00005A463146DAF80800FFF798FF5E44A5EB12
:102E10000B04E4B2BAF8147007F10057053FFF0045
:102E2000DAF80C9028214B46B946CDF810A005954C
:102E30001F4626E0DAF81030002BD2D10023009391
:102E4000039B2A463146DAF80800FFF777FF35E0A2
:102E5000AB46D2E72C464FF0000BDBE72546CDF81A
:102E600000B0039B2A46711A381DFFF767FF2E44F6
:102E7000AB445FFA8BFB651BECB2A9EB0A093F6818
:102E80004146A7B19CB1CA46B9F1E00F28BF4FF047
:102E9000E00A0AEB01084645EFD2A8EB06039C4284
:102EA000DCD35FFA88F5F3B2ED1AEDB2D7E7DDF8BF
:102EB00010A0059DDAF8100000B11CB928B207B0C7
:102EC000BDE8F08FCDF800B0039B2246711AFFF7E2
:102ED00035FFF3E70020F2E70020704701390023B7
:102EE00007E0C25C10F801C000F803C0425401338F
:102EF00001398B42F5D3704780EA0120002307E0B7
:102F0000400080B280F4815080F001000133DBB2D8
:102F1000072B05D810F4004FF2D1400080B2F5E73E
:102F2000704700BF70B516461D46002411E0C4F17D
:102F30002003A4F1200C26FA04F105FA03F3194347
:102F400025FA0CFC41EA0C01C9B2FFF7D5FF0834A1
:102F5000A4B23F2CEBD970BD38B50C4604E014F890
:102F6000011BFFF7C9FF2A46551E002AF7D138BDBD
:102F700038B5058C072D0BD90446D0E902234FF64E
:102F8000FF70FFF7CFFF2A46E169FFF7E5FF38BD85
:102F90004FF6FF70FBE700BF10B4016100F1040CB5
:102FA000002305E001EB4314CCF80040A4460133B4
:102FB0009A42F7D80023CCF8003002814381838104
:102FC00003605DF8044B70470346406848B10268EF
:102FD0005A605A89013292B25A8199898A4200D93B
:102FE0009A81704708B5FFF7EFFF08B1002303602F
:102FF00008BD00BF2DE9F84F8246894617461D4699
:10300000CB8AC3F30903052B32D018460024042BC6
:103010000AD8A54208D9395D09EB0302D1760133FC
:103020009BB20134A4B2F2E7A54218D9B9F816B0A0
:10303000CBF3090BABF1050293083D49A1FB031348
:10304000C3EBC303A2EB83021FFA82F8D9F8041082
:1030500081B15046FFF7B6FD064601231CE0284427
:10306000B9F8163060F30903A9F81630012054E0CE
:103070000024DBE75046FFF7B5FF06460146504601
:10308000FFF7A2FDC9F80400002E48D04FF0000859
:103090002CE001339BB216463268002AF9D105EBC9
:1030A0000B02053A92082249A1FB021292B20132A8
:1030B00092B293421AD2B8F1000F17D15046FFF7DF
:1030C00091FF306070B3064610E03A5D06EB0C03EA
:1030D0001A710CF1010C1FFA8CFC0134A4B2BCF182
:1030E0001B0F01D8A542F0D8A54203D8A5420AD9A2
:1030F000C446F4E75046FFF775FF3060A8B10646B6
:103100004FF00008F2E7B9F81630C3F3090215448E
:1031100065F30903A9F816300120BDE8F88F6FF0B8
:103120000200FAE76FF00200F7E76FF00200F4E741
:103130002549922443680B6041604389013B4381E8
:10314000704700BFF8B506460D460EE006F10C04C8
:103150002046FFF737FD014607682046FFF7EAFFE4
:1031600039462046FFF730FD686069680029EDD1D7
:10317000EB8A6FF30903EB8200200021F8BD00BF4A
:1031800008B5FFF721FF034628B100220260426024
:103190008260C2600261184608BD00BF2DE9F04F91
:1031A00083B001921D465B69002B00F09980814637
:1031B0008B462B8C1BB1EA69002A00F09480072B08
:1031C00018D902339BB206334D4A82FB03121344D3
:1031D000C3F38F03B9F81420B9F81610521A92B23B
:1031E000934200F286804FF0800A4FF00008444678
:1031F000474654E009F10C00FFF7C2FF04460028DF
:1032000074D02A8CE9690830FEF728F8288C013040
:1032100080B2FFF70BFDFFF7EFFC431E9BB22B8440
:10322000013323746B691B7803F01F032A8C43F06E
:10323000C003224413724BF00043636021464846AA
:10324000FFF738FD0127384603B0BDE8F08F0020B6
:1032500035E02B8CA34240D0013080B2FFF7E6FC72
:10326000FFF7CAFC431E9BB24FEA4812D2B242EAB1
:103270000A026969097801F01F010A43F1180A720C
:103280004BF0004272600133337431464846FFF719
:1032900011FD01373FB288F001084FF0000A2B8C76
:1032A000A342D0D009F10C00FFF76AFF064618B31D
:1032B000002CCCD1019B03721B0A4372022006280A
:1032C000C7D82B8CA342C4D9EB691A5D33181A7284
:1032D000013080B20134A4B2F1E74FF0400ABBE7FD
:1032E0006FF00107AFE76FF00107ACE76FF002077F
:1032F000A9E76FF00207A6E76FF00207A3E700BF98
:103300009324499230B589B004460D46202200210D
:103310006846FDF7B7FF04952046FFF755FE864641
:10332000A0B1EC46BCE80F00CEF80000CEF80410C7
:10333000CEF80820CEF80C30BCE80F00CEF8100014
:10334000CEF81410CEF81820CEF81C30704609B014
:1033500030BD00BF70B5044600F10C063046FFF7E3
:10336000D1FF054628B1216A3046FFF731FC2860BD
:103370002562284670BD00BF38B504460D46036A75
:103380001BB1FFF7CBFC38B138BD0C30FFF7BAFFEB
:103390000028F9D02062F7E729462046FFF7DAFF38
:1033A000F2E700BFF8B504460E4615461F46302228
:1033B0000021FDF767FFA760069B6360079BA36280
:1033C0006A09B5F5001F01D34FF6FF7292B231467C
:1033D00004F10C00FFF7E0FDF8BD00BF037823B94E
:1033E00019B111F0800F00D101707047007870475B
:1033F0002DE9F84305460C46D1F81C90B9F1000FB1
:1034000022D094F81880B8F11F0F3AD82846FFF759
:10341000EDFF0646F0B9228C072A35D8278A032FFC
:1034200035D849464FF6FF70FFF796FD47F6FE7315
:1034300003405B0243EA08633F0207F440773B43E3
:103440001E434FF6FF720EE00B8C002BD9D06FF0AD
:1034500001050FE0238A1B0243EA08631E4320464E
:10346000FFF786FD0246234631462846FFF796FEC3
:10347000051E02DC2846BDE8F8836069FFF7B2FB51
:10348000F8E76FF00105F5E76FF00305F2E76FF07D
:103490000105EFE7F0B58BB0044616461D4628221D
:1034A00000216846FDF7EEFE02960395BDF8403018
:1034B000ADF81030119B05939DF848308DF8183009
:1034C000139B0793BDF85030ADF820306946204675
:1034D000FFF78EFF0BB0F0BD2DE9F04106460F4619
:1034E0001546D3692BB395F81880B8F11F0F2AD869
:1034F0003046FFF77BFF48B32C8A240444EA086473
:103500002A7844EAC23444EA0724044344F080049D
:103510002846FFF72DFD02462B4621463046FFF791
:103520003DFE041E02DD2B78012B08D02046BDE8AD
:10353000F081138C002BD6D06FF00104F6E7686998
:10354000FFF750FBF2E76FF00104EFE76FF00304C1
:10355000ECE700BF2DE9F0418AB004460D4617465E
:103560001E46282200216846FDF78CFE9DF84C304F
:10357000012B14BF002301238DF80030029703961E
:103580009DF84030ADF81030119B05939DF8483000
:103590008DF81830149B0793BDF85430ADF82030E7
:1035A0006A4629462046FFF797FF0AB0BDE8F0813A
:1035B000406A00B10430704708B5416A0B68436245
:1035C0000C30FFF7B7FD08BD2DE9F0410546164662
:1035D0009846076A3C4619E021462846FFF7B2FDA7
:1035E00005F10C072B6A19683846FFF7EFFA2862D5
:1035F00021463846FFF79EFD2C6A274606E02168E3
:1036000005F10C00FFF7E2FA2746044604B3A1686F
:10361000E368711A68EB03030E4A8A424FF0000216
:103620009A41ECD22B6AA342D6D021462846FFF716
:1036300089FD23683B6005F10C0321461C461846B2
:10364000FFF778FD39682046FFF7C0FA0446DDE74A
:10365000BDE8F08180841E002DE9F04182B0089E13
:10366000002800F0DF8014461D460746002E00F0BB
:10367000DC80013AD2B23F2A00F2DA80012C02D17A
:10368000002B40F0D8806B46002200920192224627
:103690003846FFF78FFB071E3DDD14F0070F0CD0F7
:1036A00002AB03EBD40111F8083C624202F00702BE
:1036B000134101F8083C012C0BD0082C0BD9102C1D
:1036C0002DD9202C2ED9402C00F2B8804FF00808BC
:1036D00003E0A04601E04FF00108FFF7FDFB20BB2F
:1036E000002D6FD0B4EBC80F10D0082C22D89DF855
:1036F0000020631E22FA03F313F0010F06D001230A
:10370000A3405B42DBB21A438DF80020082C61D83D
:103710009DF900303370384602B0BDE8F0814FF0BB
:103720000208DAE74FF00408D7E741466846FFF79A
:10373000D5FBD5E7102C0FD8BDF80020631E22FA68
:1037400003F313F0010FE1D00123A3405B429BB2CE
:103750001A43ADF80020D9E7202C0CD8009A631E3C
:1037600022FA03F313F0010FD0D00123A3405B42F0
:103770001A430092CAE73F2C63D8009D019A631E4A
:10378000C4F12100A4F1210125FA03F302FA00F0AB
:10379000034322FA01F10B4313F0010FB6D00123CA
:1037A000A4F12001C4F1200003FA01F123FA00F092
:1037B0000143A3405B4261EB41011D430A43009575
:1037C0000192A3E7012C17D0082C19D89DF80030DE
:1037D0003370A0E7102C03D8BDF9003033809AE78E
:1037E000202C02D8009B336095E7402C2CD8DDE9D3
:1037F0000023C6E900238EE79DF8003033708AE786
:10380000102C03D8BDF80030338084E7202C02D878
:10381000009B33607FE7402C19D8DDE90023C6E91F
:10382000002378E76FF0010775E76FF0010772E793
:103830006FF001076FE76FF001076CE76FF00807A3
:1038400069E76FF0080766E76FF0080763E76FF056
:10385000080760E7F0B585B005460E46402A03D854
:10386000144612B9012400E040240022029203927F
:10387000012C06D0082C22D81B788DF8083001279F
:1038800003E01B788DF808302746FFF725FB68BB5F
:1038900014F0070F0AD004AB03EBD40111F8083C75
:1038A000624202F00702934001F8083C00962B4662
:1038B0002246002102A8FFF741FA05B0F0BD102C06
:1038C00004D81B88ADF808300227DEE7202C03D887
:1038D0001B6802930427D8E7402C05D8D3E90023BE
:1038E000CDE902230827D0E70027CEE7394602A812
:1038F000FFF7F4FACCE700BF70B506460C4605E0CA
:103900000D6806F10C00FFF715FCE560E168002981
:10391000F6D10023E360A3602361A38270BD00BFE2
:1039200010F0800F04D010F4004F03D00120704736
:10393000022070470020704710B50446FFF7F0FFE3
:10394000022802D0C4F3074010BDC4F30F2014F0C6
:103950007F0FF9D100F00300F6E700BF2DE9F04F2B
:1039600099B006460D4605920693D1F80090484658
:10397000FFF7D6FF0746022800F0E580C9F30628C6
:10398000B9F1000F80F2038219F0C04F40F00282BB
:103990002C7B002C00F00182022F05D03046FFF76F
:1039A00025FD404540F0FC81C9F304630A9309F00A
:1039B0007F0104914846FFF7BFFF099040EA07499D
:1039C000049949EA814949EA4869013C2C4494F840
:1039D000048000220023CDE916235FEAD813029366
:1039E00000F0B480746800913B46024616A9304648
:1039F000A047002800F0D78149463046FFF7BCFCBD
:103A00000446002800F0D281A368D4F80CA0059ADF
:103A10000393D21A0792069860EB0A0008906A7B1B
:103A20000B92A07E0C9094F81790C9F3840908F0CB
:103A30001F0B59464846FFF7CDF80D9049465846AA
:103A4000FFF7C8F86268039B53EA0A0A18D08D4B47
:103A500007998B424FF0000308998B4110D30B9BC1
:103A60000C998B4200F08880874B079A93424FF065
:103A70000003089A934114D2029B93B10F2810DCE3
:103A8000E37D68F38603E375DBB223F08003E3751F
:103A900021463046FFF756FB6B7BA376029B002B3B
:103AA00076D06A7BA37E9A4240F08681029B13B156
:103AB00018F0400F76D1E27DC8F34013B3EBD21F6C
:103AC00040F07E81C2F384039B4540F07C81029BE1
:103AD000002B00F0A38018F0400F40F0A2802B7B59
:103AE000032B40F27381059BA360069BE360E38A8E
:103AF0006FF30903E382AF1D2B7B033BDBB23A4636
:103B0000214606F10C00FFF775FA00287CDB2B79C3
:103B10006A7943EA02232383DDE916234FF6FF7017
:103B2000FFF700FAA0822A7B033AD2B23946FFF7A8
:103B300013FAA082E37DDA43C2F3C01262F3C71323
:103B4000E375002039E14FF0000819E74946304697
:103B5000FFF7E4F8044600287FF456AF7468049B2E
:103B600000933B46099A16A93046A047002840F02A
:103B700020816FF00B0020E1029B002B3FF474AF1B
:103B80000D9B012B3FF77CAF002A7FF479AF6BE7E9
:103B9000E37DC3F38402013262F38603E3756FF0C1
:103BA0000C000AE1059BA360069AE2600DF138085B
:103BB000202200214046FDF765FB059B0E93069AE7
:103BC0000F922B1D10932B7B013BDBB2ADF84C30D9
:103BD000099BADF84E308DF850708DF851B00A9BAE
:103BE0008DF85230049B8DF8533096F82C3083F0CA
:103BF00001038DF85430B36841463046984720465B
:103C0000FFF77CF80020D8E021463046FFF79AFA0B
:103C10002046FFF773F86FF00200CEE018F0400F77
:103C200010D095F80C9009F1FF395FFA89F9B4F8D2
:103C30001680C8F30908B8F1040F7BD843464FF04B
:103C400000082DE02F1D2B7B013BDBB23A462146BD
:103C500006F10C00FFF7CEF9002808DB2A7B013AB9
:103C6000D2B23946A08AFFF777F9A08262E72146EF
:103C70003046FFF767FA2046FFF740F86FF0020082
:103C80009BE000BF80841E0040420F0005EB08024D
:103C90001179E218D176013308F101085FFA88F84A
:103CA000042B01D8C845F1D3059B0E93069B0F93B7
:103CB00004F11B031093616806F10C00FEF782FF0C
:103CC0001190C8455AD2A84408F104031293E38A1C
:103CD000C3F309039944ADF84C90099BADF84E30FD
:103CE0008DF850708DF851B00A9B8DF85230049BBE
:103CF0008DF8533096F82C3083F001038DF8543052
:103D0000002363602A7B013A291DA08AFFF724F96A
:103D1000A082238B984233D00EA93046FFF7ECFDEA
:103D20002046FEF7EBFFA28A238B9A422DD06FF03C
:103D3000100042E0616806F10C00FEF743FF024606
:103D400008B1052104E04FF00008ADE71C311A4628
:103D50001368002BFAD1A8EB01034FF000081B2BCE
:103D6000A2D8C845A0D205EB08010879D11808717E
:103D7000013308F101085FFA88F8F0E70023A5E7AE
:103D8000B3680EA930469847C6E7002015E06FF0EB
:103D9000090012E06FF009000FE06FF009000CE07D
:103DA0006FF00A0009E06FF00B0006E06FF0020010
:103DB00003E06FF00C0000E0002019B0BDE8F08FC8
:103DC0006FF00D00F9E76FF00E00F6E76FF00F00EF
:103DD000F3E700BFEFF30983683305494A6B22F02C
:103DE00001024A6383F30988002383F31188704733
:103DF00000EF00E0302080F3118862B60C4BD968E8
:103E000021F4E0610904090C0A4A0A43DA60D3F894
:103E1000FC2042F08072C3F8FC2007490A6842F097
:103E200001020A602022DA7783F82200704700BF7F
:103E300000ED00E00003FA05001000E0302383F3FA
:103E40001188104B5B6813F4006F03D1002383F3D8
:103E50001188704710B5F1EE103AEFF30984683C11
:103E60004FF08073E361084BDB6B236684F30988B2
:103E700000F0B6F810B1054BA36110BD044BA3616F
:103E8000FBE700BF00ED00E000EF00E0F3020008F8
:103E9000F602000810B44FF0E0235C6800230BE04A
:103EA000084A03F120004FF0FF3142F8201003F1DF
:103EB000600042F820100133A342F1D95DF8044BB1
:103EC000704700BF00E100E00901C9B2074A1318BA
:103ED00083F8001300F01F01400901238B4000F11B
:103EE000600142F8213042F82030704700E100E0E4
:103EF0000023037503691B68996882689142FAD2AE
:103F000003605A68426010605860704708B5084600
:103F1000302383F311880B7D032B05D0042B0FD0A6
:103F20002BB983F311880AE08B6900221A604FF0E5
:103F3000FF338361FFF7DCFF002383F3118808BDA3
:103F40004A680B6813604A685A60F0E700230375FB
:103F500003691B68996882689142FAD803605A68BD
:103F6000426010605860704708B5FFF7C1FF08BD98
:103F700038B50A4BDD6828751C6822681A605360E2
:103F800001222275DC60A368934204D029462046B2
:103F9000FCF79AF938BD00F049FCF7E7F03900204A
:103FA00030B587B004460C4BDD68B1F1FF3F0FD050
:103FB0002B460A4A684600F02BF92046FFF7D8FF47
:103FC000009B13B1684600F031F9A86907B030BD15
:103FD000FFF7CEFFF9E700BFF03900200D3F0008E2
:103FE000044BDA681B6898689368984294BF002075
:103FF00001207047F039002038B50B4BDD681C6894
:1040000022681A60536001222275DC60AB6893421B
:1040100007D02846FFF79AFF01462046FCF754F9DF
:1040200038BD00F005FCF4E7F039002008B50B4B73
:1040300001221A70002353B109490A4800F034FCE8
:10404000064B02221A70002383F3118808BD034A2D
:1040500002EB8302002151600133ECE7483A002073
:10406000284E0008F039002008B572B6044B1865D8
:1040700000F0BAFA00F094FB024B03221A70FEE73C
:10408000F0390020483A002008B500F009F908BDD1
:104090008B6002230B7500234B750861084670473F
:1040A00008B58168A1F1840341F8143C026941F824
:1040B000442C426941F8402C044A41F8242CC3683E
:1040C000026820390248FFF7E3FF08BDE10200085B
:1040D000F039002008B5FFF7E3FFFFF745FF08BD03
:1040E00008B5034BDB6898610F20FFF741FF08BD5F
:1040F000F039002008B5302383F31188FFF7F0FF73
:1041000008BD00BF08B50146302383F3118808209D
:10411000FFF746FF002383F3118808BD10B403683E
:1041200001E0121B1B689C68A242FAD88A600B60EF
:104130005C684C60216059609968891A99604FF0F9
:10414000FF3383605DF8044B704700BFF8B5154638
:104150001C46C2608B60486003680B605960016058
:10416000092C00D80A24C068204400F089FB0A27E3
:1041700000F082FB0646431B9C4202D90A2F07D857
:10418000F8BD7C1C281900F089FB27463546EFE76F
:10419000012000F0C9FBF3E770B504460D4609297C
:1041A00000D80A250A26601900F078FB00F064FBAD
:1041B000041BA54202D90A2E04D870BD013635462B
:1041C0000446F0E7012000F0AFFBF6E7F8B505463E
:1041D0000F46164600F050FB2B689D420DD0EC6850
:1041E000041B341900D334469B68A3420CD82246E2
:1041F00039462846FFF792FFF8BD33460246394656
:104200002846FFF7A3FFF7E73146FFF7C5FFEEE7C4
:1042100008B50361C260002343610A4601460248B3
:10422000FFF7D4FF08BD00BF003A002008B51B4BC4
:104230001B69984210D042680368136042685A6054
:104240000268936881680B44936000230360134BFA
:104250004FF0FF329A6108BD1968104A134643F8BF
:10426000101F4B600021016012699A4212D09368BE
:1042700081680B44936000F0FFFA084AD369A0EB11
:10428000030C126991686145E5D91B1A1944FFF7BF
:1042900083FFE0E700F0FCFADDE700BFF039002023
:1042A000F8B50BE0002383F31188E3682169204609
:1042B0009847302383F311886369CBB9244D2C6967
:1042C00000F0DAFAED69411BA2688A4232D815443F
:1042D0001F4BDD61616822680A60616851600022DD
:1042E000226053F8102F9A42DCD100F0D1FAD9E7BE
:1042F00000F0C2FA0746461B6269B2420ED32B1A7F
:104300001A44134B53F8101F99420CD0961900D23F
:10431000324621460F48FFF701FFCFE7022000F0A9
:1043200003FB0022EDE713463A4621460948FFF712
:104330000DFF0CE0064A52F8101F914207D0044AC4
:10434000D061A2682B1A9918A160FFF725FFF8BD6C
:10435000F0390020003A002038B500F08DFA054A07
:10436000D2E90845031B181945F10001C2E908010B
:1043700038BD00BFF039002000207047FEE700BFC5
:10438000704700BF4FF0FF30704700BFBFF34F8F43
:10439000024B1B6913F4803FFAD1704700200240A2
:1043A000014BF3221A6170470020024008B50B4B05
:1043B0001B7803B108BDFFF7E9FF094B5B69002BD0
:1043C00005DB074A136823F480631360F2E7044BAC
:1043D000044A9A6002F188329A60F2E7603A00205B
:1043E000002002402301674508B50C4B1B7803B140
:1043F00008BDFFF7CBFF0A4B5A6942F000425A61F1
:104400001A6842F480521A601A6822F480521A60C4
:104410001A6842F480621A60EAE700BF603A00203E
:10442000002002402DE9F04112F0070F0FD10546A0
:104430000C46164610F0070F09D102442D4B9A4244
:104440000FD92D4B40F289321A60002004E02A4B2C
:104450004FF461721A600020BDE8F081083E083513
:104460000834072E08D92B6822689A4204D12B1DE4
:104470001B6862689A42F1D00EB90120ECE7FFF7A1
:1044800095FFFFF783FF012E2FD9DFF87C800123F2
:10449000C8F8143023682F4647F8043B63686B6004
:1044A000FFF774FFD8F8103043F00103C8F810305C
:1044B0000023C8F814302B6822689A4207D13F685D
:1044C0006368BB4203D1083E08340835DBE70A4B7A
:1044D00040F2B1321A60094B1D60094B1E60094B56
:1044E0001C60FFF781FF0020B6E7FFF77DFF01208A
:1044F000B2E700BF000004085C3A0020583A0020F0
:10450000543A0020503A0020002002407F2803D86F
:1045100000F58030C0027047002070474FF4006003
:10452000704700BF802070477F2811D838B50546F6
:10453000FFF7ECFF04462846FFF7F0FF30B1236891
:10454000B3F1FF3F06D104380434F7E7012038BD4A
:10455000002070470020FAE77F2801D9002070472B
:1045600038B50446FFF712FFFFF720FFFFF718FFEB
:104570000E4B02225A615A6942EAC4025A615A69D0
:1045800042F480325A61FFF701FF2046FFF7BEFF79
:1045900005462046FFF7C2FF0146284600F0FCF81A
:1045A000FFF722FF2046FFF7BFFF38BD0020024083
:1045B00008B5FFF737FF08BD08B548B1094B1B78B0
:1045C00003B108BDFFF7F2FE064B01221A70F8E7AF
:1045D000044B1B78002BF4D0024B00221A70FFF71B
:1045E00003FFEEE7603A002010B5002404B110BDCF
:1045F000064804EB44039A00134603445968805864
:1046000000F0CCF80134E4B2F0E700BF344E00080B
:1046100008B50846114600F03BFB08BD08B5084642
:1046200000F03EFB08BD00BF302383F311887047C4
:10463000002383F311887047302383F31188704778
:10464000002383F311887047FFF786BE38B5EFF378
:104650001183D3B9EFF30583C3F3080353B9FFF70D
:10466000E3FFFFF7F1FF05460C46FFF7E1FF2846A1
:10467000214638BDFFF7E0FFFFF7E6FF05460C4691
:10468000FFF7DEFF2846214638BDBDE83840FFF77A
:10469000DBBF00BF10B5FFF7D9FF0E4C0E4BC008B3
:1046A00040EA4170A0FB03C2A4FB00E010EB0C0049
:1046B0004FEAD1014FF0000CE1FB032C4FF0000357
:1046C0005B41E1FB04039B184CF100001B0943EA2A
:1046D000007010BDCFF753E3A59BC42009E000F1A3
:1046E000010C064A52F8202041F8042B1A465FFAC2
:1046F0008CF0531EDBB2002AF1D1704750280040E5
:1047000010B4144BD3F8903013F4004F0AD1114B6E
:10471000D3F89040C3F89040D3F8904044F400445C
:10472000C3F890400C4C236843F48073236009E085
:1047300000F1010C51F8044B084A42F820401A4697
:104740005FFA8CF0531EDBB2002AF1D15DF8044B06
:10475000704700BF00100240007000405028004029
:1047600000B583B0012201A90020FFF7B7FF01982F
:1047700003B05DF804FB00BF10B582B00446FFF73C
:10478000EFFFA04201D102B010BD0194012201A9A6
:104790000020FFF7B5FFF6E7704700BF704700BF86
:1047A000704700BF074B45F255521A6003225A600A
:1047B00040F2FF729A604CF6CC421A60024B012222
:1047C0001A70704700300040613A0020034B1B789C
:1047D0001BB1034B4AF6AA221A607047613A0020C7
:1047E00000300040054B1B683BB903F1804303F5E3
:1047F0000433D3F89420014B1A607047643A0020C8
:10480000024B4FF40002C3F894207047001002409E
:1048100008B5FFF7E7FF044B186800F000500038B8
:1048200018BF012008BD00BF643A0020704700BFD8
:10483000704700BF704700BFFEE700BF084B094943
:1048400003E051F8042B43F8042B074A9342F8D3B2
:1048500002E0002243F8042B044A9342F9D3704744
:10486000683A0020184F0008683A0020683A002093
:1048700008B500F0B5F808BD4FF08043586A70479E
:104880004FF08043586300221A610222DA607047B9
:104890004FF080430022DA60704700BF4FF0804342
:1048A00058637047FEE700BF70B586B004460E46F9
:1048B000194B5860002585620163FFF79BFA24605D
:1048C0006460A560E56204F11003236163614FF049
:1048D000FF33A361E561FFF7CFFF02462B46C4E932
:1048E0000823256580230D4A04F134012046FFF793
:1048F000CFFBE06001230375094A009272680192C0
:10490000B26802920393074B049305956846FFF73C
:10491000E1FB06B070BD00BF483A0020804D0008A2
:10492000884D0008A5480008024AD36A0343D362B1
:10493000704700BFF03900204B6843608B6883608C
:10494000CB68C3600B6943614B6903628B69436247
:104950000B680360704700BF10B5144BDA6A42F071
:104960008702DA62DA6A22F08702DA62DA6ADA6CDD
:1049700042F08702DA64DA6E42F08702DA66DB6EB2
:104980000B4C21464FF09040FFF7D6FF04F11C017D
:104990000848FFF7D1FF04F138010748FFF7CCFFC3
:1049A00004F154010548FFF7C7FF10BD0010024095
:1049B000404E00080004004800080048001C004861
:1049C00008B5FFF7C9FF00F0A9F808BD08B500F069
:1049D0004DF9FFF72BFBFFF705FF08BD704700BF40
:1049E0000F4B9A6D42F001029A659A6F42F00102F4
:1049F0009A679B6F0B4A936843F0010393604FF0F3
:104A000080434F229A624FF0FF32DA6200229A61AD
:104A10005A63DA605A6001225A611A60704700BF17
:104A200000100240002004E008B54FF080421369F6
:104A3000D168C9B20B40D943116113F0020F00D104
:104A400008BD302383F31188FFF71EFB002383F397
:104A50001188F5E70C4A136823F0F00343F0600374
:104A60001360136843F001031360074B1B6813F0D6
:104A7000020FFAD0044B00229A60034B9B6813F09C
:104A80000C0FFAD1704700BF001002400D4B61229D
:104A90001A600C4B1B6813F0020FFAD0094B00226E
:104AA0009A60084B9B6813F00C0FFAD1054A6923F2
:104AB0001360D2F8943023F4706343F4C063C2F8F7
:104AC0009430704700100240064B074ADA601A68BB
:104AD00042F080721A60034B1B6813F0007FFAD01B
:104AE000704700BF0010024003140001064B074A44
:104AF0001A611A6842F080621A60034B1B6813F057
:104B0000006FFAD0704700BF00100240000C100088
:104B100008B5FFF7BFF900F0A3F808BD10B5494B81
:104B20009A6A4FF0FF3199629A6A00229A62986AF3
:104B3000D86A60F08700D862D86A00F08700D8622F
:104B4000D86A186B1963186B1A63186B986B9963A2
:104B5000986B9A63986BD86BD963D86BDA63D86B10
:104B6000186C1964196C1A641A6C374A4FF4E061B6
:104B700011601A6E42F001021A66D3F8802022F00A
:104B80000102C3F88020D3F880209A6D42F0805251
:104B90009A659A6F22F080529A679B6F2B4B4FF465
:104BA00040721A60294B5B6913F4806FFAD1274B6E
:104BB00000225A60FFF74EFF224BD3F8903013F4D7
:104BC000407F07D01F4B4FF48032C3F89020002263
:104BD000C3F89020FFF75AFF1A4A136843F4803352
:104BE0001360184B1B6813F4003FFAD0154CD4F82F
:104BF000903023F0007323F44073C4F89030FFF733
:104C000063FFFFF773FF0023A360114BC4F88830E4
:104C10000D4A136823F0070343F0040313600A4BA3
:104C20001B6803F00703042BF9D1064A936843F08D
:104C300003039360034B9B6803F00C030C2BF9D127
:104C400010BD00BF00100240002002400070004074
:104C50005555013408B5FFF7E7FEFFF7EFF808BD3B
:104C600008B507211C20FFF72FF908BD08B5FFF78D
:104C70004FFF00F005F8FFF7B1FEFFF7F9FD08BDA3
:104C8000704700BF0B460146184600F043B80000CD
:104C9000024B0A4601461868FFF7BABC18110020FB
:104CA000024B01461868FFF7B9BC00BF181100207D
:104CB00010B501390244904201D1002005E003788B
:104CC00011F8014FA34201D0181B10BD0130F2E7CB
:104CD0002DE9F041A3B1C91A17780144044603F144
:104CE000FF3C8C42204601D9002009E00578BD42F6
:104CF00004F10104F5D10CEB0405D618A54201D14D
:104D0000BDE8F08115F8018D16F801EDF045F5D0FC
:104D1000E7E7000010B504460448134620B10A46F0
:104D200002202146AFF3008010BD00BF000000004C
:104D30006F72672E6172647570696C6F742E416555
:104D4000726F466F782D474E53535F4639500000BF
:104D500040A2E4F1646891060000000041A3E5F27E
:104D600065699207000000004261642043414E499A
:104D70006661636520696E6465782E0063300000AB
:104D80006D61696E0000000069646C6500000000E0
:104D90000000000000000000A91D000865260008B2
:104DA000B5250008DD1D0008E91D0008512900088F
:104DB000B51D0008BD1D0008B91D0008191F000819
:104DC000C11D0008A92A0008F52A0008D11D000805
:104DD0001929000880000000008000000000800009
:104DE00000FFFF000000000000000000A91D0008F7
:104DF0001D2A0008412A0008452A00081D2B00082A
:104E0000512A0008B51D0008492A0008B91D0008EC
:104E10004D2A00081D2A0008A92A0008F52A0008C2
:104E20001D2A00081D2A00087C4D0008203800209B
:104E3000F03900200001002000FF00000100000008
:104E40000001002800000000AAAAAAAA000100246C
:104E5000FFFF0000000000000000000050000A00FA
:104E600000000000AAAAAAAA10000000F7FF000094
:104E70000000000099000000000000000000000099
:104E8000AAAAAAAA00000000FFFF0000000000007C
:104E90000000000000000000000000000000000012
:104EA0000000000000000000000000000000000002
:104EB0005504000000000000006003000000000036
:104EC000FE2A0100D20400001C1100200000000096
:104ED0000000000068000000D0000000000000009A
:104EE00000000000000000000000000000000000C2
:104EF00000000000000000000000000000000000B2
:104F000000000000000000000000000000000000A1
:084F1000000000000000000099
:00000001FF
