:020000040800F2
:1000000000070020E5010008CD2C0008692C00083D
:10001000A92C0008692C0008892C0008E7010008B9
:10002000E7010008E7010008E70100088140000837
:10003000E7010008E7010008E7010008E701000800
:10004000E7010008E7010008E7010008E7010008F0
:10005000E7010008E7010008E7010008E7010008E0
:10006000E7010008E7010008E7010008E7010008D0
:10007000E7010008E7010008E7010008E7010008C0
:10008000E7010008E7010008E7010008652B000808
:10009000752B0008852B0008E7010008E701000820
:1000A000E7010008E7010008E7010008E701000890
:1000B00035700008E7010008E7010008E7010008C3
:1000C000E7010008E7010008E7010008E701000870
:1000D000E7010008E7010008E7010008E701000860
:1000E000E7010008E7010008E7010008E701000850
:1000F000E7010008E7010008E7010008E701000840
:10010000E7010008E7010008E7010008E70100082F
:10011000E7010008E7010008E7010008E70100081F
:10012000E7010008E7010008E7010008E70100080F
:10013000E7010008E7010008E7010008E7010008FF
:10014000E7010008E7010008E7010008F56700087B
:10015000E7010008E7010008E7010008E7010008DF
:10016000E7010008E7010008E7010008E7010008CF
:10017000E7010008E7010008E7010008E7010008BF
:10018000E7010008E7010008E7010008E7010008AF
:10019000E7010008E7010008E7010008E70100089F
:1001A000E7010008E7010008E7010008E70100088F
:1001B000E7010008E7010008E7010008E70100087F
:1001C000E7010008E7010008E7010008E70100086F
:1001D000E7010008E7010008E7010008E70100085F
:1001E0009912000802E000F000F8FEE772B6374806
:1001F00080F30888364880F3098836483649086015
:1002000040F20000CCF200004EF63471CEF2000154
:100210000860BFF34F8FBFF36F8F40F20000C0F252
:10022000F0004EF68851CEF200010860BFF34F8F08
:10023000BFF36F8F4FF00000E1EE100A4EF63C71F5
:10024000CEF200010860022080F31488BFF36F8FA4
:1002500005F02AFD06F0C8FD4FF055301F491B4A36
:1002600091423CBF41F8040BFAE71D49184A9142FC
:100270003CBF41F8040BFAE71A491B4A1B4B9A4250
:100280003EBF51F8040B42F8040BF8E70020184970
:10029000184A91423CBF41F8040BFAE705F008FD0B
:1002A00006F0A8FD144C154DAC4203DA54F8041BBB
:1002B0008847F9E700F042F8114C124DAC4203DADE
:1002C00054F8041B8847F9E705F0F0BC000700204C
:1002D000002300200000000808ED00E000010020DD
:1002E00000070020A0750008002300209C230020A8
:1002F000A0230020AC540020E0010008E401000825
:10030000E4010008E40100082DE9F04F2DED108A0A
:10031000C1F80CD0C3689D46BDEC108ABDE8F08FD3
:10032000002383F311882846A047002004F062FFD1
:10033000FEE704F0C9FE00DFFEE700002DE9F04112
:1003400082B000F0ADFF05F037FC054605F08CFCEF
:100350000746A8B9374B9D4227D001339D4227D08D
:1003600025F0FF02344B9A4203D0064641F288340E
:1003700008E0E8B200F066FE3E4642F2107401E08A
:100380000646002400F064FE08B10024264601F071
:10039000EDFC804678B941F288339C4211D0D7B148
:1003A000264B9D4211D1002716E006460024E9E7BE
:1003B00000240126E6E7032000F04CF8002426463E
:1003C000EDE74FF47A740126E9E705F045FC0127D3
:1003D0000024264600E00027002005F0F9FB0EB9B6
:1003E00000250FE000F054F8FAE7CDF800803B4616
:1003F00022463146124801F00DF8C82000F0C6FF31
:100400000135EDB2132DF0D900F09AFE0EE000F0A8
:10041000E7FE4FF47A7004F0F5FE002CF7D002F0FE
:100420005DFC401BA042F2D900F032F802F056FC0D
:100430000546F2E7010007B0000008B0263A09B00F
:1004400028710008302383F31188854680F30888DB
:100450000847704708B50C4B1870032806D8DFE82A
:1004600000F00A06020E022000F086FF08BD0220FE
:1004700000F078FFFAE7054B00225A60F6E7034BDD
:1004800000225A60F2E700BFA8230020A02300202A
:1004900008B501F06BFC014668B9072916D88B0036
:1004A00003F1006303F580331B68B3F1FF3F09D00C
:1004B0000131C9B2F1E7294800F0ACFF0320FFF792
:1004C000C9FF42E0264800F0A5FF3EE0254B5968F1
:1004D000013B99423AD9244B9A6802F1006303F533
:1004E0008033994236D205F089FB05F09BFB002052
:1004F00000F0F2FE0220FFF7ADFF1C4B1A6C002249
:100500001A64196E1A66196E596C5A64596E5A66D5
:100510005A6E5A6942F080025A615A6922F080028A
:100520005A615A691A6942F000521A611A6922F036
:1005300000521A611B6972B60A4B4FF0E022C2F8F2
:10054000083D59681868FFF77DFF08BD084800F0AE
:1005500061FFFAE7074800F05DFFF6E75471000815
:1005600068710008000001080023002000380240E4
:10057000847100089C710008BFF34F8F0549CA6859
:1005800002F4E062044B1343CB60BFF34F8F00BF14
:10059000FDE700BF00ED00E00400FA05094A13681A
:1005A00099B21B0C49F2690000FB01331360064B42
:1005B000186882B2000C44F2506101FB020018601E
:1005C00080B27047142300201023002010B5044689
:1005D000FFF7E4FFB0FBF4F304FB130080B210BD9F
:1005E00010B403460022026042608260C260044C84
:1005F00007CC186059609A605DF8044B704700BFE3
:10060000107AFF1F70B50E4614461D4603F044F8DD
:1006100060B9022D33D1012C01D0002030E019A3A4
:10062000D3E90023C6E90023012029E0282C1FD0AC
:100630000CD8012C15D0052C06D114A3D3E9002326
:10064000C6E9002301201BE0002019E0302C06D170
:1006500010A3D3E90023C6E90023012010E0002005
:100660000EE00EA3D3E90023C6E90023012007E032
:100670000CA3D3E90023C6E90023012000E00020F9
:1006800070BD00BF401DA12026812A0BF017304A03
:1006900039059E5678F6339F93CACD8D9E6AC42144
:1006A000818A46EE26417272DF25D7B770B58AB0CF
:1006B00006460D4602F012FB04464FF4C870FFF7E1
:1006C00085FF044404F51674184B1C60EB7E23B9B7
:1006D000174B00221A700AB070BD05A9284601F018
:1006E000CBF80028F7D101AC2046FFF779FF9DF841
:1006F00016502A4621460DF1170006F0CDFC48B9E8
:100700000F2D0BD80A4B1D70084A1368A3F51673FA
:100710001360E0E7064B00221A70DCE79DF8141026
:100720000029D8D0304602F0AFFFD4E7E8280020F7
:10073000E42800202DE9F041ADF5507D07460E4636
:100740000EAC4FF4C4720021204600F0B7FE02F058
:10075000C5FA304BA3FB003080092F4B186093E89B
:10076000070084E80700022323744FF0000884F890
:1007700011800DF15A00FFF733FF032384F8203076
:10078000F62384F821300DF11C0CE646234D0FCDE5
:10079000AEE80F0095E807008EE807001B2384F8F9
:1007A0003231BCE80F00CDF86B01CDF86F11CDF8F8
:1007B0007321CDF87731BCE80300CDF87B01CDF88B
:1007C0007F11BCF800209CF80230ADF883218DF831
:1007D000853171AD01222946204600F0AFFF80B27D
:1007E00005900495CDF80C80B37E029306F11903B1
:1007F00001930123009305A3D3E90023F17E38463A
:1008000002F0FEFF0DF5507DBDE8F0819E6AC42127
:10081000818A46EED34D6210EC280020BC7100089E
:10082000F0B5FDB006460D462B4B1C7A6CBB07A9F4
:10083000284601F08DF8002846D19DF81D70C82F7C
:1008400042D84FF4A6620021234800F037FE09E0A9
:100850002202214B4FF48A7101FB0433C3F8E420D8
:100860000134E4B2032CF3D91C4C3A460DF11E01BD
:10087000204600F0F7FD093CE219002353729DF871
:100880001C3023720BB9EA7E22723AAF812200211A
:10089000384600F013FE5BAC01222146384601F0D9
:1008A000B1F880B20590049400230393AB7E0293C9
:1008B00005F1190301932823009305A3D3E900232D
:1008C000E97E304602F09CFF7DB0F0BDAFF30080C2
:1008D00026417272DF25D7B7B4230020BD23002044
:1008E000134BB3F82C35834200D9704710B504463A
:1008F000002100F01BFD01340D4BA3F82C450C4BDF
:10090000B3F82C0500F0F6FC88B1094BB3F82C05C0
:1009100000F002FD58B9064C0021B4F82C0500F097
:1009200005FDB4F82C350133A4F82C35E7E710BDEC
:10093000B42300202DE9F043F1B00646294C94F889
:10094000D8304FF48A7505FB004585F8DC30002768
:1009500085F8E8700DF1E808D8223946404600F0E5
:10096000ADFD04F10909484600F09EFD8DF8F00048
:10097000D5F8E4303A933B97C2B249460DF1F10005
:1009800000F070FD06AD01222946404601F090F8C6
:1009900080B205900495012303930823029304F188
:1009A000D8030193302300930CA3D3E90023217AC9
:1009B0000D4802F025FFB84203DC002071B0BDE80D
:1009C000F08302F08BF94FF48A7202FB0643C3F8FE
:1009D000E0000120F2E700BFAFF3008078F6339F1C
:1009E00093CACD8DB4230020EC49002038B502F025
:1009F00075F90546002408E00532B3EB420F02D337
:100A0000FFF798FFF8B10134E4B2032C1BD80E4B6A
:100A100093F8D900204400F003004FF48A7202FBDF
:100A2000003393F8E830002BEDD1074B02FB003385
:100A3000D3F8E030002BE3D0EB1A034A1268F92A0E
:100A4000DAD8FA22D8E738BDB423002010B586B032
:100A5000BDF828400494099C03949DF8204002941A
:100A60000193009202460B46024802F069FE06B06E
:100A700010BD00BFEC49002010B58AB0244802F038
:100A80000BFE08B10AB010BD02F028F9214B1B681B
:100A90009842F7D302F022F904464FF4C870FFF7EA
:100AA00095FD044404F516741A4B1C6000238DF860
:100AB0002030194B1B7813B901238DF8203004A87E
:100AC000FFF78EFD144B1B78C3F11004E4B2062C23
:100AD00000D90624224604A919440DF1210000F092
:100AE000C1FC0134029408AB0193182300930B4B13
:100AF000012205A1D1E90001FFF7A8FF064B002262
:100B00001A70BFE7AFF30080401DA12026812A0B99
:100B1000EC490020E8280020E4280020F8280020E4
:100B200010B586B002F0DAF80F4BA3FB00239B0947
:100B30000E48036004AC0122214600F045FE80B25D
:100B40000290019418230093094B40F2551204A11E
:100B5000D1E90001FFF77AFF06B010BDAFF30080C6
:100B6000F1C6A7C1D068080FD34D6210EC28002051
:100B7000B023002010B502460B46094C204602F077
:100B800079FE204602F088FD38B1064B1B7A2BB166
:100B90000322054B5A71FFF7C3FF10BD0222F8E78D
:100BA000EC490020B4230020EC28002038B50025B3
:100BB000084C002D05DA084A0849002006F056FACC
:100BC00038BD204601F074FB013D04F5875408341C
:100BD000EFE700BF00290020584A002075120008E6
:100BE000002202600273427342608260704700BF5D
:100BF000F0B587B020E041F2E80304FB03F3214A9B
:100C00009E18D3581F6902F06DF81F4A82184FF0E2
:100C10000003009341F1000302A93046B8470028C1
:100C2000C8BF45F001050134E4B21AE0174802F0EC
:100C300019FE174B00221A70144802F00FFE0446EA
:100C4000D0B102A8FFF7CCFF237B8DF8143003ABA3
:100C50006068A16803C3236843F000430293002443
:100C60002546002CC7D0002DE0D1094B1B78072B5F
:100C700004D80133064A137007B0F0BD034802F0F0
:100C8000F1FDF9E70029002040420F00EC49002067
:100C9000B1230020CA7EA14B1B7A9A4240F03D81CD
:100CA0002DE9F04700AF08460024032C0CD89B4BDD
:100CB0004FF48A7202FB043393F8DC20437E9A429D
:100CC00011D00134E4B2F0E7002373B9934B1B68F1
:100CD000FA3340F6B832934200D913468F4A136074
:100CE000BD46BDE8F0870123EFE74FF48A7104FBAE
:100CF00001F1E031894B19440A3100F02BFF002843
:100D0000EED1864B4FF48A7202FB0434012384F83F
:100D1000E83001F0E3FFD4F8E030C31A192B05D90D
:100D200040F6B832934202D9134600E019237B4AB9
:100D3000D2ED007AF8EE677A9FED797A27EE877A1E
:100D400007EE903AF8EE677ADFED766A67EEA67AFC
:100D500077EE277AFCEEE77AC2ED007A3CE01346A4
:100D60004FF48A7202FB0533002283F8E820C3F8AF
:100D7000E020B546694B5B689B0A01336A4A1381E0
:100D8000AEE7002042F8040B013B002BF9DA2246C3
:100D9000484600F067FB614B5B68002B4CD05F4B13
:100DA00093F8D20000F0A6FA8246002848D05B4BA8
:100DB000D3F8D430002B4FD0584BD3F8D430234441
:100DC00053454FD85FFA88F24946544B586800F0B3
:100DD0007FFB00284DD1B546504B93F8D9504FF4C6
:100DE0008A7202FB053393F8E830002BC2D06E46BE
:100DF0004A4A4FF48A7303FB0523D3F8E41053687F
:100E00009942ACD145484FF48A7205FB02F283182F
:100E1000B3F8EC40E31C4FEA930802F1E00101440F
:100E20000E3143469A000732D208A6EBC20295461D
:100E3000E94608F1FF33A8E7012000F04DFAAEE7DC
:100E40000024364B1C7200F07BFA204600F044FA76
:100E5000354B0B221A818CE7304B93F8D200FFF709
:100E60003FFDA9E72D4B93F8D2000130FFF738FD85
:100E7000A8E72A4B5A6822445A60D3F8D42004EBDE
:100E80000208C3F8D48093F8D20000F033FA80450A
:100E90000BD3224B93F8D220013283F8D220D3F81F
:100EA000D420A2EB0A02C3F8D420FF2C23D91B4C78
:100EB0004FF48A7303FB0543002283F8E820C3F84C
:100EC000E020D3F8E42002F58062C3F8E42094F82F
:100ED000D900FFF72FFDFFF78BFE94F8D9300133CF
:100EE0005A4203F0030302F0030258BF534284F84E
:100EF000D930B54670E70024084B1C7200F020FA88
:100F0000204600F0E9F900F031FF074A108108B1EE
:100F1000B546E5E6FFF7BCFAFAE77047B4230020D0
:100F20006666663FCDCCCC3DEC28002038B5054642
:100F30000C4602F0B1FB50B1E38A282B1ED016D824
:100F4000012B10D121462846FFF7F4FB02E0237E57
:100F5000022B00D038BDE38A012BFBD12146284665
:100F6000FFF7A4FBF6E7052BF4D1FFF705FB302BC9
:100F7000F0D121462846FFF78DFEEBE721462846B3
:100F8000FFF74EFCE6E700BF2DE9F0418EB00AA85E
:100F9000FFF726FE0024254624B1002DFAD10EB01D
:100FA000BDE8F08101238DF80C3000238DF80D3061
:100FB00041F2E80204FB02F21F4956188A58002049
:100FC0000021CDE9000197680DF10D0203A930461B
:100FD000B8479DF80C705FB3184A536983F4804397
:100FE000536106AD0023069307930893099341F2DA
:100FF000E80304FB03F3104AD358D3F814800DF12F
:101000000E0304AA0AA93046C04707AB0BAA92E810
:10101000030083E803009DF834308DF824300A9BE8
:101020000693DDE904232946054802F0EDFD3D461F
:101030000134E4B2B0E700BF002900200000024004
:10104000EC490020014B1870704700BFE8390020C0
:1010500030B585B04FF000531A68324B9A4203D135
:101060004FF00053587D88B904F00CFE044650B18F
:101070002D4A136C43F0007313642C4B9A6D2C4B68
:101080009A4227D00024204605B030BDFFF7DAFF92
:101090004FF000531A7D274B1A72002309E0190202
:1010A000244A4FF48A7000FB0322C2F8E410013393
:1010B000DBB2032BF3D94FF00054C92204F116011F
:1010C0001D4800F0CFF9E0220021204600F0F6F99B
:1010D0000124D8E7154B1B6E13B37F2B01D90024D5
:1010E000D1E701AB114D05F1580207CA83E80700AB
:1010F0000321184600F06EFD6B6D984201D000246C
:10110000C1E72B6D994201D00024BCE70023AB65F9
:1011100095F86000FFF796FFEA6D084B1A60B2E79A
:101120000024B0E79AAD44C5003802400066004094
:101130005041A0B0B4230020BD230020182300207C
:1011400010B582B000F012FE1C4B188102225A71B9
:1011500000240CB300230193194B0093194B4FF457
:1011600080521949194802F073FA194B197809BBD2
:1011700001F0B4FD04464FF4C870FFF727FA0444A9
:1011800004F51674134B1C6004F06EFD10B10B4B8C
:101190000F221A8102B010BD41F2E80304FB03F3F1
:1011A0000D48C25852680D490968184490470134E7
:1011B000E4B2CEE7054802F067FAD9E7EC28002050
:1011C000050600082D0F0008EC390020EC4900202E
:1011D000E8390020E82800200029002018230020FA
:1011E00008B50CE0114B186001F07CFDFFF7C2FC64
:1011F00013E0C82004F006F80D4B1B7AA3B1FFF7EB
:10120000F7FCFFF7C1FEFFF737FC01F067FD074B66
:101210001B68C31AB3F57A7FE4D2054B1B7A002B07
:10122000E7D0FFF7E3FBE4E708BD00BFAC230020F5
:10123000B423002038B5044603793BB905682DB1C5
:10124000284600F0A1FD284600F0FAFE204638BDF1
:1012500010B50446064B036000F583500C30FFF7D1
:10126000E9FF04F58250183000F08EFD204610BDD5
:101270007872000810B5064C064B9C4206D0A4F5C7
:101280008754083C2046FFF7E3FFF5E710BD00BF99
:10129000E83900200029002008B5FFF787FC08BDC9
:1012A00010B504F05FFB0A4B1880002406E004F040
:1012B0002FFB0444074A136801331360B4F5803FE1
:1012C00005D2034B1B88034A10688342EFD810BD38
:1012D000484A00204C4A002008B504F09DFB08BD98
:1012E00008B5920000F1006000F5803004F090FB3A
:1012F00008BD00BF08B5064B1B88064A12689B1A3A
:10130000834201D8002008BD104404F001FBFAE735
:10131000484A00204C4A002008B5034B1B6818447B
:1013200004F022FB08BD00BF4C4A002008B5034B67
:101330001B68184404F030FB08BD00BF4C4A002075
:1013400008B5074B93F824300BB9012008BD0449B8
:10135000002381F824300822086AFFF7C1FFF5E76F
:10136000204A0020022800D07047024B4FF08042F4
:101370009A61F9E700000240022800D07047024B52
:101380004FF480429A61F9E70000024038B5044604
:101390000AE02546412C28BF41254FF47A7005FB11
:1013A00000F003F02FFF641B002CF2D138BD00BF0A
:1013B00038B5144B1B7803B138BD124B01221A709B
:1013C000114D284603F04CF9104C2146284603F0F5
:1013D00075F92468626DD2F8043843F00203C2F84C
:1013E00004384FF47A70FFF7D1FF0949204603F023
:1013F000FBFA626DD2F8043823F00203C2F8043815
:10140000DAE700BF504A0020604F002060730008F8
:10141000687300080FB410B5B4B00F4B1B78ABB1B4
:1014200037AB3393369AC82101A801F019FC024664
:10143000C82800D9C82209480368DC69084B01A9FB
:10144000A04734B0BDE8104004B07047024B012201
:101450001A70FFF7ADFFE3E71C4A0020604F002041
:10146000A0860100002304E011F803C000F803C0C7
:1014700001339342F8D3704702E0013001316246F4
:1014800090F9003043B191F900C0634504D102F1F5
:10149000FF3C002AF1D162461AB191F90020981A56
:1014A00070470020704700BF0346002000E0013075
:1014B00013F9012B002AFAD1704700BF034602E05E
:1014C00003F8011B624602F1FF3C002AF8D1704785
:1014D0002DE9F84380460F461546224B93F82430F9
:1014E00073B3204A126A02EB8303834228D0FFF7CA
:1014F00027FF034620BB31E01A48C0F82080202295
:10150000FF21FFF7DBFF174E96F82400C0F1080417
:10151000AC4228BF2C46E4B24FEA84094A46394619
:1015200006EB8000FFF79EFFC8444F442D1BEDB231
:1015300096F824302344DBB286F82430082B06D0FA
:101540005DB1084B93F82430002BDCD1D4E7FFF7D2
:10155000F7FE03460028F3D100E001231846BDE85A
:10156000F88300BF204A002070B506460C46154699
:1015700013462022096802F0C3FA21682031216055
:101580002B1D0222304602F0BBFA21680231216095
:101590006B1D0322304602F0B3FA2168033121604B
:1015A000AB1D0322304602F0ABFA21680331216003
:1015B00005F108031022304602F0A2FA2368103326
:1015C000236070BD70B506460C46154613460822CA
:1015D000096802F095FA2168083121606B1C082225
:1015E000304602F08DFA216808312160AB1C0822D8
:1015F000304602F085FA2168083121602B1D202237
:10160000304602F07DFA21682031216005F108039F
:101610004022304602F074FA23684033236070BDE4
:101620002DE9F04182B007460C461646984613460F
:101630000822096802F064FA216808312160731CED
:101640000822384602F05CFA23680833236000253C
:101650000AE07319023308222168384602F050FA72
:1016600021680831216001350F2DF2D9B37C8DF846
:101670000730B8F1000F01D0002517E00DF1070386
:1016800008222168384602F03BFA236808332360B9
:10169000F2E705F11003334403330822216838468A
:1016A00002F02EFA23680833236001359DF80730D5
:1016B000AB42EED802B0BDE8F08100BFF0B583B018
:1016C00007460D4616461C460023FFF74DFF002334
:1016D00006F1100229463846FFF774FF002306F191
:1016E000200229463846FFF79BFF96F83231502BEF
:1016F00028BF50238DF807300CB1002417E00DF1FE
:10170000070307222968384602F0FAF92B680733E5
:101710002B60F2E704F598733344033308222968F9
:10172000384602F0EDF92B6808332B6001349DF840
:101730000730A342EED803B0F0BD00BF70B582B051
:1017400005460C4616460021019140F279122046CA
:10175000FFF7B4FE33462A4601A92046FFF7AEFF45
:1017600001980730C00802B070BD00BF70B50646D2
:101770000C46154613462022096802F0C1F921687B
:10178000203121602B1D0222304602F0B9F9216878
:10179000023121606B1D0322304602F0B1F921684D
:1017A00003312160AB1D0322304602F0A9F9216804
:1017B0000331216005F108031022304602F0A0F940
:1017C00023681033236070BD00B583B0844608469B
:1017D0001346002101910160C0F80310624601A97F
:1017E000FFF7C4FF01980730C00803B05DF804FBA1
:1017F000F0B583B007460C4616461D4600920023FE
:101800000722096802F07EF8216807312160731C05
:10181000009300230122384602F074F82168013158
:1018200021604DB1BB8AC1EBC301C908B170B37867
:10183000102B1FD8002517E0B31C009300230522AE
:10184000384602F05FF8236805332360EFE7731929
:1018500003330093002308222168384602F052F82F
:101860002368083323600135B378AB42EFD80020FA
:1018700003B0F0BD0120FBE710B582B004460A4674
:10188000037F13B1818A122910D80021019101A987
:101890002046FFF7ADFF034640B9019B0733DB0845
:1018A000227F32B1A28AD31A18BF0123184602B090
:1018B00010BDA28A9A422CBF00230123F6E700BF85
:1018C000F0B583B007460D46164653B1828A0B68C1
:1018D000C3EBC203DB0833703378C82B1DD8002458
:1018E00015E000920822096802F00CF82B68083312
:1018F0002B60F1E733190133009300230822296894
:10190000384601F0FFFF2B6808332B600134337831
:10191000A342EFD8002003B0F0BD0120FBE700BFD9
:10192000F0B583B006460C4615461F4600920023CC
:101930000822096801F0E6FF2368083323603B466C
:101940006A1C21463046FFF7BBFF03B0F0BD00BF65
:1019500010B582B004460A46037F13B1818ACA29B2
:1019600010D80021019101A92046FFF7D9FF0346B5
:1019700040B9019B0733DB08227F32B1A28AD31A18
:1019800018BF0123184602B010BDA28A9A422CBF8C
:1019900000230123F6E700BFF0B583B007460D46EC
:1019A00016461C4613460822096802F0A9F8296861
:1019B00008312960737896F90120002A04DB8DF83C
:1019C00007301CB1002416E07F23F8E70DF1070370
:1019D0000722384602F094F82B6807332B60F1E7B2
:1019E0003319023308222968384602F089F82B6837
:1019F00008332B6001349DF80710A142F0D803B0E2
:101A0000F0BD00BF70B582B005460C4616460021F9
:101A1000019181222046FFF751FD33462A4601A954
:101A20002046FFF7B9FF01980730C00802B070BD2B
:101A3000F0B583B007460D4616461278C82A28BF6F
:101A4000C8228DF807200BB1002414E00DF1070324
:101A50000822096802F054F82B6808332B60F3E77A
:101A60003319013308222968384602F049F82B68F7
:101A700008332B6001349DF80730A342F0D803B03F
:101A8000F0BD00BFF8B506460C4615461F46134686
:101A90002822096802F034F82368283323603B4683
:101AA00005F1080221463046FFF7C2FFF8BD00BF2E
:101AB00070B582B005460C46164600210191CE2233
:101AC0002046FFF7FBFC33462A4601A92046FFF7D4
:101AD000D9FF01980730C00802B070BDF0B583B0DF
:101AE00007460D4616461C4600920123102209683F
:101AF00001F008FF29681031296054B1BB8AC1EB9D
:101B0000C301C90871807388B3F5807F1FD8002492
:101B100017E0B31C009300230922384601F0F2FEBF
:101B20002B6809332B60EEE733190433009300234D
:101B300008222968384601F0E5FE2B6808332B603F
:101B400001347388A342EFD8002003B0F0BD012018
:101B5000FBE700BF10B582B004460A46037F1BB105
:101B6000818AB1F5827F10D80021019101A9204618
:101B7000FFF7B4FF034640B9019B0733DB08227F20
:101B800032B1A28AD31A18BF0123184602B010BD81
:101B9000A28A9A422CBF00230123F6E700B596469D
:101BA0000AE040F3000C0A4A0CEA020282EA500002
:101BB0000133DBB2072BF4D973460EF1FF3E23B19C
:101BC00011F8013B58400023F4E75DF804FB00BF27
:101BD0002083B8ED30B583B004460A464FF0FF339A
:101BE00019461DE013EB030E41EB010C124B8EEA7C
:101BF000030312498CEA01010132D2B2072A04D848
:101C00000029EFDBDB184941F6E70130C0B20328B9
:101C100005D801AA125C81EA02610022EEE72A4699
:101C2000551EADB222B154F8042B01920020EEE70C
:101C3000D843C94303B030BD9336EAA9EBE1F04283
:101C4000F0B583B01F4B6A4693E80300CDE900016D
:101C500008231D491D4805F02FFA30B304460369D7
:101C6000B3F5702F23D8418B40F2F632914220D148
:101C700000F11807164A024402F110018B421BD3EF
:101C80009B1AA3F1100511490020FFF787FF0646B4
:101C90002A4639460020FFF781FFA368B3420DD1E1
:101CA000E36883420CD1002004E00A2002E00B200C
:101CB00000E00C2003B0F0BD1020FBE70D20F9E799
:101CC0000D20F7E7D8710008DCFF0E0000000108C6
:101CD0000800FFF7F0B583B0204B6A4693E8030095
:101CE000CDE9000108231E491E4805F0E5F938B387
:101CF00004460369B3F5702F24D8B0F8661040F29B
:101D0000F632914220D100F16407174A024402F1F1
:101D10005C018B421BD39B1AA3F15C051149002087
:101D2000FFF73CFF06462A4639460020FFF736FFFC
:101D3000A368B3420DD1E36883420CD1002004E0D4
:101D40000A2002E00B2000E00C2003B0F0BD1020C0
:101D5000FBE70D20F9E70D20F7E700BFE47100086D
:101D600090FF0E00000001080800FFF710B5FFF714
:101D700067FF044608B9204610BDFFF7ABFF0028F7
:101D8000F9D10446F7E700BF10B50446037C0BB158
:101D9000204610BD006805F077F9F9E7BFF35B8FC7
:101DA000C368BFF35B8FBFF35B8F8268BFF35B8F4A
:101DB0009A4208D94268BFF35B8F8168BFF35B8F9B
:101DC000521AD0187047BFF35B8F8268BFF35B8FE6
:101DD000981A70470023BFF35B8FC360BFF35B8F1C
:101DE000BFF35B8F8360BFF35B8F70470346406830
:101DF00000B97047BFF35B8F9A68BFF35B8FBFF387
:101E00005B8FD968BFF35B8F914209D35868BFF3EA
:101E10005B8FDB68BFF35B8FD21A013A1044E8E7AF
:101E20000020F4E738B505460C46FFF7B7FFA0429F
:101E300001D2002038BDBFF35B8FAB68BFF35B8F6F
:101E40001C446B68B4FBF3F203FB1244BFF35B8FDB
:101E5000AC60BFF35B8F0120ECE700BF70B50446B8
:101E60000E461546FFF7C2FFA84200D3284608B920
:101E7000002070BD2368BFF35B8FE268BFF35B8F08
:101E8000134433606268BFF35B8FE368BFF35B8F1B
:101E9000D11A884207D971602168B1609B1A034446
:101EA000F3600220E5E770600120E2E738B50546FF
:101EB0000C46FFF79BFFA04201D2002038BDBFF3C4
:101EC0005B8FEB68BFF35B8F1C446B68B4FBF3F272
:101ED00003FB1244BFF35B8FEC60BFF35B8F012009
:101EE000ECE700BF2DE9F04385B08146884669469E
:101EF000FFF7B4FF0746002425460EE004AB03EBD2
:101F0000C40656F80C2C08EB050156F8100CFFF728
:101F1000A9FA56F80C3C1D440134A742EEDC2946D0
:101F20004846FFF7C3FF284605B0BDE8F08300BF71
:101F3000BFF35B8FC368BFF35B8FBFF35B8F8268B8
:101F4000BFF35B8F9A4210D94368BFF35B8F8268FF
:101F5000BFF35B8F9B1A0B6073B10368BFF35B8F9A
:101F60008268BFF35B8F98187047BFF35B8F8268FE
:101F7000BFF35B8F9B1AEEE700207047F0B583B08C
:101F800007460E461546FFF709FF04460190A84292
:101F900000D32C4614B9002003B0F0BD01A9384687
:101FA000FFF7C6FF019B6BB1A34200D901943060DB
:101FB000019B7360A3420DD23A68B260E41AF460E8
:101FC0000220E9E73B68336074600023B360F3608C
:101FD0000120E1E70120DFE72DE9F04184B08846E8
:101FE0006946FFF7CBFF0746002425460EE004AB09
:101FF00003EBC40656F80C2C56F8101C08EB050031
:10200000FFF730FA56F80C3C1D440134A742EEDCD1
:10201000284604B0BDE8F08138B50546FFF7DCFF7F
:10202000044601462846FFF7FDFE204638BD00BFA6
:1020300008B500B90120012105F01EF808BD00BF58
:1020400018B108B505F020F808BD704708B5036859
:102050005B68984708BD00BF00207047704700BF0D
:102060000020704700F5805090F8D800C0F3400081
:10207000704700BF00F5805090F9E000704700BF46
:1020800000F58050C0F8DC1001207047F0B583B037
:10209000BDF820500C6814F0005F40F089800C7B84
:1020A000082C00F28880302484F31188046AA66822
:1020B00016F0806F0ED1A66816F0006F6BD1A6687F
:1020C00016F0805F02D04FF0020E05E0002080F392
:1020D00011885EE04FF0000EF4460E68002E5DDBC6
:1020E00076050EF1180E4FEA0E1E44F80E600E68CB
:1020F00016F0804F06D00CF118063601A75947F0AC
:102100000207A7510F7B0CF118064FEA061E04EBDD
:10211000061677608E6804EB0C17C7F88C614E6862
:10212000C7F8886154F80E6046F0010644F80E6066
:1021300041F2780E0EEB4C14044400EB4C1CE644C8
:10214000CEF80020CEF80430D1F800E04F688E6859
:10215000C4F808E0E76026618E89A6820CF5845CED
:102160009CF8144065F300048CF81440C5F3400655
:10217000E4B266F341048CF81440E4B224F008049D
:102180008CF81440002484F31188009500F01CFEA4
:10219000012003B0F0BD4FF0010E9DE7F60046F0C0
:1021A00004060EF1180E4FEA0E1E44F80E609EE76C
:1021B0004FF0FF30EDE74FF0FF30EAE708B530238E
:1021C00083F3118800F58050C06EFFF703FE0023F3
:1021D00083F3118808BD00BF2DE9F04106460F4684
:1021E00003462F4A43F8042B002444605C609C6043
:1021F000DC601C615C612B4B40F8243BFEF7F0FC7B
:1022000000220023C6E90E23A6F8404006F1440050
:10221000FEF7E6FC06F1580844467F250BE0002255
:102220000023C4E900230023238104F10C00FEF7FE
:10223000D7FC013D2034002DF1DA06F58053C3F8B8
:1022400058804FF48052DA6500221A665A660121DE
:1022500083F8681006F582521832DA6683F8701037
:1022600006F58354183402250AE020460022002394
:10227000E0E80223FEF7B4FC0023A361013D203413
:10228000002DF2DA06F5805383F8E07027B9064B8B
:1022900033623046BDE8F081044800F019FD00BF0C
:1022A000CC7200087872000800640040F0710008E9
:1022B00010B50446034B19784A1C1A70FFF78CFFBF
:1022C000204610BD514A0020002978D070B582B058
:1022D0000C46424B994211D90A234149B1FBF4FC07
:1022E000013BDBB29E46581CBCFBF0F100FB11C168
:1022F00031B1022B65D9013BDBB2F3E71123ECE7E7
:10230000BCFBF0FC0CF1FF31B1F5806F5CD2C3EB8C
:10231000C30E1EF103004DD4C0F3C7008DF80000BA
:102320001D1AEDB28DF80150461C4FF47A7100FB76
:102330000111701991FBF0F189B2ADF80210B1F5FD
:10234000617F18D9BEF1010E36D4CEF3C70E8DF8D9
:1023500004E0A3EB0E03DBB28DF805300EF10100B3
:102360004FF47A710EFB0111034491FBF3F1ADF8C8
:102370000610019B00939DF800104B1C9DF8015026
:102380002B440CFB03F31648B0FBF3F3A3421DD11F
:102390000139C9B20F291BD8E5B1082D1CD80CF1A1
:1023A000FF3CA2F800C000239370D170013D15716D
:1023B000012007E00730AFE70EF1070EC5E7002068
:1023C0007047002002B070BD0020FBE70020F9E755
:1023D0000020F7E70020F5E70020F3E73F420F0079
:1023E00080DE800270B506460D460024B4F57A7F83
:1023F0000BD2336A5B6803F00103AB4207D04FF4A2
:102400007A7002F0FFFE0134F0E7002000E00120C6
:1024100070BD00BF032963D82DE9F04188B00446A0
:102420000D46164600F5805393F8D830C3F380016B
:1024300013F0040F00D1114604F5805393F8D8200F
:1024400061F3820283F8D82041F2780303EB45134D
:10245000E71804EB451303F5845310331B7913F08D
:10246000010F09D0CEB104EB451303F584531033AB
:102470001B7913F0080F13D07EB104EB451303F55D
:10248000845310331B7913F0080F06D104EB451465
:1024900004F5845443F00803237508B0BDE8F081C7
:1024A00000220023CDE900230023ADF808300DF110
:1024B0000C084046FEF794FB4346B868F9683A6951
:1024C00007C3BA8A1A80DDE90E23CDE90023012370
:1024D000ADF8083023689B6B694620469847CBE7E8
:1024E000704700BF026A936913F0700F25D0002374
:1024F000936100E00133022B1FDC00EB431202F575
:1025000084521032127912F0040FF3D000EB431210
:1025100002F584521032127912F0020FEAD0026AE8
:10252000064951F82310916000EB431202F58452E2
:10253000117D41F004011175DCE77047B4720008A9
:1025400070B582B0044616461D46036A9A6812F0BA
:10255000010F16D1236A9A6812F4807F1CD1236A76
:102560009A6812F4803F24D104F58053D3F8DC003C
:1025700010B103681B6998472046FFF7B3FF02B00C
:1025800070BD9A680121996000960195C2F34002DE
:102590000021FFF73FFFDDE79A684FF480719960F3
:1025A00000960195C2F3402201212046FFF732FF39
:1025B000D5E79A684FF48031996000960195C2F38F
:1025C000404202212046FFF725FFCDE710B50B4B17
:1025D0001C5604B110BD00F085FB02460B4652EAC2
:1025E000030102D0013A43F1FF33054951F82400B9
:1025F0000028EFD0FFF7A4FFECE700BFC07200088F
:10260000544A002038B50446084600297CD1216A86
:1026100001F10C0CDCF8001011F0030F73D0DCF8A2
:102620000010216A00F11B052D014D5915F0040F12
:102630006ED100F11B052D014D596D0D656200F144
:102640001B052D014D5915F0020F03D0656A45F0A9
:102650008045656200F11B0501EB05156D6805F00D
:102660000F0E84F830E001EB0011D1F8B80184F8C6
:102670002800D1F8B801000A84F82900D1F8B8017F
:10268000000C84F82A00D1F8B801000E84F82B0061
:10269000D1F8BC0184F82C00D1F8BC01000A84F800
:1026A0002D00D1F8BC01000C84F82E00D1F8BC112B
:1026B000090E84F82F103821CCF80010656AA06A42
:1026C000E16A6564A064E164218EA4F85010A263FD
:1026D000E3630023A4F8403023689B6B04F13801C6
:1026E0002046984704F5805393F8D82042F004021E
:1026F00083F8D820D3F8DC0010B103681B69984731
:102700002046FFF7EFFE38BD216A01F1100C81E78A
:1027100000F11B052D014D59ED08656245F000459E
:1027200065628CE738B50C4B1D5605B138BD0C46BB
:1027300000F0D8FA02460B4652EA030102D0013AF1
:1027400043F1FF33054951F825000028EED021461A
:10275000FFF758FFEAE700BFC0720008544A0020A4
:10276000302181F311880021022937DC30B502E0E5
:10277000013102292EDC00EB411C0CF5845C0CF1CC
:10278000100C9CF804C01CF0040FF1D100EB411CAC
:102790000CF5845C9CF8144014F0100FE8D000EBAA
:1027A000411C41F278040CEB040E5CF80450DEF896
:1027B000044095429C41DBD2046A0A4D55F82150F1
:1027C000A5600CF5845C9CF8144044F004048CF87B
:1027D0001440CDE7002383F3118830BD002383F339
:1027E00011887047B472000808B5302383F311884C
:1027F000FFF778FE002383F3118808BD036A9B6806
:1028000013F0E05F01D0012070470020704700BF47
:1028100008B5302383F3118800F58050C06EFFF7B0
:10282000BDFA002383F311881F288CBF00200120EC
:1028300008BD00BFF8B507460E4614461D460023E6
:102840001370FFF7E5FF80F0010333701DB13846C8
:10285000FFF7D4FF2070F8BDF8B504460D461646C4
:102860001F4600F03FFA02460B46297809B9307836
:1028700060B12046FFF774FF2046FFF7B5FF3B46E7
:10288000324629462046FFF7D5FF0120F8BD00BF9C
:10289000302383F311881B4B1A6C42F000721A64C8
:1028A0001A6A42F000721A621A6A22F000721A6200
:1028B000002383F3118800F5805393F8D83013F088
:1028C000010F1ED110B5044601B910BD302383F3AA
:1028D00011880321132001F01FFE0321142001F0B1
:1028E0001BFE0321152001F017FE04F5805494F817
:1028F000D83043F0010384F8D830002383F31188E3
:10290000E3E770470038024000F5805393F8E03069
:10291000012B00F222812DE9F0418AB005460F46D5
:102920008F4A52F82320002A35D0EF618C4B1B6868
:10293000002B34D005F5805393F8E030012B06D1FD
:10294000874B186803689B6A9847002836D0012196
:102950002846FFF79DFF302383F311882A6A136806
:1029600023F0020313602A6A136843F00103136023
:102970002A6A0023536183F3118801212846FFF757
:1029800031FD034640BB2A6A4FF4004111601846EE
:102990000AB0BDE8F081724A42F82300C5E741F26F
:1029A000E800FFF745FB044610B10021FFF714FCD7
:1029B0006B4B1C60002CBDD10023E8E7684C002164
:1029C0002068FFF765FF206803685B683946984711
:1029D00003460028BBD1DAE705F58053D86EFFF730
:1029E000F9F94FF0000827E0202200216846FEF7A1
:1029F00065FD02A8FEF7F4F80023069341F278067D
:102A000006EB481605EB060EEC46BCE80F00A85195
:102A1000CEF80410CEF80820CEF80C30BCE8070041
:102A2000CEF81000CEF81410CEF818209CF8003024
:102A30008EF81C3008F10108B8F1020FD4D905F561
:102A4000805292F8D83023F0040382F8D830002363
:102A5000ADF820308DF822308DF823308DF82430F9
:102A600008AA39462846FFF72FFC034620B92A6AF0
:102A70004FF4004111608AE72B6A65221A609DF8C5
:102A800022301B0603F040739DF82320120402F449
:102A9000702213439DF82420120502F4E002134330
:102AA000BDF82020C2F30902296A1343CB612B6AC7
:102AB00013225A612A6A136823F00103136000216C
:102AC0002846FFF78FFC0346002841D005F58052C9
:102AD00092F8E0209ABB296AD1F8002242F0010264
:102AE000C1F80022296AD1F8002222F47C5222F097
:102AF0000E02C1F80022296AD1F8002242F4606275
:102B0000C1F80022296A0022C1F81422296AC1F8FA
:102B10000422296A41F6FF70C1F80C02296AC1F843
:102B20004022296AC1F844222A6A0121C2F81C12F3
:102B3000296AD1F8002222F00102C1F8002205F52D
:102B4000805595F8D82042F0020285F8D8201EE77B
:102B50002A6A4FF40041116019E7002318467047B4
:102B6000544A002008B50020FFF730FD01F0BCFA00
:102B700008BD00BF08B500210846FFF7D3FD01F0EE
:102B8000B3FA08BD08B501210020FFF7CBFD01F025
:102B9000ABFA08BD38B504460D460068FFF726F9C4
:102BA0001F2801D8002038BD202229462068FFF7C1
:102BB00099F9202814BF00200120F4E708B500F59A
:102BC00083500C30FFF7E6FF08BD00BF38B5044660
:102BD0000D460068FFF7E2F81F2801D8002038BD35
:102BE000202229462068FFF717FA202814BF00206A
:102BF0000120F4E7F0B589B005460C4616461F469D
:102C0000302383F3118800220023CDE90023002321
:102C1000ADF8083003A8FDF7E3FF694605F58350DA
:102C20000C30FFF7D3FF18B980F3118809B0F0BD5D
:102C300003AB07CB20606160A2601B88A381DDE944
:102C40000023C6E90023BDF808303B80002383F34E
:102C500011883B4632462146284600F04FF8E5E70A
:102C600008B501F0DDFB08BD00B59BB0EFF30981AD
:102C700068226846FEF7F6FBEFF30583014B9B6B7A
:102C8000FEE700BF00ED00E000B59BB0EFF3098167
:102C900068226846FEF7E6FBEFF30583014B9B6B6A
:102CA000FEE700BF00ED00E000B59BB0EFF3098147
:102CB00068226846FEF7D6FBEFF30583014B5B6B9A
:102CC000FEE700BF00ED00E0FEE700BFFEE700BF4B
:102CD0000FB408B5029802F02FFAFEE708B502F02B
:102CE00009FF08BD08B502F0E1FE08BD00207047ED
:102CF0000120704700207047704700BF2DE9F04366
:102D000083B01E461B8813F0040F1ED1054689466A
:102D1000041D00F11C080CE02B685B6B28469847EB
:102D2000338843F004034A46C1B220686768B84755
:102D30000834444509D00020009001902368002BFE
:102D4000EAD16368002BE7D1F2E7012003B0BDE8C8
:102D5000F08300BF84B0CDE90012002201E001320F
:102D6000D2B2022A18D800210291039100EBC201CD
:102D700049680029F3D100EBC20189680029EED12E
:102D800000EBC20000F1040CDDE900018CE8030057
:102D900001321A70012000E0002004B0704700BF2B
:102DA0000139C9B202290DD882B0002300930193E2
:102DB00000EBC100031D02AA12E9030083E803002F
:102DC00002B07047704700BF2DE9F0478AB0054652
:102DD0008A46BDF84870041D00F11C084FF0000938
:102DE00006E0636863B902E0B9F1000F16D0083459
:102DF000444539D00023089309932368002BF0D071
:102E000017F0040FF0D12B685B6B284698473B46C0
:102E10005246C1B220686668B047E8E70022002346
:102E2000CDE900230023ADF808300DF10C09484628
:102E3000FDF7D6FE4B46DAF80000DAF80410DAF8AF
:102E4000082007C3BAF80C201A80FFF74BFFCDE922
:102E500000010423ADF808302B689B6B69462846B7
:102E600098474FF00109C2E701200AB0BDE8F0879A
:102E7000084670470846704708467047084670473E
:102E8000401A83B2002800DB7047203318B2FBE7FA
:102E900003780133DBB203701F2B01D900230370C9
:102EA000704700BF0E2809D8DFE800F0151515158A
:102EB00015151515150A0C0E101214004020704738
:102EC0000C2070471020704714207047182070475E
:102ED0002020704730207047082818D90C280BD9BB
:102EE00010280BD914280BD918280BD920280BD956
:102EF00030280BD90F207047092070470A207047EF
:102F00000B2070470C2070470D2070470E20704733
:102F1000034621F0604C20F06042C00F91EA030F9D
:102F20000AD4C1F38071C3F38070944514D09445E2
:102F30002CBF002001207047002908DB002B09DB93
:102F40009445F8D094452CBF0020012070474FEAEB
:102F50009C4CF3E7920CF3E78142ECD1E7E700BF2A
:102F60002DE9F04107460D46D0F82480B8F1000F56
:102F70000CD046464446A4B169686068FFF7C8FFB4
:102F800030B9236826465BB11C46F4E7796208E055
:102F9000A04502D035602C6003E02C607D6200E02B
:102FA0002560BDE8F08100BFC37DC3F38402013218
:102FB00062F38603C375C38A6FF30903C382C37DBB
:102FC00023F08003C375704738B504460D46006A88
:102FD00004E0016804F10C00FFF74EFF10B1036933
:102FE000AB42F6D138BD00BF2DE9F043079ECD08B6
:102FF00003EBD60401F0070E06F0070372442AE043
:103000000EF0070803F00706C446B04538BFB446C3
:10301000CCF1080CA2EB0E018C4528BF8C464FF476
:103020007F4121FA0CF1C9B241FA06F74FEADE01FD
:1030300000EB050919F8011001FA08F1F140C9B2D5
:103040004FEAD30814F80860714039404E4004F844
:103050000860E64463449645D2D1BDE8F08300BFE2
:103060002DE9F04F87B00393838AB1EBC30F80F053
:10307000878082460E461546DA0069188A4203D2D6
:10308000D3B2F2B29B1ADDB2DAF80C3043B3272E7A
:1030900036D8C6F128039D4230D35FFA86FBCBF1C8
:1030A000280B5FFA8BFB00230093039B5A463146A3
:1030B000DAF80800FFF798FF5E44A5EB0B04E4B2D2
:1030C000BAF8147007F10057053FFF00DAF80C90CA
:1030D00028214B46B946CDF810A005951F4626E09D
:1030E000DAF81030002BD2D100230093039B2A463C
:1030F0003146DAF80800FFF777FF35E0AB46D2E754
:103100002C464FF0000BDBE72546CDF800B0039BC3
:103110002A46711A381DFFF767FF2E44AB445FFA49
:103120008BFB651BECB2A9EB0A093F684146A7B1CE
:103130009CB1CA46B9F1E00F28BF4FF0E00A0AEB94
:1031400001084645EFD2A8EB06039C42DCD35FFAA8
:1031500088F5F3B2ED1AEDB2D7E7DDF810A0059DC2
:10316000DAF8100000B11CB928B207B0BDE8F08F42
:10317000CDF800B0039B2246711AFFF735FFF3E745
:103180000020F2E7002070470139002307E0C25C0D
:1031900010F801C000F803C04254013301398B42DA
:1031A000F5D3704780EA0120002307E0400080B299
:1031B00080F4815080F001000133DBB2072B05D889
:1031C00010F4004FF2D1400080B2F5E7704700BF25
:1031D00070B516461D46002411E0C4F12003A4F189
:1031E000200C26FA04F105FA03F3194325FA0CFC26
:1031F00041EA0C01C9B2FFF7D5FF0834A4B23F2C55
:10320000EBD970BD38B50C4604E014F8011BFFF78C
:10321000C9FF2A46551E002AF7D138BD38B5058C9E
:10322000072D0BD90446D0E902234FF6FF70FFF7B4
:10323000CFFF2A46E169FFF7E5FF38BD4FF6FF7083
:10324000FBE700BF10B4016100F1040C002305E0AE
:1032500001EB4314CCF80040A44601339A42F7D85E
:103260000023CCF8003002814381838103605DF844
:10327000044B70470346406848B102685A605A8957
:10328000013292B25A8199898A4200D99A81704753
:1032900008B5FFF7EFFF08B10023036008BD00BFCA
:1032A0002DE9F84F8246894617461D46CB8AC3F35F
:1032B0000903052B32D018460024042B0AD8A54256
:1032C00008D9395D09EB0302D17601339BB2013491
:1032D000A4B2F2E7A54218D9B9F816B0CBF3090B9E
:1032E000ABF1050293083D49A1FB0313C3EBC303F4
:1032F000A2EB83021FFA82F8D9F8041081B150467C
:10330000FFF7B6FD064601231CE02844B9F8163045
:1033100060F30903A9F81630012054E00024DBE72C
:103320005046FFF7B5FF064601465046FFF7A2FD9F
:10333000C9F80400002E48D04FF000082CE00133FB
:103340009BB216463268002AF9D105EB0B02053A0A
:1033500092082249A1FB021292B2013292B2934228
:103360001AD2B8F1000F17D15046FFF791FF306025
:1033700070B3064610E03A5D06EB0C031A710CF1CF
:10338000010C1FFA8CFC0134A4B2BCF11B0F01D854
:10339000A542F0D8A54203D8A5420AD9C446F4E70D
:1033A0005046FFF775FF3060A8B106464FF00008A1
:1033B000F2E7B9F81630C3F30902154465F30903BF
:1033C000A9F816300120BDE8F88F6FF00200FAE787
:1033D0006FF00200F7E76FF00200F4E7254992244E
:1033E00043680B6041604389013B4381704700BFE4
:1033F000F8B506460D460EE006F10C042046FFF730
:1034000037FD014607682046FFF7EAFF39462046A8
:10341000FFF730FD686069680029EDD1EB8A6FF332
:103420000903EB8200200021F8BD00BF08B5FFF7BB
:1034300021FF034628B10022026042608260C26020
:103440000261184608BD00BF2DE9F04F83B001921C
:103450001D465B69002B00F0998081468B462B8CC2
:103460001BB1EA69002A00F09480072B18D90233B7
:103470009BB206334D4A82FB03121344C3F38F03FE
:10348000B9F81420B9F81610521A92B2934200F209
:1034900086804FF0800A4FF000084446474654E0CB
:1034A00009F10C00FFF7C2FF0446002874D02A8CF3
:1034B000E9690830FDF7D6FF288C013080B2FFF7AC
:1034C0000BFDFFF7EFFC431E9BB22B8401332374EB
:1034D0006B691B7803F01F032A8C43F0C00322445E
:1034E00013724BF00043636021464846FFF738FDF6
:1034F0000127384603B0BDE8F08F002035E02B8C63
:10350000A34240D0013080B2FFF7E6FCFFF7CAFCCF
:10351000431E9BB24FEA4812D2B242EA0A026969DC
:10352000097801F01F010A43F1180A724BF00042BA
:1035300072600133337431464846FFF711FD01379D
:103540003FB288F001084FF0000A2B8CA342D0D084
:1035500009F10C00FFF76AFF064618B3002CCCD126
:10356000019B03721B0A437202200628C7D82B8CCA
:10357000A342C4D9EB691A5D33181A72013080B2C4
:103580000134A4B2F1E74FF0400ABBE76FF0010746
:10359000AFE76FF00107ACE76FF00207A9E76FF044
:1035A0000207A6E76FF00207A3E700BF9324499242
:1035B00030B589B004460D46202200216846FDF74B
:1035C0007DFF04952046FFF755FE8646A0B1EC46E8
:1035D000BCE80F00CEF80000CEF80410CEF80820AA
:1035E000CEF80C30BCE80F00CEF81000CEF8141066
:1035F000CEF81820CEF81C30704609B030BD00BFA0
:1036000070B5044600F10C063046FFF7D1FF0546C1
:1036100028B1216A3046FFF731FC28602562284630
:1036200070BD00BF38B504460D46036A1BB1FFF7F5
:10363000CBFC38B138BD0C30FFF7BAFF0028F9D009
:103640002062F7E729462046FFF7DAFFF2E700BFDE
:10365000F8B504460E4615461F4630220021FDF7F8
:103660002DFFA760069B6360079BA3626A09B5F5FF
:10367000001F01D34FF6FF7292B2314604F10C00E5
:10368000FFF7E0FDF8BD00BF037823B919B111F0D1
:10369000800F00D101707047007870472DE9F84322
:1036A00005460C46D1F81C90B9F1000F22D094F8D1
:1036B0001880B8F11F0F3AD82846FFF7EDFF0646ED
:1036C000F0B9228C072A35D8278A032F35D84946E6
:1036D0004FF6FF70FFF796FD47F6FE7303405B025F
:1036E00043EA08633F0207F440773B431E434FF62B
:1036F000FF720EE00B8C002BD9D06FF001050FE0AC
:10370000238A1B0243EA08631E432046FFF786FD17
:103710000246234631462846FFF796FE051E02DC88
:103720002846BDE8F8836069FFF7B2FBF8E76FF061
:103730000105F5E76FF00305F2E76FF00105EFE72C
:10374000F0B58BB0044616461D4628220021684677
:10375000FDF7B4FE02960395BDF84030ADF8103089
:10376000119B05939DF848308DF81830139B0793F3
:10377000BDF85030ADF8203069462046FFF78EFF87
:103780000BB0F0BD2DE9F04106460F461546D36952
:103790002BB395F81880B8F11F0F2AD83046FFF7E1
:1037A0007BFF48B32C8A240444EA08642A7844EA5C
:1037B000C23444EA0724044344F080042846FFF757
:1037C0002DFD02462B4621463046FFF73DFE041EE6
:1037D00002DD2B78012B08D02046BDE8F081138C48
:1037E000002BD6D06FF00104F6E76869FFF750FBB5
:1037F000F2E76FF00104EFE76FF00304ECE700BFBE
:103800002DE9F0418AB004460D4617461E4628228F
:1038100000216846FDF752FE9DF84C30012B14BF85
:10382000002301238DF80030029703969DF8403065
:10383000ADF81030119B05939DF848308DF8183085
:10384000149B0793BDF85430ADF820306A462946E2
:103850002046FFF797FF0AB0BDE8F081406A00B14B
:103860000430704708B5416A0B6843620C30FFF7BB
:10387000B7FD08BD2DE9F041054616469846076A92
:103880003C4619E021462846FFF7B2FD05F10C073A
:103890002B6A19683846FFF7EFFA28622146384646
:1038A000FFF79EFD2C6A274606E0216805F10C0013
:1038B000FFF7E2FA2746044604B3A168E368711AE9
:1038C00068EB03030E4A8A424FF000029A41ECD2A1
:1038D0002B6AA342D6D021462846FFF789FD2368EC
:1038E0003B6005F10C0321461C461846FFF778FDA6
:1038F00039682046FFF7C0FA0446DDE7BDE8F081ED
:1039000080841E002DE9F04182B0089E002800F05E
:10391000DF8014461D460746002E00F0DC80013A89
:10392000D2B23F2A00F2DA80012C02D1002B40F003
:10393000D8806B4600220092019222463846FFF75B
:103940008FFB071E3DDD14F0070F0CD002AB03EB1D
:10395000D40111F8083C624202F00702134101F859
:10396000083C012C0BD0082C0BD9102C2DD9202C65
:103970002ED9402C00F2B8804FF0080803E0A04692
:1039800001E04FF00108FFF7FDFB20BB002D6FD0D9
:10399000B4EBC80F10D0082C22D89DF80020631E6D
:1039A00022FA03F313F0010F06D00123A3405B4278
:1039B000DBB21A438DF80020082C61D89DF9003045
:1039C0003370384602B0BDE8F0814FF00208DAE704
:1039D0004FF00408D7E741466846FFF7D5FBD5E727
:1039E000102C0FD8BDF80020631E22FA03F313F049
:1039F000010FE1D00123A3405B429BB21A43ADF813
:103A00000020D9E7202C0CD8009A631E22FA03F379
:103A100013F0010FD0D00123A3405B421A43009260
:103A2000CAE73F2C63D8009D019A631EC4F12100B0
:103A3000A4F1210125FA03F302FA00F0034322FA6C
:103A400001F10B4313F0010FB6D00123A4F12001C3
:103A5000C4F1200003FA01F123FA00F00143A3406E
:103A60005B4261EB41011D430A4300950192A3E7CC
:103A7000012C17D0082C19D89DF800303370A0E71E
:103A8000102C03D8BDF9003033809AE7202C02D8DF
:103A9000009B336095E7402C2CD8DDE90023C6E974
:103AA00000238EE79DF8003033708AE7102C03D88E
:103AB000BDF80030338084E7202C02D8009B3360AF
:103AC0007FE7402C19D8DDE90023C6E9002378E719
:103AD0006FF0010775E76FF0010772E76FF00107FC
:103AE0006FE76FF001076CE76FF0080769E76FF0A9
:103AF000080766E76FF0080763E76FF0080760E7FD
:103B0000F0B585B005460E46402A03D8144612B9D2
:103B1000012400E04024002202920392012C06D0EE
:103B2000082C22D81B788DF80830012703E01B7879
:103B30008DF808302746FFF725FB68BB14F0070F08
:103B40000AD004AB03EBD40111F8083C624202F046
:103B50000702934001F8083C00962B4622460021BC
:103B600002A8FFF741FA05B0F0BD102C04D81B885D
:103B7000ADF808300227DEE7202C03D81B6802933B
:103B80000427D8E7402C05D8D3E90023CDE9022348
:103B90000827D0E70027CEE7394602A8FFF7F4FA56
:103BA000CCE700BF70B506460C4605E00D6806F18F
:103BB0000C00FFF715FCE560E1680029F6D1002351
:103BC000E360A3602361A38270BD00BF10F0800F8B
:103BD00004D010F4004F03D001207047022070473A
:103BE0000020704710B50446FFF7F0FF022802D00E
:103BF000C4F3074010BDC4F30F2014F07F0FF9D1B8
:103C000000F00300F6E700BF2DE9F04F99B006463B
:103C10000D4605920693D1F800904846FFF7D6FF6F
:103C20000746022800F0E580C9F30628B9F1000F25
:103C300080F2038219F0C04F40F002822C7B002CEE
:103C400000F00182022F05D03046FFF725FD4045E8
:103C500040F0FC81C9F304630A9309F07F010491E9
:103C60004846FFF7BFFF099040EA0749049949EA2F
:103C7000814949EA4869013C2C4494F804800022B7
:103C80000023CDE916235FEAD813029300F0B48035
:103C9000746800913B46024616A93046A0470028AA
:103CA00000F0D78149463046FFF7BCFC04460028A7
:103CB00000F0D281A368D4F80CA0059A0393D21A1D
:103CC0000792069860EB0A0008906A7B0B92A07E30
:103CD0000C9094F81790C9F3840908F01F0B59460B
:103CE0004846FFF7CDF80D9049465846FFF7C8F80B
:103CF0006268039B53EA0A0A18D08D4B07998B42DE
:103D00004FF0000308998B4110D30B9B0C998B4209
:103D100000F08880874B079A93424FF00003089A7F
:103D2000934114D2029B93B10F2810DCE37D68F31A
:103D30008603E375DBB223F08003E375214630464A
:103D4000FFF756FB6B7BA376029B002B76D06A7B3A
:103D5000A37E9A4240F08681029B13B118F0400F77
:103D600076D1E27DC8F34013B3EBD21F40F07E81E1
:103D7000C2F384039B4540F07C81029B002B00F042
:103D8000A38018F0400F40F0A2802B7B032B40F261
:103D90007381059BA360069BE360E38A6FF30903CD
:103DA000E382AF1D2B7B033BDBB23A46214606F193
:103DB0000C00FFF775FA00287CDB2B796A7943EA5F
:103DC00002232383DDE916234FF6FF70FFF700FA85
:103DD000A0822A7B033AD2B23946FFF713FAA082B7
:103DE000E37DDA43C2F3C01262F3C713E375002028
:103DF00039E14FF0000819E749463046FFF7E4F88B
:103E0000044600287FF456AF7468049B00933B4639
:103E1000099A16A93046A047002840F020816FF08B
:103E20000B0020E1029B002B3FF474AF0D9B012B94
:103E30003FF77CAF002A7FF479AF6BE7E37DC3F3F4
:103E40008402013262F38603E3756FF00C000AE12D
:103E5000059BA360069AE2600DF13808202200213C
:103E60004046FDF72BFB059B0E93069A0F922B1DE8
:103E700010932B7B013BDBB2ADF84C30099BADF8C6
:103E80004E308DF850708DF851B00A9B8DF852303D
:103E9000049B8DF8533096F82C3083F001038DF895
:103EA0005430B3684146304698472046FFF77CF8C7
:103EB0000020D8E021463046FFF79AFA2046FFF767
:103EC00073F86FF00200CEE018F0400F10D095F8B4
:103ED0000C9009F1FF395FFA89F9B4F81680C8F33C
:103EE0000908B8F1040F7BD843464FF000082DE0D5
:103EF0002F1D2B7B013BDBB23A46214606F10C001D
:103F0000FFF7CEF9002808DB2A7B013AD2B2394606
:103F1000A08AFFF777F9A08262E721463046FFF7D3
:103F200067FA2046FFF740F86FF002009BE000BF01
:103F300080841E0040420F0005EB08021179E21850
:103F4000D176013308F101085FFA88F8042B01D813
:103F5000C845F1D3059B0E93069B0F9304F11B03F9
:103F60001093616806F10C00FEF782FF1190C845BE
:103F70005AD2A84408F104031293E38AC3F3090355
:103F80009944ADF84C90099BADF84E308DF85070C7
:103F90008DF851B00A9B8DF85230049B8DF8533048
:103FA00096F82C3083F001038DF8543000236360C1
:103FB0002A7B013A291DA08AFFF724F9A082238BCE
:103FC000984233D00EA93046FFF7ECFD2046FEF7AD
:103FD000EBFFA28A238B9A422DD06FF0100042E0B3
:103FE000616806F10C00FEF743FF024608B10521A7
:103FF00004E04FF00008ADE71C311A461368002BAF
:10400000FAD1A8EB01034FF000081B2BA2D8C8453A
:10401000A0D205EB08010879D1180871013308F125
:1040200001085FFA88F8F0E70023A5E7B3680EA956
:1040300030469847C6E7002015E06FF0090012E00F
:104040006FF009000FE06FF009000CE06FF00A005C
:1040500009E06FF00B0006E06FF0020003E06FF084
:104060000C0000E0002019B0BDE8F08F6FF00D00EB
:10407000F9E76FF00E00F6E76FF00F00F3E700BF0F
:10408000EFF30983683305494A6B22F001024A6362
:1040900083F30988002383F31188704700EF00E061
:1040A000302080F3118862B60C4BD96821F4E061AE
:1040B0000904090C0A4A0A43DA60D3F8FC2042F0EA
:1040C0008072C3F8FC2007490A6842F001020A60C6
:1040D0002022DA7783F82200704700BF00ED00E06D
:1040E0000003FA05001000E0302383F31188104B21
:1040F0005B6813F4006F03D1002383F311887047CA
:1041000010B5F1EE103AEFF30984683C4FF080737C
:10411000E361084BDB6B236684F3098800F0C8FF7A
:1041200010B1054BA36110BD044BA361FBE700BFB9
:1041300000ED00E000EF00E0330300083603000864
:1041400030B51C4603B90C4600F10B0E734606E071
:1041500003F801CDB5FBF2F1B4FBF2F464B10D4606
:10416000B1FBF2FC02FB1C1101F1300CBCF1390F68
:10417000EEDD01F1370CEBE7AEEB030C1978013300
:1041800001700130BCF1010CF8D130BD08B500233D
:10419000FFF7D6FF08BD00BF2DE9F04F87B00646F8
:1041A00089460192002705E03368DB68304698476E
:1041B0000137A9464D4615F8011B002900F08480FF
:1041C0002529F1D199F801302D2B46D04FF0000B65
:1041D0002B782B2B46D0002095F800A0BAF1300F99
:1041E00043D04FF0200A2B782A2B40D1019B1A1D77
:1041F00001921C6805F102096B782E2B47D0002133
:104200006C2B67D04C2B65D0A3F14105EDB2192D75
:104210008CBF00250125A3F14402342A00F2BA80A4
:10422000DFE802F084B8B8B8B884B8B8B8B8B85EF7
:10423000A7B8B8B8B8A5B8B8A7B8B8B8B8B8B8B833
:10424000B8B8B86084B8B8B8B884B8B8B8B8B85E08
:10425000A7B8B86CB8A5B8B8A70009F102054FF027
:10426000010BB5E701350120B6E70135BBE70024B6
:10427000A94619F8013B3BB3A3F13002D2B2092A97
:10428000BBD804EB840402EB44044D46F0E74A46F5
:1042900012F8013BC3B12A2B08D1019B1A1D0192D0
:1042A000196899F8013009F10209A9E70021A3F181
:1042B0003005EDB2092D0BD801EB810105EB410171
:1042C00012F8013B002BF2D1384607B0BDE8F08F61
:1042D000914695E719F8013B002BF5D001259AE7A7
:1042E000082247E0019B1A1D01921B688DF80C30D3
:1042F0004FF0200A03AD0DF10D0850E0019B1A1D8F
:1043000001921D6815B171B1A84603E0434DFAE76B
:1043100008F1010898F80030002B59D00139F7D581
:104320004FF0200A3BE047F6FF71EDE765B1019BD6
:104330001A1D0192196800290BDBB0B12B238DF8EF
:104340000C300DF10D000AE0019B1A1D0192196855
:10435000F1E72D238DF80C3049420DF10D000A22B2
:10436000FFF714FF804603AD19E003A8F7E70A2220
:1043700000E010224DB1019B191D0191196803AD98
:104380002846FFF703FF804609E0019B191D0191B4
:104390001968F4E78DF80C3003AD0DF10D08A8EBAA
:1043A0000508B4EB080416D4BBF1000F00D1644239
:1043B000002C25DA29782D290FD02B290DD0336830
:1043C000DB6851463046984701370134F7D117E092
:1043D0004FF0200AE3E70024E6E7BAF1300FEED110
:1043E0003368DB68013530469847013708F1FF38FC
:1043F000E5E73368DB6815F8011B3046984701375D
:10440000B8F10108F5D506E03368DB68514630465F
:1044100098470137013C002CF6D1CBE60472000826
:104420002DE9F04186B0044615461E460F46A1B15F
:104430004A1E0DF1040800232146404600F05EF8B4
:10444000324629464046FFF7A7FE049BBB4201D2F5
:104450000022E25406B0BDE8F0810A46E9E700BF59
:104460008268C3689A4206D04268D154C368013357
:10447000C360002070476FF0010070470346C168B9
:104480000269914204D04168885C01321A61704728
:104490006FF00100704700BF03692BB1013B03615E
:1044A0004268D154002070476FF00100704700BF90
:1044B00038B504460846E5682369ED1A954200D3ED
:1044C000154661682A461944FCF7CCFF23692B4442
:1044D0002361284638BD00BF38B504468568C368E7
:1044E000ED1A954200D3154660682A461844FCF739
:1044F000B9FFE3682B44E360284638BD10B4054C8F
:10450000046041608260C360002303615DF8044B76
:10451000704700BF087300080901C9B2074A1318A1
:1045200083F8001300F01F01400901238B4000F1C4
:10453000600142F8213042F82030704700E100E08D
:1045400009B1002070476FF01300704710B582B0BA
:10455000446BD4F894341A681178042908D1217C6A
:10456000022905D11289197901238B40134201D008
:1045700002B010BD01A904F14C0002F077FA024626
:10458000D4F89444019B2179206800F0CFFBEFE739
:10459000D0F894341A68117804291BD110B5044658
:1045A000017C022918D15289597901238B40134289
:1045B00001D0012011E0143002F06CF9024668B11C
:1045C000D4F894044FF480734179006800F098FBAC
:1045D000002002E001207047012010BD0120FCE70F
:1045E00008B5406BFFF7D4FF08BD00BF08B5143015
:1045F00002F0BEF908BD00BF08B54FF0FF3314301C
:1046000002F0B6F908BD00BF08B54C3002F0A4FABC
:1046100008BD00BF08B54FF0FF334C3002F09CFAE4
:1046200008BD00BF08B5143002F082F908BD00BF14
:1046300008B54FF0FF31143002F07AF908BD00BF21
:1046400008B54C3002F064FA08BD00BF08B54FF061
:10465000FF324C3002F05CFA08BD00BF704700BF6B
:1046600070B584B00446124B03600023436083603E
:10467000C3600125057402900E4B0193022600963B
:104680004FF4807300F184022946143002F0DCF804
:104690000294094B019300964FF4807304F5237242
:1046A000294604F14C0002F0B9F904B070BD00BF16
:1046B00020730008E14500084D450008302383F3CE
:1046C00011880A680B79053302EB830358604B7934
:1046D000093342F823008B791BB1053302EB8302C7
:1046E0005060C0F8941402230374002080F31188F2
:1046F000704700BF38B50446037F13B190F85430BB
:10470000BBB9201D636843F002036360A36803B173
:104710009847012525776FF0010104F1140000F09E
:104720009BFD84F854506FF0010104F14C0000F03F
:1047300093FD38BD10B50446436843F00103436060
:1047400083680BB1043098470023237784F85430F2
:1047500010BD00BF38B50446143002F08DF80025B6
:10476000257704F14C0002F073F984F85450636823
:1047700043F001036360A3680BB1201D98472046F6
:10478000FFF706FF38BD00BF90F8443003F0600328
:10479000202B01D00020704790F84530212B05D008
:1047A000222B13D0202B09D0002070470A4B8363A3
:1047B0000723C3630023036401207047064B836310
:1047C0000723C3630023036401207047002383632E
:1047D000C3630364012070471C230020D0F8943485
:1047E0001A681178042921D130B583B00446017CC0
:1047F000022905D11289197901238B40134201D076
:1048000003B030BD00F14C05284602F0FDF9002848
:10481000F6D001A9284602F029F90246D4F89444BA
:10482000019B2179206800F081FAE9E7704700BF19
:1048300000294ED070B582B004460E464B1D00EBE9
:1048400083035D68C5B1302383F311888B1C00EBB3
:1048500083035B685B691B6883B901A905F14C00A0
:1048600002F004F90246B8B1019B3146204600F03F
:104870005DFA002383F3118802B070BD05F14C008E
:1048800002F004F9281D6B6843F008036B60AB6805
:10489000002BE2D09847E0E7B31C04EB83035A688F
:1048A00053691B681BB1128A013A134209D0281DB3
:1048B0006B6843F010036B60AB68002BD9D098474E
:1048C000D7E7002304F144023146204600F02EFAD7
:1048D000CFE7704739B338B50B46093350F823405A
:1048E00004B3302383F31188D4F8942413685279E5
:1048F000023203EB82035B689B695D6865B1201D32
:10490000636843F004036360A36803B198472946D2
:1049100004F1140001F0CAFF2046FFF739FE00231E
:1049200083F3118838BD7047704700BF0378407823
:1049300043EA0020704700BF438923F0010343810D
:10494000038923F0010303810023C36380F834301B
:10495000704700BF10B50446002101F05DFF002143
:10496000204601F051FF63681B6813B10621204601
:104970009847638923F001036381238923F00103AE
:1049800023810023E363062384F8343010BD00BF85
:1049900010B5044690F8463080F84E3001F03AFCED
:1049A00063681B6813B101212046984703232370D5
:1049B00010BD00BF08B501F06BFB08BD01230370FB
:1049C0000023436009E09A1D00EB82020021516040
:1049D00003F10A0240F822100133022BF3D900231D
:1049E00003814381704700BF10B50446302383F331
:1049F00011884160002305E09A1C04EB820200212B
:104A000051600133032BF7D9204601F051FB0223FB
:104A10002370002080F3118810BD00BF08B58B1CE7
:104A200000EB83035A6053694BB14FF0000CC3F89D
:104A300000C0C3F804C0C3F808C0C3F80CC0936931
:104A400023B100221A605A609A60DA6001F0EEFB2E
:104A500008BD00BF08B5038903F001030381438942
:104A600003F001034381012305E09A1C00EB82025D
:104A7000002151600133032BF7D901F079FC08BD07
:104A8000F8B5044690F8443003F07F0390F84520D1
:104A900043EA022340F20232934200F00B8123D812
:104AA000B3F5807F6ED010D8012B61D0022B00F0BF
:104AB000B18043B900F14C0383630223C363002335
:104AC00003640120F8BD0020FCE7B3F5817F00F00E
:104AD000DB80B3F5407F05D190F84630012B63D0E1
:104AE0000020EFE70020EDE7B3F5006F76D022D885
:104AF000B3F5A06F64D0C0F0F380A3F5C063012BC1
:104B000000F2F08043685D6890F8476090F8467066
:104B10004830FFF70BFF03463A4631462046A84788
:104B2000002800F0E1804268A2630368E363002389
:104B300023640120C6E7B3F5106F15D10378042B69
:104B400054D094F846304BB184F84F30042323708E
:104B500063681B6813B10221204698470023A363B2
:104B6000E36323640120ADE740F60242934207D19C
:104B7000604BA3630223E363002323640120A1E7C6
:104B800000209FE790F84630012B01D0002099E7E4
:104B9000B0F84C3023F00203A0F84C3000238363BC
:104BA000C363036401208DE7B0F84C3043F0020387
:104BB000A0F84C3000238363C3630364012081E7C2
:104BC000B0F84430B3F5A06F05D00023A363E363CE
:104BD0002364012076E7FFF7DBFEF6E700F14F03E1
:104BE00083630120E063002323646BE7302383F3B6
:104BF0001188FFF72FFF002383F3118884F84F30CB
:104C00000323237063681B68002B9AD0032120467E
:104C1000984796E790F8481090F94830002B09DB48
:104C200001F00F0101F0ACFB01281DD0022823D0B8
:104C3000002047E701F00F0101F0B2FB012803D08B
:104C4000022809D000203DE72B4BA3630223E36336
:104C500000232364012035E7284BA3630223E36389
:104C60000023236401202DE7234BA3630223E36386
:104C700000232364012025E7204BA3630223E36381
:104C80000023236401201DE790F8463073BB90F8A1
:104C9000483013F00F0104D013F0800F07D101F05A
:104CA000C3FD0023A363E363236401200AE701F04B
:104CB000C3FDF6E790F84630D3B990F8483013F0CA
:104CC0000F0104D013F0800F07D101F09DFD0023E8
:104CD000A363E36323640120F4E601F09DFDF6E79E
:104CE0000020EFE60020EDE60020EBE60020E9E6FC
:104CF0000020E7E650730008487300084C73000872
:104D000038B5458901248C40A4B22C43448101F17B
:104D1000020E00EB8E0CDCF80440A469A260236054
:104D20000023636001F056FB38BD00BF38B505892C
:104D300001248C40A4B22C43048101F1020E00EB4B
:104D40008E0CDCF804406469A26023600023636079
:104D500001F0DAFB38BD00BF10B504460223037032
:104D60000023A0F84C3080F84E3080F84F30C363F9
:104D70000381438105E09A1C04EB8202002151600B
:104D80000133032BF7D9002384F83430204601F097
:104D9000E7F963681B6813B100212046984710BDEE
:104DA0000378052B0ED010B5044680F8503005234B
:104DB000037043681B680BB10421984700232381CB
:104DC000638110BD704700BF08B50378052B00D084
:104DD00008BD90F85030037043681B68002BF7D073
:104DE00005219847F4E700BF10B5044690F8343029
:104DF00093BB04F144020021204601F0E1FA63680C
:104E00009B6813B12046984740B994F8443013F09A
:104E1000600F24D12046FFF733FE00B304F14A00AF
:104E2000FFF784FDE36B834200D9E06394F94430DB
:104E3000002B18DBE36BC3B3152384F83430302325
:104E400083F31188E36BA26B00212046FFF758FF24
:104E5000002383F3118805E0FFF76EFDC9E72046C4
:104E6000FFF778FD10BDE36B7BB1092384F8343084
:104E7000302383F31188E36BA26B00212046FFF7F8
:104E800055FF002383F31188ECE7142384F83430B2
:104E9000302383F3118800231A4619462046FFF772
:104EA0002FFF002383F31188DCE70B2384F83430D1
:104EB000302383F3118800231A4619462046FFF752
:104EC00035FF002383F31188CCE700BF10B50446FB
:104ED00090F83430152B42D8DFE803F03F414141D0
:104EE00041413F41410B183841414141414141411C
:104EF000413F4A30FFF71AFDE36B834206D2E26876
:104F0000128AB3FBF2F102FB11337BB1142384F854
:104F10003430302383F3118800231A461946204683
:104F2000FFF7EEFE002383F3118818E0302383F3AC
:104F3000118800231A4619462046FFF7F7FE002382
:104F400083F311880A2384F8343008E0036C03B13A
:104F500098472046FFF7F0FC01E0FFF7FBFC10BD8F
:104F600010B5044690F83430152B28D8DFE803F04C
:104F700025272727272725272727252527272727C9
:104F8000272727271A0B0B2380F83430302383F38D
:104F9000118800231A461946FFF7C8FE002383F341
:104FA00011880CE0C3689B695B6843B9036C03B16B
:104FB00098472046FFF7C0FC01E0FFF7CBFC10BD8F
:104FC0000023037503691B68996882689142FAD2CD
:104FD00003605A68426010605860704708B5084620
:104FE000302383F311880B7D032B05D0042B0FD0C6
:104FF0002BB983F311880AE08B6900221A604FF005
:10500000FF338361FFF7DCFF002383F3118808BDC2
:105010004A680B6813604A685A60F0E7002303751A
:1050200003691B68996882689142FAD803605A68DC
:10503000426010605860704708B5FFF7C1FF08BDB7
:1050400038B50A4BDD6828751C6822681A60536001
:1050500001222275DC60A368934204D029462046D1
:10506000FBF752F938BD00F01BFEF7E7704C00204B
:1050700030B587B004460C4BDD68B1F1FF3F0FD06F
:105080002B460A4A684600F06FF92046FFF7D8FF22
:10509000009B13B1684600F075F9A86907B030BDF0
:1050A000FFF7CEFFF9E700BF704C0020DD4F00088E
:1050B000044BDA681B6898689368984294BF002094
:1050C00001207047704C002038B50B4BDD681C6820
:1050D00022681A60536001222275DC60AB6893423B
:1050E00007D02846FFF79AFF01462046FBF70CF948
:1050F00038BD00F0D7FDF4E7704C002008B50B4B2D
:1051000001221A70002353B109490A4801F0BCFD7D
:10511000064B02221A70002383F3118808BD034A4C
:1051200002EB8302002151600133ECE7C84C002000
:1051300054730008704C002008B572B6044B186513
:1051400000F082FC00F058FD024B03221A70FEE7CB
:10515000704C0020C84C002008B500F04DF908BD87
:10516000401A521A90422CBF00200120704700BF05
:1051700038B5064B5D684419044B586822462946E9
:10518000FFF7EEFF0028F7D138BD00BF001000E0A8
:105190008B6002230B7500234B750861084670472E
:1051A00008B58168A1F1840341F8143C026941F813
:1051B000442C426941F8402C044A41F8242CC3682D
:1051C000026820390248FFF7E3FF08BD2103000809
:1051D000704C002008B5FFF7E3FFFFF72DFF08BD77
:1051E00008B5034BDB6898610F20FFF729FF08BD66
:1051F000704C002008B5302383F31188FFF7F0FFCF
:1052000008BD00BF08B50146302383F3118808208C
:10521000FFF72EFF002383F3118808BD08B5074B65
:10522000DB6841B1186042685A6013604360042033
:10523000FFF71EFF08BD4FF0FF30FBE7704C00206A
:1052400008B503460068834205D002681A605360BF
:105250008161FFF7F1FE08BD38B504460D4605E053
:10526000036823605C608561FFF7E6FE2068844286
:10527000F6D138BD10B4036801E0121B1B689C68AE
:10528000A242FAD88A600B605C684C602160596069
:105290009968891A99604FF0FF3383605DF8044B79
:1052A000704700BFF8B515461C46C2608B60486069
:1052B00003680B6059600160092C00D80A24C0689B
:1052C000204401F0CDFC0A2701F0C6FC0646431B32
:1052D0009C4202D90A2F07D8F8BD7C1C281901F07E
:1052E000CDFC27463546EFE7012001F00DFDF3E741
:1052F00070B504460D46092900D80A250A2660190A
:1053000001F0BCFC01F0A8FC041BA54202D90A2E46
:1053100004D870BD013635460446F0E7012001F09F
:10532000F3FCF6E7F8B505460F46164601F094FC87
:105330002B689D420DD0EC68041B341900D3344611
:105340009B68A3420CD8224639462846FFF792FFB5
:10535000F8BD3346024639462846FFF7A3FFF7E774
:105360003146FFF7C5FFEEE708B50361C2600023D1
:1053700043610A4601460248FFF7D4FF08BD00BF5B
:10538000804C002008B51B4B1B69984210D0426826
:105390000368136042685A600268936881680B442E
:1053A000936000230360134B4FF0FF329A6108BDF6
:1053B0001968104A134643F8101F4B600021016022
:1053C00012699A4212D0936881680B44936001F08D
:1053D00043FC084AD369A0EB030C1269916861454C
:1053E000E5D91B1A1944FFF783FFE0E701F040FC01
:1053F000DDE700BF704C0020F8B50BE0002383F31D
:105400001188E368216920469847302383F3118887
:105410006369CBB9244D2C6901F01EFCED69411B79
:10542000A2688A4232D815441F4BDD616168226848
:105430000A60616851600022226053F8102F9A427E
:10544000DCD101F015FCD9E701F006FC0746461B4C
:105450006269B2420ED32B1A1A44134B53F8101F31
:1054600099420CD0961900D2324621460F48FFF7D8
:1054700001FFCFE7022001F047FC0022EDE71346D1
:105480003A4621460948FFF70DFF0CE0064A52F85C
:10549000101F914207D0044AD061A2682B1A9918B4
:1054A000A160FFF725FFF8BD704C0020804C002064
:1054B00038B501F0D1FB054AD2E90845031B18199C
:1054C00045F10001C2E9080138BD00BF704C002061
:1054D00000207047FEE700BF704700BF4FF0FF306D
:1054E000704700BF02290BD0032903D0012909D13D
:1054F00006487047032A07D8054800EBC2007047EA
:10550000044870470020704700207047107400085E
:1055100024230020C473000870B59AB005460846DD
:10552000144601AE314600F0D7F83046FBF7BCFF19
:105530005FFA80FC431C5B002B606C6023700323CC
:10554000637000230CE0591C03F168026A4412F8EE
:10555000642C04F811205B0003330022E254CBB228
:105560006345F0D31AB070BD08B5302383F31188BA
:105570000348FFF733F9002383F3118808BD00BF08
:10558000604F002008B590F8443003F01F02012A54
:1055900011D003F06003202B0AD1B0F848303BB99A
:1055A00090F84530212B10D0222B1ED0202B14D068
:1055B000FFF7EAF808BD90F845200B2AE9D100234F
:1055C0008363C36303640120F4E70B4B8363072306
:1055D000C363002303640120ECE7074B83630723C5
:1055E000C363002303640120E4E700238363C363F0
:1055F00003640120DEE700BF4423002010B5052925
:1056000021D8DFE801F017200317172104463023C3
:1056100083F31188114A0121FFF700FA104A022191
:105620002046FFF7FBF90F48FFF794F8002383F3B8
:10563000118808E0302383F311880A48FFF75AF8ED
:10564000002383F3118810BD302383F311880548AC
:10565000FFF770F8002383F31188F4E79C730008C8
:1056600078730008604F002038B50B4D0B4C2A466C
:105670000B492046FFF750FF05F1CA02094904F122
:105680000800FFF749FF05F5CA72074904F1100049
:10569000FFF742FF38BD00BF004D00202C23002043
:1056A000107200081C7200082872000870B50446C9
:1056B0000D460846FBF7F8FE064600E00134237865
:1056C00043B1F2B229462046FBF7D6FE0028F5D1B9
:1056D000012000E0002070BD70B506460C46FBF7C7
:1056E000E3FEC5B226493046FFF7E0FF08B10635B4
:1056F000EDB224493046FFF7D9FF08B11035EDB2BD
:10570000632D25D93146204601F006FD36E01E4BBB
:1057100007CB20606160A2601B78237307360D34CD
:1057200016E01A495A5C12091948855C224602F8AB
:10573000025B595C01F00F01415C61700133DBB227
:1057400014460B2BEDD9083602E0013604F8015B54
:1057500035788DB1252DF8D1072209493046FBF760
:105760008BFE0028D3D0082206493046FBF784FE82
:105770000028EAD10023E4E70023237070BD00BFB6
:1057800034720008287200083C720008107AFF1F6B
:105790004C720008BFF34F8F024BDB6813F4803F5D
:1057A000FAD17047003C0240014BF322DA607047A7
:1057B000003C024008B50B4B1B7803B108BDFFF756
:1057C000E9FF094B1B69002B05DB074A136823F42B
:1057D00080631360F2E7044B044A5A6002F1883296
:1057E0005A60F2E7F8530020003C0240230167456D
:1057F00008B50C4B1B7803B108BDFFF7CBFF0A4B74
:105800001A6942F000421A611A6842F480521A6022
:105810001A6822F480521A601A6842F480621A6090
:10582000EAE700BFF8530020003C024012F0010FED
:1058300065D1F8B504460E4615461318B3F1016F4D
:105840005FD8314B1B6813F0010F01D1002059E0E4
:10585000FFF7B0FFFFF7A8FFFFF79CFF032D29D943
:1058600014F0030F26D1294A136923F440731361FE
:10587000136943F4007343F0010313613768276031
:10588000BFF34F8FFFF786FF23689F4203D1043D8C
:1058900004360434E2E71D4A136923F0010313615F
:1058A00004E01A4A136923F001031361FFF7A0FF14
:1058B000002027E0012D19D9144A136923F44073FD
:1058C0001361136943F4807343F001031361338858
:1058D0002380BFF34F8FFFF75DFF23889BB2328891
:1058E0009A42DED1023D02360234E3E7074A1369E9
:1058F00023F001031361FFF77BFF012002E000208A
:1059000070470020F8BD00BF00380240003C024054
:10591000014B53F8200070472C7400080B281AD84C
:1059200070B506460D4B1B788BB900244FF000650F
:1059300008E00B4B43F824502046FFF7E9FF0544ED
:105940000134E4B20B2CF4D9044B01221A70044B3D
:1059500053F8260070BD0020704700BFF9530020A7
:10596000FC5300200C2070470B2801D90020704701
:1059700038B50546FFF7D2FF04462846FFF7C8FFB3
:1059800030B12368B3F1FF3F04D104380434F7E7A2
:10599000012038BD0020FCE70B2801D9002070470A
:1059A00038B50446FFF7F6FEFFF704FFFFF7FCFEED
:1059B000154BA3FB0423DB081A4603EB4303A4EBBC
:1059C0008303DB00DBB2D201D2B2134343F4007392
:1059D00043F002030D4A1361136943F480331361EA
:1059E000FFF7D8FE2046FFF799FF05462046FFF750
:1059F0008FFF0146284600F0FBF8FFF7F9FE20462E
:105A0000FFF7B2FF38BD00BFABAAAAAA003C024014
:105A100008B5FFF70BFF08BD08B548B1094B1B7867
:105A200003B108BDFFF7C6FE064B01221A70F8E766
:105A3000044B1B78002BF4D0024B00221A70FFF7A6
:105A4000D7FEEEE7F853002010B500240BE007481E
:105A500004EB44039A00134603445968805800F04D
:105A6000C9F80134E4B2012CF1D910BD5C7400080E
:105A700008B50846114601F0FFFA08BD08B508460A
:105A800001F002FB08BD00BF302383F3118870478B
:105A9000002383F311887047302383F31188704704
:105AA000002383F311887047FFF702BD38B5EFF389
:105AB0001183D3B9EFF30583C3F3080353B9FFF799
:105AC000E3FFFFF7F1FF05460C46FFF7E1FF28462D
:105AD000214638BDFFF7E0FFFFF7E6FF05460C461D
