:020000040800F2
:1000000000060020E1010008E3010008E301000808
:10001000E3010008E3010008E3010008E301000830
:10002000E3010008E3010008E3010008C52F000810
:10003000E3010008E3010008E3010008E301000810
:10004000E3010008E3010008E3010008E301000800
:10005000E3010008E3010008E3010008E3010008F0
:10006000E3010008E3010008E3010008E3010008E0
:10007000E3010008E3010008E3010008E3010008D0
:10008000E3010008E3010008E3010008E3010008C0
:10009000E3010008E3010008E3010008E3010008B0
:1000A000E3010008E3010008E3010008E3010008A0
:1000B0006D320008E3010008E3010008E3010008D5
:1000C000E3010008E3010008E3010008E301000880
:1000D000E3010008E3010008E3010008E301000870
:1000E000E3010008E3010008E3010008E301000860
:1000F000E3010008E3010008E3010008E301000850
:10010000E3010008E3010008E3010008E30100083F
:10011000E3010008E3010008E3010008E30100082F
:10012000E3010008E3010008E3010008E30100081F
:10013000E3010008E3010008E3010008E30100080F
:10014000E3010008E3010008E3010008612700085B
:10015000E3010008E3010008E3010008E3010008EF
:10016000E3010008E3010008E3010008E3010008DF
:10017000E3010008E3010008E3010008E3010008CF
:10018000E3010008E3010008E3010008E3010008BF
:10019000E3010008E3010008E3010008E3010008AF
:1001A000E3010008E3010008E3010008E30100089F
:1001B000E3010008E3010008E3010008E30100088F
:1001C000E3010008E3010008E3010008E30100087F
:1001D000E3010008E3010008E3010008E30100086F
:1001E00002E000F000F8FEE772B6374880F30888B6
:1001F000364880F3098836483649086040F20000E6
:10020000CCF200004EF63471CEF200010860BFF36C
:100210004F8FBFF36F8F40F20000C0F2F0004EF638
:100220008851CEF200010860BFF34F8FBFF36F8F8C
:100230004FF00000E1EE100A4EF63C71CEF20001E4
:100240000860022080F31488BFF36F8F01F022FF53
:1002500002F058FE4FF055301F491B4A91423CBFF7
:1002600041F8040BFAE71D49184A91423CBF41F896
:10027000040BFAE71A491B4A1B4B9A423EBF51F83E
:10028000040B42F8040BF8E700201849184A914281
:100290003CBF41F8040BFAE701F000FF02F084FED6
:1002A000144C154DAC4203DA54F8041B8847F9E7A7
:1002B00000F042F8114C124DAC4203DA54F8041B22
:1002C0008847F9E701F0E8BE000600200022002080
:1002D0000000000808ED00E00000002000060020FB
:1002E000E0350008002200204022002040220020AB
:1002F000E82D0020E0010008E0010008E00100080E
:10030000E00100082DE9F04F2DED108AC1F80CD066
:10031000C3689D46BDEC108ABDE8F08F002383F3CF
:1003200011882846A047002001F078FAFEE701F086
:1003300001FA00DFFEE7000038B500F09DFB01F098
:1003400075FE054601F098FE0446A8B90E4B9D4285
:1003500015D001339D4214D041F28835002001F0C0
:100360006FFE0CB100F076F800F0E0FC284600F0DB
:10037000C1F800F06FF8F9E700250124EEE7054623
:10038000ECE70546F9E700BF010007B008B500F04B
:1003900047FBA0F120035842584108BD07B504218E
:1003A00001900DEB010000F057FB03B05DF804FB7A
:1003B00038B5302383F31188174803680BB101F077
:1003C000F9FA164A144800234FF47A7101F0E8FA5A
:1003D000002383F31188124C236813B12368013B77
:1003E0002360636813B16368013B63600D4D2B7834
:1003F00033B963687BB9022000F008FC32236360E4
:100400002B78032B07D163682BB9022000F0FEFB89
:100410004FF47A73636038BD50230020B1030008A5
:10042000442300204C230020084B187003280CD8CC
:10043000DFE800F008050208022000F0DDBB022022
:1004400000F0D0BB024B00225A6070474C230020C2
:1004500044230020234B244A10B51C46196801315F
:100460003FD004339342F9D16268A24239D31F4B83
:100470009B6803F1006303F540439A4231D20020A8
:1004800000F014FB0220FFF7CFFF194B1A6C00227B
:100490001A64196E1A66196E596C5A64596E5A6646
:1004A0005A6E5A6942F080025A615A6922F08002FB
:1004B0005A615A691A6942F000521A611A6922F0A7
:1004C00000521A611B6972B64FF0E0233021C3F865
:1004D000084DD4E9003281F311889D4683F30888E2
:1004E000104710BD00C0000820C0000800220020F6
:1004F000003802402DE9F04F93B0DFF800830190FF
:100500002022FF210AA8D8F8086000F0B9FBB24AFF
:100510001378A3B9B148012103601170302383F32C
:10052000118803680BB101F045FAAD4AAB480023CE
:100530004FF47A7101F034FA002383F31188019BA0
:1005400013B1A84B019A1A60A74A019D1378032B97
:100550001EBF00231370A34A4FF0000A18BF536058
:10056000D3465446D146012000F046FB25B19D4BB1
:100570001B68002B00F0F981002000F051FA071EE3
:10058000F4DB012000F02EFBA7F121001628EAD8A9
:1005900001A353F820F000BFF5050008130600087A
:1005A0008F06000867050008670500086705000852
:1005B0001B070008DD080008010800085B080008A8
:1005C00081080008A708000867050008B9080008A6
:1005D000670500082509000881060008670500086E
:1005E000710900085D07000881060008670500081A
:1005F0005B0800080220FFF7C9FE002800F0AE806B
:1006000000F08AFB0BF00B030B2B4FF001046BD1B6
:10061000E0E04FF47A7000F003FA071EC0F29E800B
:100620000220FFF7B3FE002800F09880013F052F5D
:1006300000F2C881DFE807F003070A0D1028052043
:10064000FFF7ACFE14E0D8F80000F9E7D8F8040092
:10065000F6E7D8F80800F3E74FF01C09484600F029
:1006600027FA09F10409FFF799FEB9F12C0FF5D12A
:100670000123BB404BEA03035FFA83FB4FF0000901
:1006800000F04AFB84B3BDE7D8F80C00D8E7002C93
:1006900064D00BF00B030B2B5FD10220FFF776FE2B
:1006A0000446002859D0012000F000FA0220FFF78C
:1006B000BBFE00271FFA87FA504600F007FA0546EE
:1006C000C0B9494B012202201A7000F08BFA2E4665
:1006D000D8F80830B34219D8434B00261E70414B5E
:1006E0005E6000F019FBA2464048022100F0B4F918
:1006F000234665E10021504600F0F8F90137054630
:100700000028D7D1A2463A480221EFE7304600F050
:10071000CFF90130F6D10436DAE7FCB10BF00B0368
:100720000B2B1AD10220FFF77FFE322000F078F960
:10073000071E12DB17F003030FD1D8F80810BA19FF
:100740008A420AD8B7F5807F07D82A4A9F420DDC33
:10075000C820FFF71BFE0446B0B90124019B2648C0
:10076000BAF1000F08BF1D460221BFE74FF47A70AF
:10077000CDE9023200F054F90028EFDB039A029B26
:1007800002F8010B0133E1E71F2E11D8C6F1200258
:10079000BA420AAB26F0030028BF3A461549029236
:1007A000184400F04DFA029A1248FF2100F068FA4E
:1007B000BB10C7F387020F490293304600F068FA76
:1007C000074600289FD0029B042213FB026600F01C
:1007D000A3FA3C46002587E7402300205023002051
:1007E000B1030008442300204C230020C03200083D
:1007F000B832000840220020BC320008002200204D
:100800000220FFF7C3FD0028A8D000F09BF90028C4
:10081000A4D000273B4612E01F2F18D80A9A0132B5
:1008200015D027F0030248326A4452F8200C059094
:100830000422184605A900F0A9FA04370346D8F89F
:100840000820BA42E8D81846FFF7A8FD18E738464E
:10085000029300F02DF9029BE9E70023642105A82B
:10086000059300F0F1F800287FF478AF0220FFF73D
:100870008DFD00283FF472AF059800F04BF9E3E7D7
:100880000023642105A8059300F0DEF800287FF41A
:1008900065AF0220FFF77AFD00283FF45FAF0598AF
:1008A00000F048F9D0E70220FFF770FD00283FF480
:1008B00055AF00F057F9C7E70220FFF767FD0028A2
:1008C0003FF44CAF05A9142000F052F90746FFF79A
:1008D00065FD394605A800F0BFF8D1E6322000F0EA
:1008E0009FF8071EFFF63AAFBB077FF437AFD8F883
:1008F000082007EB090393423FF630AF0220FFF7D1
:1009000045FD00283FF42AAF27F003074F44B945BF
:100910003FF4B6AE484600F0CBF8FFF73FFD09F1D3
:100920000409F4E74FF47A70FFF730FD00283FF434
:1009300015AF00F007F900283FF4E5AE0A9B01333C
:100940000CD008220AA9002000F0A2F900283FF4E8
:10095000DAAE2022FF210AA800F092F91B480221FA
:1009600000F07AF81A4800F05FFF13B0BDE8F08F8E
:10097000002C3FF4F3AE0BF00B030B2B7FF4EEAE29
:100980000023642105A8059300F05EF807460028BF
:100990007FF4E4AE0220FFF7F9FC029000283FF458
:1009A000DDAE0221094800F057F841F2883000F02E
:1009B0003BFF059800F0E8F900F0AEF9029B3D46D8
:1009C0001C46D0E54FF00009C8E600BFC032000861
:1009D000A086010070B50F4B1B780133DBB2012BF1
:1009E00005460C4610D80C4801684FF47A730E6A1D
:1009F000A2FB033229462246B047844204D1074B6A
:100A000000221A70012070BD4FF4FA7000F00CFF44
:100A10000020F8E710220020A028002098230020C2
:100A200007B50023024601210DF107008DF80730BC
:100A3000FFF7D0FF20B19DF8070003B05DF804FB7D
:100A40004FF0FF30F9E7000008B50A460421FFF730
:100A5000C1FF013808BD000030B4054604480368F2
:100A6000DC69044B0A46A446294630BC604700BFF7
:100A7000A0280020A086010070B501F0E3F9094E1E
:100A8000094C3080002520683388834208D901F062
:100A9000D3F9236805440133B5F5404F2360F2D301
:100AA00070BD00BF902300209423002001F074BA91
:100AB00000F1006000F540400068704700F1006000
:100AC000920000F5404001F003BA0000054B1A689F
:100AD000054B1B889B1A834202D9104401F0ACB924
:100AE00000207047942300209023002038B5084D43
:100AF000044629B128682044BDE8384001F0BCB95B
:100B00002868204401F0A0F90028F3D038BD00BFC8
:100B100094230020034610F0030009D1B3F5047FAD
:100B200007D203F10053A3F51043D3F80008704730
:100B30000020704700F10050A0F51040D0F8100AD6
:100B400070470000064991F8243033B10023086A49
:100B500081F824300822FFF7B1BF0120704700BFA1
:100B600068230020014B1868704700BF002004E094
:100B700070B5194B194A1D68431EC5F30B040B448D
:100B80002D0C0520013808D19942084610D3144A8B
:100B90000624013C15D1401A70BD1688A6420ED11C
:100BA00052680846013A9842F1D212F9014F1CB935
:100BB0002C2200F8012BEAE700F8014BF3E708329A
:100BC000E0E71688AE4204D198423CBF967800F820
:100BD000016B0432DDE700BF002004E0543300085D
:100BE000C4320008022802BF024B4FF000729A6123
:100BF000704700BF00000240022802BF024B4FF4C2
:100C000000729A61704700BF00000240022801BFD5
:100C1000024A536983F40073536170470000024035
:100C200070B504464FF47A7604B970BD412C254660
:100C300028BF412506FB05F000F0F6FD641BF3E735
:100C400010B50023934200D110BDCC5CC4540133D5
:100C5000F8E7000010B5013810F9013F3BB191F9F8
:100C600000409C4203D11AB10131013AF4E71AB1B4
:100C700091F90020981A10BD1046FCE7FFF7FEBF5F
:100C800002440346934200D1704703F8011BF9E781
:100C90002DE9F0471F4D144695F824200746894654
:100CA0009AB32B6A03EB820383422ED0FFF74AFFED
:100CB00058BB0020BDE8F08795F824302BB91548C3
:100CC0002F622022FF21FFF7DBFF95F82400C0F1FF
:100CD0000808A04528BFA04649464FEA880205EB10
:100CE0008000FFF7ADFF95F824305FFA88F6A41B6B
:100CF0001E44F6B20FFA88FA082E07EB8A0709EBB2
:100D00008809E4B285F82460D0D0002CD4D1012029
:100D1000D0E700BF68230020024B1A78024B1A70FC
:100D2000704700BF982300201022002010B5124BFE
:100D30001A7802BB114C124801221A7000F0BAF85E
:100D400021460F4800F0E2F82468626DD2F80438BA
:100D500043F00203C2F804384FF47A70FFF760FFE3
:100D60000849204600F0FEF9626DD2F8043823F0FD
:100D70000203C2F8043810BD99230020B4330008E0
:100D8000A0280020BC3300087047000030B5094D92
:100D90000A44914200D130BD11F8013B584008236C
:100DA00040F30004013B2C4013F0FF0384EA5000A1
:100DB000F6D1EEE72083B8ED026843680A4302608B
:100DC00003B118477047000013B5446BD4F894344E
:100DD0001A681178042915D1217C022912D11979B8
:100DE000128901238B4013420CD101A904F14C005C
:100DF00001F046FFD4F89444019B21790246206813
:100E000000F0FAF902B010BD143001F0CFBE0000BE
:100E10004FF0FF33143001F0C9BE00004C3001F038
:100E20009BBF00004FF0FF334C3001F095BF000036
:100E3000143001F09DBE00004FF0FF31143001F07E
:100E400097BE00004C3001F067BF00004FF0FF324A
:100E50004C3001F061BF000010B5D0F894341A682E
:100E600011780429044617D1017C022914D159793B
:100E7000528901238B4013420ED1143001F032FE0F
:100E8000024648B1D4F894044FF480734179006865
:100E9000BDE8104000F09EB910BD0000406BFFF7A8
:100EA000DBBF000000290CBF6FF01300002070476B
:100EB000704700007FB5124B036000234360C0E918
:100EC0000233012502260F4B05740446029001935C
:100ED00000F18402294600964FF48073143001F02B
:100EE000DDFD094B0294CDE9006304F523724FF454
:100EF0008073294604F14C0001F09EFE04B070BDE1
:100F0000743300089D0E0008C90D0008302383F3D8
:100F100011880B680A7903EB820290614A790932E1
:100F200043F822008A7912B103EB8203986102230D
:100F3000C0F894140374002080F3118870470000F7
:100F400038B5037F044613B190F85430ABB9201D77
:100F500001250221FFF730FF04F1140025776FF01F
:100F6000010100F089FC84F8545004F14C006FF04A
:100F70000101BDE8384000F07FBC38BD10B501214B
:100F800004460430FFF718FF0023237784F8543019
:100F900010BD000038B504460025143001F096FD60
:100FA00004F14C00257701F05FFE201D84F85450B9
:100FB0000121FFF701FF2046BDE83840FFF74CBF95
:100FC00090F8442002F06002202A034615D190F8E0
:100FD0004520212A4FF0000002D81F2A03D870476D
:100FE000222A07D07047064A9A630722DA631864F8
:100FF00001207047C3E90E00F9E70020704700BFE9
:101000001122002037B5D0F894341A6811780429D9
:1010100004461AD1017C022917D1197912890123BA
:101020008B40134211D100F14C05284601F0DAFE45
:1010300058B101A9284601F023FED4F89444019B3D
:1010400021790246206800F0D7F803B030BD0000D7
:101050002DE9F34104460D4619B300EB81039E6967
:10106000FEB1302383F3118800EB810706F14C08B1
:10107000FB685B691B6833B1404601F00FFE082135
:10108000301DFFF799FE01A9404601F0F9FD024627
:1010900050B1019B2946204600F0AEF8002383F3AF
:1010A000118802B0BDE8F081FB685A69126832B15C
:1010B0001B8A013B134002D104F14402EAE71021EC
:1010C000301DFFF779FEE9E738B5F9B1093150F87D
:1010D0002140DCB1302383F31188D4F894241368C1
:1010E000527903EB8203DB689B695D6845B104219B
:1010F0006018FFF761FE294604F1140001F0FCFCC2
:101100002046FFF7A9FE002383F3118838BD0000B5
:101110007047000010B50021044601F08BFC00214F
:10112000204601F07DFC63681B6813B10621204650
:101130009847A36823F00113A3600023E363062309
:1011400084F8343010BD000001F018B8012303709A
:101150000023C0E90133C36183620362C362436257
:101160000363704738B50446302383F311880025A4
:10117000C0E90355C0E90555416001F00FF80223AD
:10118000237085F31188284638BD000070B500EB48
:10119000810305465069DA600E46144618B11022E4
:1011A0000021FFF76DFDA06918B110220021FFF7A3
:1011B00067FD31462846BDE8704001F0BBB800002D
:1011C000826802F0011282600022C0E9042282617A
:1011D00001F038B9F0B400EB81044789E4680125D7
:1011E000A4698D403D43458123600023A260636074
:1011F000F0BC01F053B90000F0B400EB81040789A2
:10120000E468012564698D403D4305812360002326
:10121000A2606360F0BC01F0C7B9000070B50223A2
:10122000002504460370C0E90255C0E90455C564B1
:10123000C563856180F8345001F016F863681B6857
:1012400023B129462046BDE87040184770BD000014
:101250000378052B10B504460AD080F850300523DA
:10126000037043681B680BB1042198470023A360F7
:1012700010BD00000178052906D190F85020436880
:1012800002701B6803B118477047000070B590F8F2
:10129000343004463BB1836823F00113836000239C
:1012A000C36380F8343004F144020021204601F089
:1012B000EBF863689B684BB994F8443013F0600511
:1012C00028D02046BDE87040FFF724BF204698474D
:1012D0000028F1D0B4F84A30E56B9D4284BFE36347
:1012E0001D4694F94430002B4FF0300380F2028108
:1012F000002D00F0F180092284F8342083F3118856
:101300000021D4E90E232046FFF776FF002383F364
:10131000118870BD94F8452003F07F0343EA02234F
:1013200040F20232934200F0C48021D8B3F5807FAE
:1013300047D00DD8012B3ED0022B00F09280002B1D
:10134000BFD104F14C02A2630222E2632364C1E72D
:10135000B3F5817F00F09A80B3F5407FB1D194F866
:101360004630012BADD1B4F84C3043F0020331E0EC
:10137000B3F5006F4CD017D8B3F5A06F30D0A3F5FC
:10138000C063012B9DD8636894F846205E6894F88A
:101390004710B4F848302046B047002891D0436841
:1013A000A3630368E36319E0B3F5106F35D040F62B
:1013B0000242934285D15C4BA3630223E363002383
:1013C000C4E794F84630012B7FF47BAFB4F84C307F
:1013D00023F00203C4E90E55A4F84C30256479E7E4
:1013E000B4F84430B3F5A06F0ED194F8463084F8C9
:1013F0004E30204600F092FF63681B6813B1012154
:1014000020469847032323700023C4E90E339DE749
:1014100004F14F03A3630123C4E72378042B10D105
:10142000302383F311882046FFF7CAFE85F3118825
:101430000321636884F84F5021701B680BB120466C
:10144000984794F84630002BDED084F84F300423C0
:10145000237063681B68002BD6D002212046984772
:10146000D2E794F848301D0603F00F0120460AD554
:1014700000F0FCFF012804D002287FF422AF2B4BA0
:101480009AE72B4B98E700F0E3FFF3E794F8463038
:10149000002B7FF416AF94F8483013F00F01B3D04F
:1014A0001A06204602D501F0D9FAADE701F0CCFAD0
:1014B000AAE794F84630002B7FF403AF94F8483045
:1014C00013F00F01A0D01B06204602D501F0B2FA9E
:1014D0009AE701F0A5FA97E7142284F8342083F301
:1014E00011882B462A4629462046FFF773FE85F3CE
:1014F00011880EE75DB1152284F8342083F311883A
:101500000021D4E90E232046FFF764FEFEE60B22FD
:1015100084F8342083F311882B462A462946204636
:10152000FFF76AFEE3E700BFA4330008A03300081A
:101530009C33000838B590F834300B2B044609D89A
:101540000B2B37D8DFE803F0083636363636083648
:10155000360D2737152B2DD12046BDE83840FFF733
:10156000D9BDC56BB0F84A309D4214D2C3681B8AFE
:10157000B5FBF3F203FB12556DB9302383F31188E9
:101580002B462A462946FFF737FE85F311880A23A2
:1015900084F834300EE0142384F83430302383F39D
:1015A000118800231A4619462046FFF713FE002330
:1015B00083F3118838BD036C03B19847A36823F007
:1015C0000113A3600023E363E2E7000010B590F885
:1015D0003430142B04461ED00CD8062B05D001D86D
:1015E0001BB110BD0A3B012BFBD82046BDE81040C3
:1015F000FFF790BD152BF4D10B2380F83430302346
:1016000083F3118800231A461946FFF7F5FD0023DE
:1016100083F31188E5E7C3689B695B68002BE0D121
:10162000036C03B19847A36823F00113A360002360
:10163000E36384F83430D4E70023037582680369D8
:101640001B6899689142FBD25A680360426010603F
:101650005860704700230375826803691B689968A6
:101660009142FBD85A68036042601060586070472E
:1016700008B50846302383F311880B7D032B05D072
:10168000042B0DD02BB983F3118808BD8B69002280
:101690001A604FF0FF338361FFF7CEFF0023F2E7BC
:1016A000D1E9003213605A60F3E70000FFF7C4BFCE
:1016B00038B50A4BDD681C68287522681A605360CB
:1016C000DC60A36801229342227501D100F0DEFCA8
:1016D00029462046BDE83840FEF714BEB02500205C
:1016E00030B50C4BDD684B1C87B004460FD02B4641
:1016F000094A684600F054F92046FFF7D9FF009BDD
:1017000013B1684600F056F9A86907B030BDFFF77D
:10171000CFFFF9E7B025002071160008044B1A68C6
:10172000DB6890689B68984294BF00200120704756
:10173000B025002038B50B4B1C68DD6822681A60A4
:10174000536001222275DC60AB68934201D100F046
:101750009FFC2846FFF77EFF01462046BDE8384043
:10176000FEF7D0BDB025002038B5074C0749084822
:10177000012300252370656001F06CFB02232370B8
:1017800085F3118838BD00BF08260020A833000863
:10179000B025002000F044B9034A516853685B1A31
:1017A0009842FBD8704700BF001000E08B60022316
:1017B00008618B82084670478368A3F1840243F86E
:1017C000142C026943F8442C426943F8402C094A1E
:1017D00043F8242CC26843F8182C022203F80C2C7E
:1017E000002203F80B2C044A43F8102CA3F120002C
:1017F000704700BF1D030008B025002008B5FFF7A3
:10180000DBFFBDE80840FFF751BF0000024BDB687B
:1018100098610F20FFF74CBFB0250020302383F3E1
:101820001188FFF7F3BF000008B50146302383F3AA
:1018300011880820FFF754FF002383F3118808BDA7
:10184000064BDB6839B1426818605A601360436028
:101850000420FFF745BF4FF0FF307047B025002050
:1018600003460068834205D002681A6053608161B4
:10187000FFF71CBF7047000038B504460D462068CE
:10188000844200D138BD036823605C608561FFF746
:101890000DFFF4E710B503689C68A2420CD85C68A1
:1018A0008A600B604C60216059609968891A996060
:1018B0004FF0FF33836010BD1B68121BECE7000084
:1018C0000A2938BF0A2170B504460D460A26601958
:1018D00001F0BAFA01F0A6FA041BA54203D8751C60
:1018E0002E460446F3E70A2E04D9BDE870400120D5
:1018F00001F0F0BA70BD0000F8B5144B1446D96180
:10190000826003F1100242600A2C1A69026038BF3B
:101910000A245060186108190D4601F087FA0A2759
:1019200001F080FA431BA342064606D37C1C28190B
:1019300001F08AFA27463546F2E70A2F04D9BDE8B6
:10194000F840012001F0C6BAF8BD00BFB025002064
:1019500070B50D46064601F065FA0F490B4653F87F
:10196000102F9A4206D12A4601463046BDE8704003
:10197000FFF7C2BFCB69C41A2C19936828BF2C4645
:10198000A34202D92946FFF79BFF2246314603486E
:10199000BDE87040FFF77EBFB0250020C0250020C5
:1019A00010B4C0E9032300235DF8044B4361FFF743
:1019B000CFBF000010B5194C236998420DD0D0E973
:1019C0000032816813605A609A680A449A60002362
:1019D00003604FF0FF33A36110BD2346026843F854
:1019E000102F53600022026022699A4203D1BDE8A1
:1019F000104001F023BA936881680B44936001F0B2
:101A000011FA2269E1699268441AA242E4D91144A8
:101A1000BDE81040091AFFF753BF00BFB0250020F2
:101A20002DE9F843284E294F356901F0FBF9F46997
:101A3000AA68011B8A423AD81444D5E90032F461FD
:101A400013605A6000232B603269BA42984601D174
:101A500001F0F4F988F31188D5E903312846984755
:101A6000302383F311886B69002BDDD001F0DAF9A4
:101A70006A69A0EB0408424581460CD2022001F0BD
:101A800029FA00223369BB4208D149462846BDE8FD
:101A9000F843FFF731BF2244121AF3E712EB0808AC
:101AA0000A4838BF42462946FFF7F4FEBBE73169D2
:101AB000B94207D01444211AF061A960BDE8F84387
:101AC000FFF7FEBEBDE8F883B0250020C02500204A
:101AD00000207047FEE70000704700004FF0FF3025
:101AE0007047000002290CD0032904D001290748BF
:101AF00018BF00207047032A05D8054800EBC20034
:101B00007047044870470020704700BF64340008E5
:101B1000182200201834000870B59AB0054608460F
:101B200001A9144600F0C0F801A8FFF7A7F8431C6C
:101B30001BB25B00C5E900340022237003236370ED
:101B4000C6B201AB02341046D1B28E4204F1020497
:101B500001D81AB070BD13F8011B04F8021C04F878
:101B6000010C0132F0E7000008B5302383F311883F
:101B70000348FFF747FA002383F3118808BD00BF2D
:101B8000A028002090F8443003F01F02012A07D15A
:101B900090F845200B2A03D10023C0E90E3315E04D
:101BA00003F06003202B08D1B0F848302BB990F82F
:101BB0004520212A03D81F2A04D8FFF701BA222A78
:101BC000EBD0FAE7034A82630722C2630364012071
:101BD000704700BF3822002010B50446052916D8EA
:101BE000DFE801F016150316161D302383F3118864
:101BF0000E4A0121FFF7CAFA20460D4A0221FFF7DB
:101C0000C5FA0C48FFF7C6F9002383F3118810BD0D
:101C1000302383F311880748FFF792F9F4E7302364
:101C200083F311880348FFF7A9F9EDE7F0330008C3
:101C3000CC330008A028002038B50B4C0B4D0A4AC5
:101C40000B490A48FFF768FF04F1CA0205F10800D2
:101C50000849FFF761FF04F5CA7205F11000064953
:101C6000BDE83840FFF758BF402600202022002062
:101C7000053300080F3300081A33000870B5044616
:101C800008460D46FEF7FAFFC6B220460134037837
:101C90000BB9184670BD32462946FEF7DBFF002817
:101CA000F3D10120F6E70000F8B505460C46FEF733
:101CB000E5FF2A4907462846FFF7E0FF2849064680
:101CC0002846FFF7DBFF06EB4606760006EB00161C
:101CD000F019C0B263281BD929462046BDE8F84058
:101CE00001F0E2BA252E34D11C4907222846FEF71E
:101CF000B1FF90B91B4B224603F10C0153F8040BC2
:101D000042F8040B8B42F9D11B78137007350D3460
:101D10002E78002EE6D12670F8BD114908222846FB
:101D2000FEF798FFA8B9104B1048114EA21C197865
:101D300009090232415C02F8041C13F8011B01F08E
:101D40000F01B342415C02F8031CF0D1183408358E
:101D5000DEE704F8016B0135DAE700BF2333000842
:101D60001A3300082B330008107AFF1F393300089C
:101D70001C7AFF1FBFF34F8F024AD368DB03FCD4EA
:101D8000704700BF003C024008B5094B1B7873B98F
:101D9000FFF7F0FF074B1A69002ABFBF064A5A60D7
:101DA00002F188325A601A6822F480621A6008BD13
:101DB000382D0020003C02402301674508B50B4B3D
:101DC0001B7893B9FFF7D6FF094B1A6942F000421E
:101DD0001A611A6842F480521A601A6822F480521A
:101DE0001A601A6842F480621A6008BD382D00201B
:101DF000003C02400B28F0B515D80C4C0C49237858
:101E000073B90C4D0E464FF00062013355F8047B58
:101E100046F8042BDBB20C2B3A44F6D10123237095
:101E200051F82000F0BD0020FCE700BF392D002054
:101E30003C2D002080340008014B53F820007047EF
:101E4000803400080C2070470B2810B5044601D9D7
:101E5000002010BDFFF7CEFF064B53F82430184486
:101E6000C21A0BB90120F4E712680132F0D1043B29
:101E7000F6E700BF803400080B2810B5044621D8CF
:101E8000FFF778FFFFF780FF0F4AF323D360C3000B
:101E9000DBB243F4007343F002031361136943F4AC
:101EA00080331361FFF766FFFFF7A4FF074B53F87A
:101EB000241000F0D3F8FFF781FF2046BDE8104062
:101EC000FFF7C2BF002010BD003C02408034000874
:101ED000F8B5D507144641D48318B3F1016F3DD846
:101EE0002B4B1B68DA0739D52A4FFFF74DFFF32339
:101EF000FB60FFF73FFF40F20126032C15D824F0CA
:101F00000104244D0C44401A40F20117A1422B69F0
:101F100001EB000624D123F001032B61FFF74EFFF4
:101F20000120F8BD043C0430E7E78307E7D13B69B3
:101F300023F440733B613B6933433B6151F8045BDD
:101F40000560BFF34F8FFFF715FF03689D42E9D08F
:101F50003B6923F001033B61FFF730FF0020E0E71E
:101F600023F440732B612B693B432B610B88338037
:101F7000BFF34F8FFFF7FEFE368831F8023BB6B253
:101F8000B342C3D02B6923F001032B61E4E700BF08
:101F900000380240003C0240084908B50B7828B1DF
:101FA0001BB9FFF7F1FE01230B7008BD002BFCD01D
:101FB000BDE808400870FFF701BF00BF382D0020C2
:101FC00010B50244054BD2B2904200D110BD441C62
:101FD00053F8200041F8040BE0B2F5E75028004028
:101FE0000F4B30B51C6F240407D41C6F44F40074ED
:101FF0001C671C6F44F400441C670A4C236843F4BC
:10200000807323600244084BD2B2904200D130BDAD
:1020100051F8045B43F82050441CE0B2F5E700BFE0
:1020200000380240007000405028004007B50122EF
:1020300001A90020FFF7C4FF019803B05DF804FB7D
:1020400013B50446FFF7F2FFA04205D0012201A913
:1020500000200194FFF7C4FF02B010BD70470000DC
:10206000034B1A681AB9034AD2F874281A607047E9
:102070006C2D00200030024008B5FFF7F1FF024B45
:10208000D878C0F3401008BD6C2D002070470000C8
:102090007047000070470000FEE70000084A094B47
:1020A00009498B4204D3094A0021934205D3704762
:1020B00052F8040B43F8040BF3E743F8041BF4E76E
:1020C00020360008E82D0020E82D0020E82D002013
:1020D00070B5D0E915439E6800224FF0FF3504EB40
:1020E00042135101D3F800090028BEBFD3F80009FC
:1020F00040F08040C3F80009D3F8000B0028BEBFB1
:10210000D3F8000B40F08040C3F8000B0132631895
:102110009642C3F80859C3F8085BE0D24FF00113A8
:10212000C4F81C3870BD00000E4AF0B5D2E9156342
:102130009F68002308321946012552F8040F58B150
:10214000846924B101F1100405FA04F423434069C1
:1021500010B105FA01F003430131B942EDD9C6F8D7
:102160001C38F0BD882D0020890141F0200101615B
:1021700003699B06FCD41220FFF70EBB08B5054887
:10218000FEF7E4FF034A4FF0A0435365024B93650B
:1021900008BD00BF882D0020B034000870B503785A
:1021A000012B054650D12A4B446D98421BD1294B37
:1021B0005A6B42F080025A635A6D42F080025A65AF
:1021C0005A6D5A6942F080025A615A6922F08002BF
:1021D0005A610E2143205B6900F04AFC1E4BE3600C
:1021E0001E4BC4F800380023C4F8003EC02323600F
:1021F0006E6D4FF40413A3633369002BFCDA0123E3
:1022000033610C20FFF7C8FA3369DB07FCD41220D6
:10221000FFF7C2FA3369002BFCDA0026A6602846D5
:10222000FFF756FF6B68C4F81068DB68C4F81468E1
:10223000C4F81C684BB90A4BA3614FF0FF336361CC
:10224000A36843F00103A36070BD064BF4E700BF31
:10225000882D002000380240401400400300200276
:10226000003C30C0083C30C0F8B5446D0546002144
:102270002046FFF779FFA96D00234FF001128F6808
:10228000C4F834384FF00066C4F81C284FF0FF3013
:1022900004EB431201339F42C2F80069C2F8006B9D
:1022A000C2F80809C2F8080BF2D20B686A6DEB6538
:1022B000636210231361166916F01006FBD1122019
:1022C000FFF76AFAD4F8003823F4FE63C4F8003844
:1022D000A36943F4402343F01003A3610123C4F82E
:1022E00010380923C4F814380A4BEB604FF0C04390
:1022F000C4F8103B084BC4F8003BC4F81069C4F89C
:102300000039EB6D03F1100243F48013EA65A36218
:10231000F8BD00BFBC34000840800010426D90F84A
:102320004E10D2F8003823F4FE6343EA0113C2F8DA
:102330000038704700EB81032DE9F047DA68456DFE
:10234000166806F00306731E804605EB4110022B4B
:102350004FF000030C464FEA81094FEA411AC0F8DA
:10236000103B01F110014FF0010398BFB60403FACE
:1023700001F391698EBF314E06F1805606F5004695
:1023800000293AD0508A04F158014901304368507D
:10239000D5F81C180B43AA44C5F81C380023CAF80A
:1023A000103953690127611EA7408BB3138A928BA2
:1023B0009B08012A88BF5343D8F85C20981842EA4A
:1023C000034201F1400305EB8303C8F85C0021469A
:1023D0005A602846FFF7C8FE08EB0900C3681B8A4D
:1023E00043EA84534834640133432B51D5F81C38F5
:1023F0003B43C5F81C38BDE8F087D0F8001B21F43A
:102400000041C0F8001BD5F81C1821EA0303C2E7FD
:1024100004F13F0305EB8303094A5A60214628462D
:10242000FFF7A2FEDAF8003923F40043CAF80039B6
:10243000D5F81C3823EA0703DBE700BF0080001053
:1024400000040002826D1268C265FFF741BE000001
:102450005831436D49015B5813F4004004D013F424
:10246000001F14BF01200220704700004831436D57
:1024700049015B5813F4004004D013F4001F14BF4B
:10248000012002207047000000EB8100C368196A38
:102490000B6813604B6853607047000000EB8103CA
:1024A00030B5DD68AB691A68DA6019B9402A84BFB3
:1024B00040221A606B8A5C1E1444B4FBF3F463433D
:1024C000426D033323F0030343EAC443480102EBA4
:1024D000411143F0C043C1F8103B2B6803F00303E4
:1024E000012B0CD1D2F8083813F4807FD1F8003BCF
:1024F00014BF43F0805343F00053C1F8003B024443
:10250000D2F8003B43F00443C2F8003B30BD00006A
:102510002DE9F041234D6E6D06EB40130446D3F8D0
:10252000087BC3F8087B38070AD5D6F81438190792
:1025300006D505EB84032146DB6828465B6898478F
:10254000FA071FD5D6F81438DB071BD505EB840333
:10255000D968CCB98B69488A5A68B2FBF0F600FB9F
:1025600016228AB91868DA6890420DD2121AC3E9A5
:102570000024302383F311880A482146FFF78EFF99
:1025800084F31188BDE8F0816B890122A24023EA1F
:1025900002036B81CB68002BF4D021460148BDE8D3
:1025A000F0411847882D002000EB810370B5DD68ED
:1025B000426D6C692368E360480133BB13184FF424
:1025C0000024C3F810492B6803F00303012B0DD13D
:1025D000D2F80838141813F4807FD4F8003914BFE7
:1025E00043F0805343F00053C4F800391044D0F84E
:1025F000003943F00443C0F80039D2F8340801230D
:102600008B400343C2F8343870BD19B9402B84BFE6
:10261000402323602E8A741E1C44B4FBF6F443EA64
:10262000C443141843F00053C4F81039CBE700003A
:102630002DE9F84F494D6F6D07EB40130446D3F871
:102640000889C3F8088918F0010F4FEA40161AD01C
:10265000D7F81038DB0716D505EB8003D9684B692E
:102660001868DA6890422FD2121A4FF000091A60E7
:10267000C3F80490302383F3118821462846FFF7DE
:1026800093FF89F3118818F0800F1BD0D7F83438E6
:102690000120A040034215D005EB84036D6DDF6877
:1026A00079690134E4B2D1F800C005EB043405EBDC
:1026B00006094E68664514D3D5F8343823EA00037A
:1026C000C5F83438BDE8F88F2B890122A24023EAEF
:1026D00002032B818B68002BD5D0214628469847D2
:1026E000D1E73A8AACEB0603934228BF1346D9F8E8
:1026F000182992B2B3EB820FE4D8D1F808E01A4659
:1027000003EB0E08032AA8EB020A1CD813F00302FD
:1027100014D023F0030B022A4FEA930AF34418D093
:10272000032A18D19BF8022012049BF801B042EA58
:102730000B221EF82AE04EEA020222603344C1F85E
:1027400008804B60B5E7DAF800A0C4F800A0043AAE
:10275000D8E70022E9E70022EBE700BF882D002040
:102760002DE9F74FAC4C656D4FF040084FF0010973
:102770006E69AB691E4016F480576E6107D0A6489B
:10278000FEF74CFD03B0BDE8F04F00F04FBC002E4B
:1027900014DAD5F8003E9B071EBFD5F8003E23F0A3
:1027A0000303C5F8003EFFF7BFFCD5F8043823F05B
:1027B0000103C5F804382046FEF75CFD300505D559
:1027C0002046FFF785FC2046FEF742FDB1040CD5FC
:1027D000D5F8083813F0060FEB6823F470530CBFDC
:1027E00043F4105343F4A053EB60320719D56368E8
:1027F000DB681BB9AB6923F00803AB612378052BB9
:1028000008D1D5F8003E23F00303C5F8003E20466A
:10281000FEF730FDFFF788FC6368DB680BB12046EC
:102820009847F3024AD4B00209D5D4F854B04FF017
:10283000000AA36D9B685FFA8AF18B4275D231035F
:10284000D5F818A800F18E80720317D51AF0010F81
:1028500002D00020FFF7ECFE1AF0020F02D0012098
:10286000FFF7E6FE1AF0040F02D00220FFF7E0FEA9
:102870001AF0080F02D00320FFF7DAFEF30640F14A
:10288000C680666D326AC2F30A1102F00F0302F4C9
:10289000F012B2F5802F00F08B80B2F5402F08D1F6
:1028A00004EB83030022DB681B6A06F58056914225
:1028B00072D1B8F101087FF45BAF63E7636D0193F8
:1028C0004FF0000BA36D9B685FFA8BFA5345AAD3B8
:1028D000019B03EB4A13D3F8001901F44021B1F531
:1028E000802F1FD1D3F8001900291BDAD3F8001963
:1028F00041F09041C3F80019D3F800190029FBDB1F
:102900005146606DFFF730FC238909FA0AF123EA8A
:102910000103238104EB8A03DB689B6813B15146F2
:10292000204698470BF1010BCCE70BEB4112D2F894
:10293000003B03F44023B3F5802F10D1D2F8003BC5
:10294000002B0CDA638909FA01F223EA020363819E
:1029500004EB8103DB68DB680BB1204698470AF182
:10296000010A66E71AF4803F02D00020FFF7D0FD8D
:102970001AF4003F02D00120FFF7CAFD1AF4802F9D
:1029800002D00220FFF7C4FD1AF4002F3FF45CAF21
:102990000320FFF7BDFD57E7900708BF3768072AF8
:1029A00098BF03F8017B02F1010298BF3F0A7EE75E
:1029B00003F1020E04EB8E024FF0000C5268906996
:1029C000D0E9003280689A1A06F58056614511D127
:1029D00004EB8E038A425B689B69D3E901608BBF7D
:1029E000401880188919921987BF986059609860BB
:1029F0005A605EE71CF0030F08BF3768624588BF66
:102A000000F8017B0CF1010C88BF3F0ADEE7034BA5
:102A10001E427FF44EAFB5E6882D00203000000442
:102A2000436D03EB4111D1F8003B43F40013C1F8AF
:102A3000003B7047436D03EB4111D1F8003943F47B
:102A40000013C1F800397047436D03EB4111D1F811
:102A5000003B23F40013C1F8003B7047436D03EBC8
:102A60004111D1F8003923F40013C1F8003970473F
:102A700000F1604303F561430901C9B283F8001313
:102A8000012200F01F039A4043099B0003F16043B9
:102A900003F56143C3F880211A60704730B5039C89
:102AA0000172043303FB0425C0E90653049B03634E
:102AB0000021059BC160C0E90000C0E90422C0E913
:102AC0000842C0E90A11436330BD0000416A002298
:102AD000C0E90411C0E90A22C2606FF00101FEF7EB
:102AE000CBBE0000D0E90432934201D1C2680AB9DA
:102AF000181D70470020704703691960C2680132D1
:102B0000C260C269134482690361934224BF436A6D
:102B100003610021FEF7A4BE38B504460D46E36804
:102B20003BB16269131D1268A3621344E362002083
:102B300007E0237A33B929462046FEF781FE0028B4
:102B4000EDDA38BD6FF00100FBE70000C368C26931
:102B5000013BC3604369134482694361934224BFCC
:102B6000436A436100238362036B03B118477047D4
:102B700070B53023044683F31188866A3EB9FFF7A7
:102B8000CBFF054618B186F31188284670BDA36AAD
:102B9000E26A13F8015BA362934202D32046FFF777
:102BA000D5FF002383F31188EFE700002DE9F84FEC
:102BB00004460F4691469A464FF0300888F3118834
:102BC0000026B346A56A4DB951462046FFF7A4FF3B
:102BD00020B185F311883046BDE8F88FD4E90A1595
:102BE000A9EB06036D1A9D4228BF1D46402D1AD938
:102BF0003B4601F1400251F8040B43F8040B9142AB
:102C0000F9D1A36A403740334036E26AA3629A4260
:102C100002D82046FFF79AFF8BF311884E45DAD28F
:102C200088F31188CEE738462A46FEF709F8A36AEA
:102C30002F442B442E44E8E710B5029C0172043364
:102C400003FB0421C0E906130023C0E90A33039BF8
:102C50000363049BC460C0E90000C0E90422C0E92A
:102C60000842436310BD0000026AC260426AC0E9C4
:102C700004220022C0E90A226FF00101FEF7FCBD28
:102C80000346D0E90420824201D1DB681BB950F829
:102C9000043B0B60704700231846FAE7C368C2691B
:102CA0000133C3604369134482694361934224BF83
:102CB000436A43610021FEF7D3BD000038B50446E6
:102CC0000D46E3683BB123691A1DA262E269134411
:102CD000E362002007E0237A33B929462046FEF755
:102CE000AFFD0028EDDA38BD6FF00100FBE7000012
:102CF00003691960C268013AC260C26913448269FB
:102D00000361934224BF436A036100238362036B20
:102D100003B118477047000070B530230D460446D4
:102D2000114683F31188866A2EB9FFF7C7FF10B1E9
:102D300086F3118870BDA36A1D70A36AE26A01332D
:102D40009342A36204D3E16920460439FFF7D0FF20
:102D5000002080F31188EDE72DE9F84F05460C4679
:102D600091469A464FF0300888F311880027BB46F9
:102D7000AE6A4EB951462846FFF7A0FF20B186F350
:102D800011883846BDE8F88FD5E90A06A9EB070394
:102D9000361A9E4228BF1E46402E1AD904F140031F
:102DA00054F8042B40F8042B9C42F9D1AB6A40370D
:102DB0004033EA6AAB629A4204D8E969284604398A
:102DC000FFF796FF8BF311884F45DAD288F311880D
:102DD000CEE721463246FDF733FFAB6A3444334435
:102DE0003744E6E7D0E904218A42034616D1C06899
:102DF000A8B1986A98B10438801A10D01060D968C8
:102E00000139D960D9690A4499691A618A4224BF93
:102E10005A6A1A6100229A620120704700207047A6
:102E200000F02EB94FF08043586A70474FF080434E
:102E3000002258631A610222DA6070474FF0804323
:102E40000022DA60704700004FF0804358637047FB
:102E5000FEE7000070B51B4B002586B00446856276
:102E600001630E46586000F0BDF804F11003C4E998
:102E700004334FF0FF33C4E90635C4E90044A560CC
:102E8000E562FFF7CFFF2B460246C4E9082304F1B1
:102E900034010D4A256580232046FEF787FC012377
:102EA000E0600A4A0375009272680192B268CDE947
:102EB0000223074B6846CDE90435FEF79FFC06B0B8
:102EC00070BD00BF082600204A3300084F330008B9
:102ED000512E0008024AD36A0343D362704700BFF1
:102EE000B02500204B6843608B688360CB68C3606B
:102EF0000B6943614B6903628B6943620B68036032
:102F00007047000008B5254B25481A6940F2FF11AB
:102F10000A431A611A696FF308021A611A691A6B77
:102F20000A431A631A6D0A431E491A651B6D0A4645
:102F3000FFF7D8FF1C3100F58060FFF7D3FF02F1E7
:102F4000380100F58060FFF7CDFF02F1540100F574
:102F50008060FFF7C7FF02F1700100F58060FFF7A6
:102F6000C1FF02F18C0100F58060FFF7BBFF02F1A9
:102F7000A80100F58060FFF7B5FF02F1C40100F57C
:102F80008060FFF7AFFF02F1E00100F58060FFF71E
:102F9000A9FFBDE8084000F0EFB800BF00380240CC
:102FA00000000240E034000808B500F06BF9FEF7BD
:102FB000DBFBFFF755F8BDE80840FEF73DBE00001B
:102FC00070470000EFF3098305494A6B22F00102C4
:102FD0004A63683383F30988002383F311887047B9
:102FE00000EF00E0302080F3118862B60C4B0D4AF0
:102FF000D96821F4E0610904090C0A43DA60D3F8C6
:10300000FC20094942F08072C3F8FC200A6842F0B3
:1030100001020A602022DA7783F82200704700BF9D
:1030200000ED00E00003FA05001000E010B53023C9
:1030300083F311880E4B5B6813F4006314D0F1EE38
:10304000103AEFF30984683C4FF08073E361094B59
:10305000DB6B236684F30988FEF760FB10B1064B37
:10306000A36110BD054BFBE783F31188F9E700BFAF
:1030700000ED00E000EF00E02F030008320300083D
:103080000F4B1A6C42F001021A641A6E42F00102F0
:103090001A660C4A1B6E936843F0010393604FF06D
:1030A000804353229A624FF0FF32DA6200229A6123
:1030B0005A63DA605A6001225A611A60704700BF91
:1030C00000380240002004E04FF0804208B511694A
:1030D000D3680B40D9B2C9439B07116107D5302390
:1030E00083F31188FEF756FB002383F3118808BD94
:1030F0001F4B1A696FEAC2526FEAD2521A611A69FB
:10310000C2F308021A614FF0FF301A695A69586118
:1031100000215A6959615A691A6A62F080521A622A
:103120001A6A02F080521A621A6A5A6A58625A6A15
:1031300059625A6A1A6C42F080521A641A6E42F04E
:1031400080521A661A6E0B4A106840F48070106044
:10315000186F00F44070B0F5007F1EBF4FF4803050
:1031600018671967536823F40073536000F086B83A
:103170000038024000700040334B4FF080521A6418
:10318000324A4FF4404111601A6842F001021A605D
:103190001A689107FCD59A6822F003029A602A4BBC
:1031A0009A6812F00C02FBD1196801F0F90119605C
:1031B0009A601A6842F480321A601A689203FCD549
:1031C0005A6F42F001025A671F4B5A6F9007FCD5A5
:1031D0001F4A5A601A6842F080721A601B4A53688C
:1031E0005904FCD5184B1A689201FCD5194A9A600B
:1031F000194B1A68194B9A42194B21D1194A116877
:10320000194A91421CD140F205121A60144A1368FF
:1032100003F00F03052BFAD10B4B9A6842F0020220
:103220009A609A6802F00C02082AFAD15A6C42F4A9
:1032300080425A645A6E42F480425A665B6E70470E
:1032400040F20572E1E700BF003802400070004024
:103250000854400700948838002004E011640020DE
:10326000003C024000ED00E041C20F4108B5FFF70D
:103270002BFFBDE80840FFF7D9BE000007211C2046
:10328000FFF7F6BB08B5FFF733FF00F00BF8FDF7CB
:103290005BFFFDF70DFEFFF793FEBDE80840FFF76B
:1032A000BFBD000070470000034611F8012B03F872
:1032B000012B002AF9D170471211000012130000EF
:1032C00012100000012033000010410001105A00CC
:1032D000031059000710310053544D3332463F3F1D
:1032E0003F0053544D3332463430780053544D33FD
:1032F00032463432780053544D33324634343658E3
:1033000058006330004172647550696C6F74002519
:10331000424F415244252D424C00255345524941CC
:103320004C250025424F4152442500466C79776F69
:103330006F4634303550726F0030313233343536A9
:10334000373839414243444546006D61696E006932
:10335000646C650000000000D8320008130400000F
:10336000E232000819040000EC32000821040000D9
:10337000F632000800000000250E0008110E0008BB
:103380004D0E0008390E0008450E0008310E0008E9
:103390001D0E0008090E0008A50E0008010000001F
:1033A000000000000000000002330008A0230020FD
:1033B000B0250020882D002001010200D91B000843
:1033C000E51A0008851B0008691B000803000000BF
:1033D00000000000111100080000000010000000B3
:1033E0001026002000000000010000000000000086
:1033F000020000000000000051100008C910000881
:10340000400040003026002020260020020000005E
:1034100000000000040309044300000020340008F9
:1034200009024300020100C0320904000001020247
:1034300001000524001001052401000104240202FA
:103440000524060001070582030800FF09040100A6
:10345000020A000000070501024000000705810282
:1034600040000000120000006C340008120110013E
:10347000020000400912415700020102030100004E
:10348000004000000040000000400000004000003C
:103490000000010000000200000002000000020025
:1034A0000000020000000200000002000000020014
:1034B0008000000040010000030000000000000048
:1034C0008D12000835150008CD1500084000400099
:1034D000782D0020782D002001000000702D0020A4
:1034E0000000842A00000000AAAAAAAA0000002462
:1034F000FFFD00000000000000A00A0040000011D5
:1035000000000000AAAAAAAA40000011FFFF0000C4
:1035100000000000000000000000000000000000AB
:10352000AAAAAAAA00000000FFFF000000000000F5
:10353000000000000000000000000000AAAAAAAAE3
:1035400000000000FFFF000000000000000000007D
:103550000000000000000000AAAAAAAA00000000C3
:10356000FFFF00000000000000000000000000005D
:1035700000000000AAAAAAAA00000000FFFF0000A5
:10358000000000000000000000000000000000003B
:10359000AAAAAAAA00000000FFFF00000000000085
:1035A0000000000000000000000000000A00000011
:1035B0000000000003000000000000000000000008
:1035C00000000000000000000000000000000000FB
:1035D000000000000000000000000000FFFFFFFFEF
:1035E000710400000000000000400F000000000017
:1035F000FF009600000000080400000014340008DA
:1036000000000000000000000000000000000000BA
:10361000000000000000000000960000000008000C
:00000001FF
