:020000040800F2
:1000000000060020E1020008E3020008E302000805
:10001000E3020008E3020008E3020008E30200082C
:10002000E3020008E3020008E3020008753100085B
:10003000E3020008E3020008E3020008E30200080C
:10004000E3020008E3020008E3020008E3020008FC
:10005000E3020008E3020008E3020008E3020008EC
:10006000E3020008E3020008E3020008BD110008F3
:10007000E5110008111200083D120008691200087D
:1000800091120008BD120008E3020008E302000814
:10009000E3020008E3020008E3020008E3020008AC
:1000A000E3020008E3020008E3020008E30200089C
:1000B000E3020008E3020008E3020008E30200088C
:1000C000E3020008E3020008E3020008E30200087C
:1000D000E3020008E3020008E3020008E30200086C
:1000E000E3020008E3020008E3020008E30200085C
:1000F000E3020008E3020008E3020008E912000836
:10010000E3020008E3020008F5490008E3020008E2
:10011000E3020008E3020008E3020008E30200082B
:10012000151300083D130008691300089513000813
:10013000C1130008E3020008E3020008E30200081C
:10014000E3020008E3020008E3020008E3020008FB
:10015000E91300081514000841140008E302000820
:10016000E3020008E3020008E3020008E3020008DB
:10017000E3020008E13D0008E3020008E302000892
:10018000E3020008E3020008E1490008E302000876
:10019000E3020008E3020008E3020008E3020008AB
:1001A000E3020008E3020008E3020008E30200089B
:1001B000E3020008E3020008E3020008E30200088B
:1001C000E3020008E3020008E3020008E30200087B
:1001D000E3020008CD3D0008E3020008E302000846
:1001E000E3020008E3020008E3020008E30200085B
:1001F000E3020008E3020008E3020008E30200084B
:10020000E3020008E3020008E3020008E30200083A
:10021000E3020008E3020008E3020008E30200082A
:10022000E3020008E3020008E3020008E30200081A
:10023000E3020008E3020008E3020008E30200080A
:10024000E3020008E3020008E3020008E3020008FA
:10025000E3020008E3020008E3020008E3020008EA
:10026000E3020008E3020008E3020008E3020008DA
:10027000E3020008E3020008E3020008E3020008CA
:10028000E3020008E3020008E3020008E3020008BA
:10029000E3020008E3020008E3020008E3020008AA
:1002A000E3020008E3020008E3020008E30200089A
:1002B000E3020008E3020008E3020008E30200088A
:1002C000E3020008E3020008E3020008E30200087A
:1002D000E3020008E3020008E3020008E30200086A
:1002E00002E000F000F8FEE772B6374880F30888B5
:1002F000364880F3098836483649086040F20000E5
:10030000CCF200004EF63471CEF200010860BFF36B
:100310004F8FBFF36F8F40F20000C0F2F0004EF637
:100320008851CEF200010860BFF34F8FBFF36F8F8B
:100330004FF00000E1EE100A4EF63C71CEF20001E3
:100340000860022080F31488BFF36F8F02F074FFFF
:1003500004F000F94FF055301F491B4A91423CBF51
:1003600041F8040BFAE71D49184A91423CBF41F895
:10037000040BFAE71A491B4A1B4B9A423EBF51F83D
:10038000040B42F8040BF8E700201849184A914280
:100390003CBF41F8040BFAE702F08CFF04F05CF973
:1003A000144C154DAC4203DA54F8041B8847F9E7A6
:1003B00000F042F8114C124DAC4203DA54F8041B21
:1003C0008847F9E702F074BF0006002000220020F1
:1003D0000000000808ED00E00000002000060020FA
:1003E000204F000800220020642200206822002004
:1003F00098480020E0020008E0020008E00200083F
:10040000E00200082DE9F04F2DED108AC1F80CD064
:10041000D0F80CD0BDEC108ABDE8F08F002383F338
:1004200011882846A047002002F06CF9FEE702F090
:10043000F1F800DFFEE7000038B500F043FC00F003
:100440000FFE02F053FE054602F086FE0446A8B9F0
:100450000E4B9D4215D001339D4214D041F2883598
:10046000002002F04DFE0CB100F076F800F08EFD99
:10047000284600F01FF900F06FF8F9E70025012485
:10048000EEE70546ECE70546F9E700BF010007B0D7
:1004900008B500F0E5FBA0F120035842584108BD23
:1004A00007B5042101900DEB010000F0F5FB03B04E
:1004B0005DF804FB38B5302383F3118817480368CF
:1004C0000BB102F0EBF90023154A4FF47A7113488F
:1004D00002F0DAF9002383F31188124C236813B178
:1004E0002368013B2360636813B16368013B636069
:1004F0000D4D2B7833B963687BB9022000F0ACFC5A
:10050000322363602B78032B07D163682BB9022059
:1005100000F0A2FC4FF47A73636038BD78230020AA
:10052000B50400086C23002074230020084B1870C9
:1005300003280CD8DFE800F008050208022000F0CC
:100540007BBC022000F066BC024B00225A60704760
:10055000742300206C230020F8B5504B504A1C46F1
:100560001968013100F0998004339342F8D1626830
:100570004C4B9A4240F291804B4B9B6803F10063D5
:1005800003F500339A4280F08880002000F0B4FB2D
:100590000220FFF7CBFF454B0021D3F8E820C3F83A
:1005A000E810D3F81021C3F81011D3F81021D3F8B4
:1005B000EC20C3F8EC10D3F81421C3F81411D3F8CD
:1005C0001421D3F8F020C3F8F010D3F81821C3F8A1
:1005D0001811D3F81821D3F8802042F00062C3F834
:1005E0008020D3F8802022F00062C3F88020D3F866
:1005F0008020D3F8802042F00072C3F88020D3F826
:10060000802022F00072C3F88020D3F8803072B6C8
:100610004FF0E023C3F8084DD4E90004BFF34F8F37
:10062000BFF36F8F224AC2F88410BFF34F8F536914
:1006300023F480335361BFF34F8FD2F8803043F6F9
:10064000E076C3F3C905C3F34E335B0103EA060C3E
:1006500029464CEA81770139C2F87472F9D2203BFD
:1006600013F1200FF2D1BFF34F8FBFF36F8FBFF3A2
:100670004F8FBFF36F8F536923F40033536100230F
:10068000C2F85032BFF34F8FBFF36F8F302383F325
:100690001188854680F308882047F8BD00000208CD
:1006A00020000208FFFF0108002200200044025839
:1006B00000ED00E02DE9F04F95B0DFF8E082202258
:1006C000FF21019004A8D8F8086000F009FCAA4AAC
:1006D0001378A3B90121A94811700360302383F373
:1006E000118803680BB102F0D9F80023A44A4FF433
:1006F0007A71A24802F0C8F8002383F31188019BA5
:1007000013B1A04B019A1A609F4A1378032B03D0B0
:10071000002313709B4A53604FF0000A019DD3469B
:100720005446D146012000F087FB25B1954B1B684C
:10073000002B00F02A82002000F092FA071EF4DB62
:10074000012000F067FBA7F121031F2BEAD801A2CB
:1007500052F823F0D5070008F10700086F080008D9
:1007600025070008250700082507000809090008D3
:10077000FD0A0008F10900084B0A0008710A000888
:10078000970A000825070008A90A0008CD0A0008F2
:10079000450B00085F08000825070008910B0008BA
:1007A0004B0900085F080008250700084B0A0008ED
:1007B0002507000825070008250700082507000869
:1007C0002507000825070008250700082507000859
:1007D0006F0800080220FFF75BFE002800F0B580DC
:1007E00000F0CAFB0BF00B0301240B2B72D1FDE0D0
:1007F0004FF47A7000F034FA071EC0F2A68002208F
:10080000FFF746FE002800F0A080013F052F00F210
:10081000E981DFE807F003070A0D10290520FFF73B
:100820003FFE14E0D8F80000F9E7D8F80400F6E736
:10083000D8F80800F3E74FF01C09484609F104090D
:1008400000F05CFAFFF72CFEB9F12C0FF5D1012373
:100850004FF00009BB404BEA03035FFA83FB00F053
:100860008BFB002C36D0BDE7D8F80C00D7E7002C66
:100870006BD00BF00B030B2B66D10220FFF708FEA9
:100880000446002860D001204FF0000A00F034FA3E
:100890000220FFF74BFEA7F140025342534102935F
:1008A0001FFA8AF7384600F037FA0546C0B9364BCA
:1008B00001222E4602201A7000F0ACFAD8F8083057
:1008C000B3421AD80026304BA2461E702D4B5E60F4
:1008D00000F052FB02212D4800F0DEF923467FE1B3
:1008E0000299384600F028FA0AF1010A0546002864
:1008F000D6D1A24602212648EEE7304600F0FEF9A6
:100900000130F6D10436D9E7FCB10BF00B030B2B09
:100910001AD10220FFF70AFE322000F0A1F9071ECB
:1009200012DB17F003030FD1BA19D8F808108A4266
:100930000AD8B7F5807F07D8164A9F420DDCC82039
:10094000FFF7A6FD044658BB0124019B0221124873
:10095000BAF1000F08BF1D46BEE74FF47A70CDE92B
:10096000023200F07DF90028EFDB039A029B02F8C7
:10097000010B0133E1E700BF68230020782300204A
:10098000B50400086C23002074230020084B0008E5
:10099000004B000868220020044B000800220020C1
:1009A0001F2E11D8C6F1200204AB26F003008F4998
:1009B000BA42184428BF3A46029200F071FA029AED
:1009C000FF218A4800F08CFABB10C7F387028749E1
:1009D0003046029300F08CFA074600288AD00422A1
:1009E000029B3C4613FB026600F0C6FA002571E745
:1009F0000220FFF74DFD0028A7D000F0BBF900282A
:100A0000A3D000273B4612E01F2F18D8049A0132CA
:100A100015D027F0030250326A4452F8400C0C9073
:100A2000042218460CA900F0B3FB04370346D8F89B
:100A30000820BA42E8D81846FFF732FD0FE73846DB
:100A4000029300F05BF9029BE9E7002364210CA804
:100A50000C9300F019F900287FF477AF0220FFF71C
:100A600017FD00283FF471AF0C9800F079F9E3E727
:100A7000002364210CA80C9300F006F900287FF4F1
:100A800064AF0220FFF704FD00283FF45EAF0C982E
:100A900000F068F9D0E70220FFF7FAFC00283FF4E5
:100AA00054AF00F077F9C7E70220FFF7F1FC002808
:100AB0003FF44BAF0CA9142000F072F90746FFF782
:100AC000EFFC39460CA800F0E7F8C8E60220FFF773
:100AD000DFFC00283FF439AF454B0CAF03F1100C9D
:100AE0001868083353F8041C3A46634503C2174696
:100AF000F6D11020FFF7D4FC1021E3E7322000F0FC
:100B0000AFF8071EFFF621AFBB077FF41EAF07EB60
:100B10000903D8F8082093423FF617AF0220FFF7E9
:100B2000B7FC00283FF411AF27F003074F44B94545
:100B30003FF495AE484609F1040900F0DFF8FFF7ED
:100B4000AFFCF4E74FF47A70FFF7A2FC00283FF403
:100B5000FCAE00F00FF900283FF4CCAE049B01334B
:100B60000CD0082204A9002000F0C2F900283FF4AC
:100B7000C1AE2022FF2104A800F0B2F91D480221D5
:100B800000F08AF81C4801F0C3FD15B0BDE8F08FF5
:100B9000002C3FF4DAAE0BF00B030B2B7FF4D5AE39
:100BA000002364210CA80C9300F06EF8074600287F
:100BB0007FF4CBAE0220FFF76BFC029000283FF4DD
:100BC000C4AE02210B4800F067F841F2883001F012
:100BD0009FFD0C9800F022FA3D4600F0CDF9029BF3
:100BE0001C469FE54FF00009AFE600BF68220020D9
:100BF0007C4A0008084B0008A08601002DE9F04758
:100C00004FF47A7706460D4600245743DFF84880B4
:100C1000DFF8489098F900305A1C01D0A3420FD158
:100C200059F824002A4631460368D3F820A03B46F1
:100C3000D047854204D1074B01201C70BDE8F087E6
:100C4000631C0124022BE5D14FF4FA7001F060FD22
:100C50000020F3E7C02300201022002014220020EF
:100C6000002307B5024601210DF107008DF807307A
:100C7000FFF7C4FF20B19DF8070003B05DF804FB47
:100C80004FF0FF30F9E700000A46042108B5FFF7EE
:100C9000B5FF013808BD0000074B0A4630B419788B
:100CA0000546064B53F8210029460368DC69044BCE
:100CB000A44630BC604700BFC0230020142200209F
:100CC000A086010070B50A4E00250A4C02F022F8F9
:100CD000308020683388834208D902F017F82368EF
:100CE00005440133B5F5003F2360F2D370BD00BF6A
:100CF000B8230020BC23002002F0ECB800F1006013
:100D000000F500300068704700F10060920000F5C7
:100D1000003002F05BB80000054B1A68054B1B88D9
:100D20009B1A834202D9104401F0F0BF00207047A3
:100D3000BC230020B823002038B50446074D29B154
:100D400028682044BDE8384001F0F8BF28682044F6
:100D500001F0E2FF0028F3D038BD00BFBC23002023
:100D60000020704700F1FF5000F58F10D0F8000808
:100D700070470000064991F8243033B1002308225F
:100D8000086A81F82430FFF7BFBF0120704700BF19
:100D900090230020014B1868704700BF0010005CD2
:100DA000194B1A4A70B51D68431E0420C5F30B0485
:100DB0000B442D0C013808D19942084610D3052464
:100DC000134A013C15D1401A70BD1688A6420ED1B7
:100DD00052680846013A9842F1D212F9014F1CB903
:100DE0002C2200F8012BEAE700F8014BF3E7083268
:100DF000E0E71688AE4204D198423CBF967800F8EE
:100E0000016B0432DDE700BF0010005C1C220020F3
:100E10000C4B0008022804D1054B4FF480329A6134
:100E200070470128FCD1034B4FF48002F7E700BF65
:100E30000004025800000258022803D1044B01228A
:100E40009A6170470128FCD1024B4022F8E700BFAD
:100E50000004025800000258022805D1064A5369CE
:100E600083F00103536170470128FCD1034A5369A1
:100E700083F04003F6E700BF000402580000025868
:100E800070B504464FF47A7604B970BD412C2546FE
:100E900028BF412506FB05F0641B01F039FCF3E790
:100EA000002310B5934200D110BDCC5CC454013373
:100EB000F8E70000013810B510F9013F3BB191F996
:100EC00000409C4203D11AB10131013AF4E71AB152
:100ED00091F90020981A10BD1046FCE7FFF7FEBFFD
:100EE00002440346934200D1704703F8011BF9E71F
:100EF0002DE9F0471F4D14460746894695F82420F2
:100F00009AB32B6A03EB820383422ED0FFF732FFA2
:100F100058BB0020BDE8F08795F824302BB920227B
:100F2000FF2114482F62FFF7DBFF95F824004946A4
:100F3000C0F1080805EB8000A04528BFA0464FEA95
:100F40008802FFF7ADFF95F824305FFA88F60FFAB4
:100F500088FAA41B1E4407EB8A07F6B209EB88093E
:100F6000082EE4B285F82460D0D0002CD4D1012022
:100F7000D0E700BF90230020024B1A78024B1A7072
:100F8000704700BFC02300201022002038B51D4B41
:100F90001A7812BB01221C4C1C481A7000F0C4FEC7
:100FA00021461A4800F0ECFE24684FF47A70D4F819
:100FB0009020D2F8043843F00203C2F80438FFF757
:100FC0005FFF1349204601F00DF8D4F89020D2F8C5
:100FD000043823F00203C2F804380E4D4FF4E13315
:100FE0000A4C28680C4AA042136002D0114600F057
:100FF000F5FD6868A04204D00749BDE8384000F01C
:10100000EDBD38BDDC2300209C4C0008D02D002015
:10101000A44C000814220020C4230020F8B50C4B77
:1010200005460C4E1F780C4B56F827209A420DD0DF
:101030000A4C002118222046FFF752FF214656F89D
:1010400027002560BDE8F84000F0C8BDF8BD00BF2E
:10105000C023002014220020D02D0020C423002013
:101060002DE9F04771B6464B01201D68454BB3F89A
:10107000008000231A46194600F088FA04468020B2
:1010800001F0C6FF074670B36CB33F4EADB24FF0F0
:10109000800A7369284643F0C0637361D6F814313F
:1010A00043F0C063C6F8143101F030FE05EB0802CE
:1010B00000FB05F34FF03D0C00FB02FE4FF4D06047
:1010C0009E4513D8204600F0A1FA384601F0D6FF1D
:1010D0002D4B5A6942F0C0625A61D3F8142142F094
:1010E000C062C3F8142161B6BDE8F08731694A01D6
:1010F0002CD4D6F81011490128D4226803F10061DC
:1011000091602168CF602168C1F804A0216808605F
:10111000D4F80090D9F8001041F00101C9F800108E
:10112000D4F80090D9F8001021F01E01C9F8001081
:10113000D4F80090D9F80010CA07FBD494F80C90AA
:10114000803362680CFA09F11160B9E70F4B9A6AB3
:1011500042F400729A629A6A42F400429A6261B65C
:101160000026012001F0B6FE464503D3002001F021
:10117000B1FEA7E7A819013601F0E0FDF4E700BFD2
:10118000BC230020B82300200020005200ED00E026
:1011900030B50A44084D914200D130BD11F8013BF1
:1011A0005840082340F30004013B2C4013F0FF0398
:1011B00084EA5000F6D1EEE72083B8ED08B5074B7E
:1011C000074A196801F03D01996053680BB19068B6
:1011D0009847BDE8084002F005B800BF0000024093
:1011E000E023002008B5084B1968890901F03D018A
:1011F0008A019A60054AD3680BB110699847BDE827
:10120000084001F0EFBF00BF00000240E0230020D3
:1012100008B5084B1968090C01F03D010A049A60F1
:10122000054A53690BB190699847BDE8084001F041
:10123000D9BF00BF00000240E023002008B5084BE2
:101240001968890D01F03D018A059A60054AD36944
:101250000BB1106A9847BDE8084001F0C3BF00BF5A
:1012600000000240E023002008B5074B074A5968F8
:1012700001F03D01D960536A0BB1906A9847BDE80F
:10128000084001F0AFBF00BF00000240E023002093
:1012900008B5084B5968890901F03D018A01DA60F7
:1012A000054AD36A0BB1106B9847BDE8084001F0BE
:1012B00099BF00BF00000240E023002008B5084BA2
:1012C0005968090C01F03D010A04DA60054A536BC4
:1012D0000BB1906B9847BDE8084001F083BF00BF99
:1012E00000000240E023002008B5084B5968890D32
:1012F00001F03D018A05DA60054AD36B0BB1106C31
:101300009847BDE8084001F06DBF00BF00000240F3
:10131000E023002008B5074B074A196801F03D019A
:101320009960536C0BB1906C9847BDE8084001F090
:1013300059BF00BF00040240E023002008B5084B5D
:101340001968890901F03D018A019A60054AD36C48
:101350000BB1106D9847BDE8084001F043BF00BFD6
:1013600000040240E023002008B5084B1968090C6E
:1013700001F03D010A049A60054A536D0BB1906D6E
:101380009847BDE8084001F02DBF00BF00040240AF
:10139000E023002008B5084B1968890D01F03D01D4
:1013A0008A059A60054AD36D0BB1106E9847BDE867
:1013B000084001F017BF00BF00040240E0230020F6
:1013C00008B5074B074A596801F03D01D960536ED3
:1013D0000BB1906E9847BDE8084001F003BF00BF15
:1013E00000040240E023002008B5084B5968890931
:1013F00001F03D018A01DA60054AD36E0BB1106F2E
:101400009847BDE8084001F0EDBE00BF000402406F
:10141000E023002008B5084B5968090C01F03D0194
:101420000A04DA60054A536F0BB1906F9847BDE824
:10143000084001F0D7BE00BF00040240E0230020B6
:1014400008B5084B5968890D01F03D018A05DA603D
:10145000054AD36F13B1D2F880009847BDE8084021
:1014600001F0C0BE00040240E023002000230C4A2B
:1014700010B519460B4C42F8043B54F823000160A8
:1014800042F813100433402BF7D1074A4FF0FF33D3
:101490009360D360C2F80834C2F80C3410BD00BFAA
:1014A000E02300201C4B00080000024011282DE919
:1014B000F041884611D004D8102810D10F24002004
:1014C00003E0122807D10F2407202D4F4FF0010C05
:1014D0003D68A04205D900203BE00724EFE7044621
:1014E000F3E70CFA00F6354248D107EBC004354368
:1014F000C4E90123F3B23D606BBB224BD3F8D84063
:1015000044F00204C3F8D840D3F8004144F0020488
:10151000C3F80041D3F8003105011B4C635918682A
:1015200020F01F001860186810F00100FBD1661948
:101530004FF03D0C96F80CE071680CFA0EF70F6056
:101540001860212058611AB14146B07B00F074F94F
:101550006019BDE8F0810B4B16F47F4FD3F8D840EB
:1015600044F00104C3F8D840D3F8004144F001042A
:10157000C3F80041D3F80031CED0BEE70130A8E770
:10158000E0230020004402581C4B000810B5302412
:1015900084F31188FFF78AFF002383F3118810BDBD
:1015A00010B50446807B00F05DF91649637B01228B
:1015B0009A400B6823EA0203DAB20B6072B9124A4E
:1015C000D2F8D81021F00101C2F8D810D2F80011D9
:1015D00021F00101C2F80011D2F8002113F47F4F6D
:1015E0000ED1094BD3F8D82022F00202C3F8D8203C
:1015F000D3F8002122F00202C3F80021D3F8003111
:1016000010BD00BFE02300200044025808B530237D
:1016100083F31188FFF7C4FF002383F3118808BD0B
:10162000026843680A43026003B11847704700002C
:10163000024A136843F0C00313607047007800400B
:1016400013B50E4C204600F0BDFA04F1140000233F
:101650004FF400720A49009400F07AF9094B4FF4F4
:101660000072094904F13800009400F0F3F9074AC8
:10167000074BC4E9172302B010BD00BF6428002047
:101680006426002031160008642400200078004001
:1016900000E1F505264B30B5002914BF0C461C4669
:1016A000037C012B11D1234B98420ED1224BD3F84E
:1016B000E82042F08042C3F8E820D3F8102142F03D
:1016C0008042C3F81021D3F810312268036EC16D37
:1016D00003EB52038466B3FBF2F36268150442BF66
:1016E00023F0070503F0070343EA4503CB60A36833
:1016F00043F040034B60E36843F001038B6042F426
:10170000967343F001030B604FF0FF330B625105FA
:101710000AD512F0102209D0B2F1805F14BFFF2366
:101720003F2380F8643030BDFF23FAE77F23F8E7DA
:101730001C4C000864280020004402582DE9F047A2
:10174000C66D0446F5692B07356214D06901AF07F1
:101750004FF0300301F4907148BF41F04001680739
:1017600048BF41F0800183F31188201DFFF758FF27
:10177000002383F31188EA050AD5302383F3118807
:101780004FF48061201DFFF74BFF002383F3118886
:1017900030274FF000090BE087F31188736A204669
:1017A00094F86410194000F027FA89F31188F5695C
:1017B00015F02008F0D137683B0615D54FF0300AF8
:1017C00004F1380928060FD58AF31188484600F03D
:1017D00075F9002828DA0821201DFFF721FF27F0DE
:1017E0008007002383F31188790613D56A0611D583
:1017F000302383F31188D4E913239A4207D1236C51
:101800002BB127F040071021201DFFF709FF00230F
:1018100083F31188EB0637600BD5A26E136943B1D1
:101820005069BDE8F0471847B06288F31188F56940
:10183000C8E7BDE8F0870000090100F1604301221C
:1018400003F56143C9B283F8001300F01F039A4007
:1018500043099B0003F1604303F56143C3F8802112
:101860001A60704700F01F0301229A40430900F1FB
:1018700060409B0000F5614003F1604303F5614364
:10188000C3F88020C3F88021002380F8003370471C
:10189000F8B51546826804460B46AA4200D2856810
:1018A000A1692669761AB5420BD22A461846FFF777
:1018B000F7FAA2692A44A3682846A2615B1BA360C9
:1018C000F8BD0CD9AF1B18463246FFF7E9FA3A4685
:1018D000E1683044FFF7E4FAE368DA19EBE72A46F7
:1018E0001846FFF7DDFAE268E5E7000083689342F7
:1018F0002DE9F04104460E46154600D28568D4E92C
:1019000004703F1ABD420CD22A463146FFF7C8FA8E
:1019100062692A44A368284662615B1BA360BDE834
:10192000F0810ED9A5EB07083A463146FFF7B8FA21
:101930004246F119E068FFF7B3FAE36803EB0802E7
:10194000E8E72A463146FFF7ABFAE268E2E7000033
:1019500010B50024C160C361029B84600362C0E9CA
:1019600005111144C0E90000016110BD08B5D0E9BE
:101970000532934201D1826882B982680132826065
:101980005A1C426119700021D0E904329A4224BFE6
:10199000C368436100F0D8FE002008BD4FF0FF305F
:1019A000FBE7000070B5302304460D4683F3118831
:1019B000A668A6B1A368A269013BA360531CA361FA
:1019C00015782269934224BFE368A361E3690BB1F0
:1019D00020469847002383F31188284607E02946CC
:1019E000204600F0A1FE0028E2DA86F3118870BDDF
:1019F0002DE9F74F05460F4614469946D0F81CA02E
:101A00004FF0300888F311884FF0000B164666B18E
:101A1000324639462846FFF73BFF034660B9494640
:101A2000284600F081FE0028F2D0002383F31188BD
:101A3000A01B03B0BDE8F08FBAF1000F03D00190F6
:101A40002846D047019B8BF31188F61A1F4488F370
:101A50001188DCE7C160C361009B82600362C0E95A
:101A600005111144C0E9000001617047F8B5044652
:101A70000D461646302383F31188A768A7B1A368E3
:101A8000013BA36063695A1C62611D70D4E9043292
:101A90009A4224BFE3686361E3690BB1204698472B
:101AA000002080F3118807E03146204600F03CFE1C
:101AB0000028E2DA87F31188F8BD0000D0E9052399
:101AC00010B59A4201D182687AB982680021013248
:101AD00082605A1C82611C7803699A4224BFC368E1
:101AE000836100F031FE204610BD4FF0FF30FBE770
:101AF0002DE9F74F05460F4614469946D0F81CA02D
:101B00004FF0300888F311884FF0000B164666B18D
:101B1000324639462846FFF7E9FE034660B9494692
:101B2000284600F001FE0028F2D0002383F311883C
:101B3000A01B03B0BDE8F08FBAF1000F03D00190F5
:101B40002846D047019B8BF31188F61A1F4488F36F
:101B50001188DCE7026843680A43026003B1184752
:101B6000704700001430FFF743BF00004FF0FF3311
:101B70001430FFF73DBF00003830FFF7B9BF000059
:101B80004FF0FF333830FFF7B3BF00001430FFF7DA
:101B900009BF00004FF0FF311430FFF703BF000012
:101BA0003830FFF763BF00004FF0FF323830FFF7E7
:101BB0005DBF0000012914BF6FF0130000207047C3
:101BC000FFF73EBD044B036000234360C0E90233CE
:101BD00001230374704700BF344C000810B5302354
:101BE000044683F31188FFF755FD02230020237478
:101BF00080F3118810BD000038B5C36904460D4656
:101C00001BB904210844FFF7A5FF294604F114007D
:101C1000FFF7ACFE002806DA201D4FF40061BDE896
:101C20003840FFF797BF38BD026843680A43026037
:101C300003B118477047000013B5406B00F580549E
:101C4000D4F8A4381A681178042914D1017C022927
:101C500011D11979012312898B4013420BD101A9AB
:101C60004C3002F0E9F9D4F8A4480246019B2179EE
:101C7000206800F007FA02B010BD0000143002F036
:101C800071B900004FF0FF33143002F06BB900005F
:101C90004C3002F03DBA00004FF0FF334C3002F000
:101CA00037BA0000143002F03FB900004FF0FF31A6
:101CB000143002F039B900004C3002F009BA0000CB
:101CC0004FF0FF324C3002F003BA000010B500F5BF
:101CD0008054D4F8A4381A681178042917D1017CEB
:101CE000022914D15979012352898B4013420ED114
:101CF000143002F0D3F8024648B1D4F8A4084FF4E7
:101D0000407341790068BDE8104000F0A9B910BDEA
:101D1000406BFFF7DBBF000000290CBF6FF0130022
:101D200000207047704700007FB5124B0125042644
:101D3000044603600023057400F1840243602946D1
:101D4000C0E902330C4B0290143001934FF44073FE
:101D5000009602F07FF8094B04F69442294604F1FC
:101D60004C000294CDE900634FF4407302F040F957
:101D700004B070BD5C4C0008111D0008391C00083F
:101D8000302383F311880B790A680B3342F8230060
:101D90004B79133342F823008B7913B10B3342F89C
:101DA000230000F58053C3F8A41802230374002015
:101DB00080F311887047000038B5037F044613B1E3
:101DC00090F85430ABB90125201D0221FFF72CFFFC
:101DD00004F114006FF00101257700F0C1FC04F15B
:101DE0004C0084F854506FF00101BDE8384000F019
:101DF000B7BC38BD10B5012104460430FFF714FF0D
:101E00000023237784F8543010BD000038B5044611
:101E10000025143002F036F804F14C00257702F06A
:101E2000FFF8201D84F854500121FFF7FDFE2046E5
:101E3000BDE83840FFF74ABF90F88020034602F023
:101E40006002202A14D190F881200020212A02D893
:101E50001F2A03D87047222A07D07047054A5A67BD
:101E600007229A67D86701207047C3E91D00F9E788
:101E7000002070473422002037B500F58055D5F892
:101E8000A4381A68117804291AD1017C022917D1C3
:101E90001979012312898B40134211D100F14C04AE
:101EA000204602F07BF958B101A9204602F0C4F89F
:101EB000D5F8A4480246019B2179206800F0E2F899
:101EC00003B030BD2DE9F34104460D4621B301F1C5
:101ED0000B0350F82360FEB1302383F3118800EB2D
:101EE000810706F14C08FB685B691B6833B140460B
:101EF00002F0B0F80821301DFFF796FE01A9404618
:101F000002F09AF8024650B1019B2946204600F0A3
:101F1000B9F8002383F3118802B0BDE8F081FB68B3
:101F20005A69126832B11B8A013B134002D104F195
:101F30008002EAE71021301DFFF776FEE9E7000096
:101F400038B509B3133150F82140ECB1302383F395
:101F5000118804F58053D3F8A4281368527903EB51
:101F60008203DB689B695D6845B104216018FFF757
:101F70005BFE294604F1140001F09AFF2046FFF7AA
:101F8000A5FE002383F3118838BD000070470000D0
:101F900010B50446002101F039FF0021204601F070
:101FA00029FF63681B6813B1062120469847A36880
:101FB00023F00113A3600023A367062384F8703085
:101FC00010BD000001F024BA01234022002110B509
:101FD000044600F8303BFEF783FF0023C4E90133D9
:101FE00010BD000010B53023044683F3118824226D
:101FF000416000210C30FEF773FF204601F02AFA01
:1020000002230020237080F3118810BD70B500EB0F
:102010008103054650690E461446DA6018B1102255
:102020000021FEF75DFFA06918B110220021FEF724
:1020300057FF31462846BDE8704001F013BB000051
:1020400083682022002103F0011310B50446836049
:102050001030FEF745FF2046BDE8104001F08ABB76
:10206000F0B4012500EB810447898D40E4683D43CD
:10207000A469458123600023A2606360F0BC01F085
:10208000A7BB0000F0B4012500EB810407898D4057
:10209000E4683D436469058123600023A2606360B6
:1020A000F0BC01F019BC000070B502230025044605
:1020B000242203702946C0F888500C30C56640F8C9
:1020C000045CFEF70DFF204684F8705001F05CFAC6
:1020D00063681B6823B129462046BDE87040184755
:1020E00070BD00000378052B10B504460AD080F8B7
:1020F0008C300523037043681B680BB1042198479B
:102100000023A36010BD00000178052906D190F8D6
:102110008C20436802701B6803B1184770470000A9
:1021200070B590F8703004463BB1836823F001131A
:1021300083600023836780F8703004F180020021FF
:10214000204601F03BFB63689B684BB994F88030F4
:1021500013F0600528D02046BDE87040FFF718BF97
:10216000204698470028F1D0B4F88630A56F9D42EC
:1021700084BF1D46A36794F98030002B4FF03003D5
:1021800080F20281002D00F0F180092284F8702095
:1021900083F3118800212046D4E91D23FFF772FF45
:1021A000002383F3118870BD94F8812003F07F032E
:1021B00043EA022340F20232934200F0C48021D865
:1021C000B3F5807F47D00DD8012B3ED0022B00F015
:1021D0009280002BBFD104F1880262670222A267BD
:1021E000E367C1E7B3F5817F00F09A80B3F5407FE4
:1021F000B1D194F88230012BADD1B4F8883043F0DE
:10220000020331E0B3F5006F4CD017D8B3F5A06FDF
:1022100030D0A3F5C063012B9DD86368204694F8A5
:1022200082205E6894F88310B4F88430B0470028A8
:1022300091D0436863670368A36719E0B3F5106F33
:1022400035D040F60242934285D15C4B636702234E
:10225000A3670023C4E794F88230012B7FF47BAF9F
:10226000B4F8883023F00203A4F88830C4E91D557F
:10227000E56779E7B4F88030B3F5A06F0ED194F834
:102280008230204684F88A3001F0DEF963681B68EA
:1022900013B1012120469847032323700023C4E98A
:1022A0001D339DE704F18B0363670123C4E72378A3
:1022B000042B10D1302383F311882046FFF7C0FE92
:1022C00085F311880321636884F88B5021701B68A3
:1022D0000BB12046984794F88230002BDED084F86A
:1022E0008B300423237063681B68002BD6D0022137
:1022F00020469847D2E794F8843020461D0603F024
:102300000F010AD501F04CFA012804D002287FF40D
:1023100022AF2B4B9AE72B4B98E701F033FAF3E708
:1023200094F88230002B7FF416AF94F8843013F0C9
:102330000F01B3D01A06204602D501F07FFDADE7AC
:1023400001F070FDAAE794F88230002B7FF403AF10
:1023500094F8843013F00F01A0D01B06204602D55C
:1023600001F054FD9AE701F045FD97E7142284F847
:10237000702083F311882B462A4629462046FFF712
:102380006FFE85F311880EE75DB1152284F8702089
:1023900083F3118800212046D4E91D23FFF760FE56
:1023A000FEE60B2284F8702083F311882B462A4620
:1023B00029462046FFF766FEE3E700BF8C4C000885
:1023C000884C0008844C000838B590F870300446FA
:1023D0000B2B09D80B2B37D8DFE803F0083636363D
:1023E00036360836360D2737152B2DD12046BDE859
:1023F0003840FFF7CDBD856FB0F886309D4214D2CE
:10240000C3681B8AB5FBF3F203FB12556DB9302389
:1024100083F311882B462A462946FFF733FE85F3BE
:1024200011880A2384F870300EE0142384F8703089
:10243000302383F31188002320461A461946FFF7FC
:102440000FFE002383F3118838BDC36F03B1984793
:10245000A36823F00113A3600023A367E2E7000051
:1024600010B590F870300446142B1ED00CD8062BF3
:1024700005D001D81BB110BD0A3B012BFBD820466B
:10248000BDE81040FFF784BD152BF4D10B2380F875
:102490007030302383F3118800231A461946FFF762
:1024A000F1FD002383F31188E5E7C3689B695B684E
:1024B000002BE0D1C36F03B19847A36823F0011349
:1024C000A3600023A36784F87030D4E700238268F8
:1024D000037503691B6899689142FBD25A680360CF
:1024E000426010605860704700238268037503697A
:1024F0001B6899689142FBD85A680360426010607B
:102500005860704708B50846302383F311880A7D68
:102510000023052A06D8DFE802F00B050503120E9A
:10252000826913604FF0FF338361FFF7CFFF002311
:1025300083F3118808BD8269936801339360D0E901
:10254000003213605A60EDE7FFF7C0BF38B50A4BA1
:102550001C68DD682875226853601A600122DC60FF
:10256000A3682275934201D100F000FE294620465F
:10257000BDE83840FDF746BFE02A00200C4B30B5DF
:10258000DD684B1C87B004460FD02B46094A6846CD
:1025900000F07AF92046FFF7D9FF009B13B1684697
:1025A00000F07CF9A86907B030BDFFF7CFFFF9E76D
:1025B000E02A00200525000870B50F4E0446816111
:1025C000F36881689A68914203D8BDE87040FFF7CC
:1025D0007DBF1846FFF788FF83680546012B01D1B0
:1025E00000F0C6FD012329462046F4602375BDE8AE
:1025F0007040FDF707BF00BFE02A0020044B1A68B7
:10260000DB6890689B68984294BF00200120704767
:10261000E02A002038B50B4B1C68DD682268536047
:102620001A600122DC602275AB68934201D100F090
:102630009FFD2846FFF758FF01462046BDE8384079
:10264000FDF7E0BEE02A002038B50123084C002544
:102650002370656001F0DEFD01F008FE05490648C3
:1026600001F0E4FE0223237085F3118838BD00BF1A
:10267000382B0020904C0008E02A002000F044B9DC
:10268000034A516853685B1A9842FBD8704700BFF1
:10269000001000E08B600223086108468B827047BF
:1026A0008368A3F1840243F8142C026943F8442C94
:1026B000426943F8402C094A43F8242CC268A3F12C
:1026C000200043F8182C022203F80C2C002203F8F7
:1026D0000B2C034A43F8102C704700BF1D04000860
:1026E000E02A002008B5FFF7DBFFBDE80840FFF750
:1026F0002BBF0000024BDB6898610F20FFF726BF5D
:10270000E02A0020302383F31188FFF7F3BF000095
:1027100008B50146302383F311880820FFF72EFF08
:10272000002383F3118808BD064BDB6839B142688A
:1027300018605A60136043600420FFF71FBF4FF01A
:10274000FF307047E02A002003460068834205D02E
:1027500002681A6053608161FFF7F6BE704700009F
:1027600038B504460D462068844200D138BD036860
:1027700023605C608561FFF7E7FEF4E7036810B54E
:102780009C68A2420CD85C680B608A604C60216037
:1027900059609968891A99604FF0FF33836010BDC2
:1027A000121B1B68ECE700000A2938BF0A2170B52C
:1027B00004460D460A26601901F026FD01F00EFDC3
:1027C000041BA54203D8751C04462E46F3E70A2EC7
:1027D00004D90120BDE8704001F068BE70BD000062
:1027E000F8B5144B14460A270D46D9610A2C8260AD
:1027F00003F1100238BF0A2442601A690260506077
:102800001861081901F0F0FC01F0E8FC431B0646D2
:10281000A34206D37C1C28192746354601F0F4FC58
:10282000F2E70A2F04D90120BDE8F84001F03EBECE
:10283000F8BD00BFE02A002070B50D46064601F045
:10284000CDFC0F490B4653F8102F9A4206D12A4669
:1028500001463046BDE87040FFF7C2BFCB69C41ADD
:1028600093682C1928BF2C46A34202D92946FFF7AA
:102870009BFF224631460348BDE87040FFF77EBF0C
:10288000E02A0020F02A002010B4C0E9032300232E
:102890005DF8044B4361FFF7CFBF000010B5194C42
:1028A000236998420DD08168D0E9003213605A60E4
:1028B0009A680A449A60002303604FF0FF33A361D3
:1028C00010BD0268234643F8102F536000220260B7
:1028D00022699A4203D1BDE8104001F08FBC936891
:1028E00081680B44936001F079FC2269E169926888
:1028F000441AA242E4D91144BDE81040091AFFF776
:1029000053BF00BFE02A00202DE9F843284E294F8D
:10291000356901F063FCF469AA68011B8A423AD860
:102920001444D5E90032F46113605A6000232B602F
:1029300098463269BA4201D101F060FC88F31188EF
:10294000D5E9033128469847302383F311886B6912
:10295000002BDDD001F042FC6A69A0EB040881463F
:1029600042450CD2022001F0A1FD00223369BB4296
:1029700008D149462846BDE8F843FFF731BF224455
:10298000121AF3E712EB080829460A4838BF4246F4
:10299000FFF7F4FEBBE73169B94207D01444F06198
:1029A000211AA960BDE8F843FFF7FEBEBDE8F88331
:1029B000E02A0020F02A002000207047FEE70000F7
:1029C000704700004FF0FF307047000002290CD024
:1029D000032904D00129074818BF00207047032AA3
:1029E00005D8054800EBC200704704487047002036
:1029F000704700BF4C4D00083C220020004D0008ED
:102A000070B59AB005460846144601A900F0C0F812
:102A100001A8FEF763FA431C0022C6B21BB210469F
:102A20005B00C5E9003423700323023404F8013C41
:102A300001ABD1B202348E4201D81AB070BD13F886
:102A4000011B013204F8010C04F8021CF1E700003C
:102A500008B5302383F311880348FFF70DFA0023EC
:102A600083F3118808BD00BFD02D002090F880307E
:102A700003F01F02012A07D190F881200B2A03D10D
:102A80000023C0E91D3315E003F06003202B08D1BB
:102A9000B0F884302BB990F88120212A03D81F2A5E
:102AA00004D8FFF7C9B9222AEBD0FAE7034A4267F4
:102AB00007228267C3670120704700BF5C220020A5
:102AC00010B50446052916D8DFE801F016150316DF
:102AD000161D302383F311880E4A0121FFF796FA61
:102AE00020460D4A0221FFF791FA0C48FFF78EF9B4
:102AF000002383F3118810BD302383F31188074826
:102B0000FFF75AF9F4E7302383F311880348FFF7FE
:102B100071F9EDE7D84C0008B44C0008D02D002026
:102B200038B50B4C0B4D0A4A0B490A48FFF768FFB2
:102B300004F1CA0205F108000849FFF761FF04F536
:102B4000CA7205F110000649BDE83840FFF758BFCA
:102B5000702B002044220020BB4A0008BF4A000816
:102B6000CA4A000870B5044608460D46FEF7B6F995
:102B7000C6B22046013403780BB9184670BD324600
:102B80002946FEF797F90028F3D10120F6E7000067
:102B900070B505460C46FEF7A1F9064625492846BC
:102BA000FFF7E0FF30442449C6B22846FFF7DAFFBA
:102BB00006EB0016F6B2632E16D929462046BDE86C
:102BC000704001F053BF252E2FD107221949284606
:102BD000FEF770F968B9194A07350834136844F8E4
:102BE000083C536844F8043C2E78002EEBD1267044
:102BF00070BD082210492846FEF75CF9A8B9A21C4E
:102C00000F4B1048104E197802320909415C02F846
:102C1000041C13F8011B01F00F01B342415C02F8E0
:102C2000031CF0D118340835DEE7013504F8016BD8
:102C3000DAE700BFD34A0008CA4A0008DB4A0008A6
:102C400000E8F11FE44A00080CE8F11FBFF34F8FC2
:102C5000044B1A695107FCD1D3F810215207F8D15F
:102C6000704700BF0020005208B50D4B1B78ABB970
:102C7000FFF7ECFF0B4BDA68D10704D50A4A5A601C
:102C800002F188325A60D3F80C21D20706D5064AE1
:102C9000C3F8042102F18832C3F8042108BD00BF43
:102CA00078460020002000522301674508B5114BEB
:102CB0001B78F3B9104B1A69510703D5DA6842F053
:102CC0004002DA60D3F81021520705D5D3F80C2161
:102CD00042F04002C3F80C21FFF7B8FF064BDA6858
:102CE00042F00102DA60D3F80C2142F00102C3F88D
:102CF0000C2108BD78460020002000520F289ABF02
:102D000000F5806040040020704700004FF4003060
:102D100070470000102070470F2808B50BD8FFF748
:102D2000EDFF00F500330268013204D10430834224
:102D3000F9D1012008BD0020FCE700000F2838B5BC
:102D400005463FD8FFF782FF1F4CFFF78DFF4FF07E
:102D5000FF3307286361C4F814311DD82361FFF7DE
:102D600075FF030243F02403E360E36843F080034C
:102D7000E36023695A07FCD42846FFF767FFFFF793
:102D8000BDFF4FF4003100F0C9F92846FFF78EFF70
:102D9000BDE83840FFF7C0BFC4F81031FFF756FF59
:102DA000A0F108031B0243F02403C4F80C31D4F84B
:102DB0000C3143F08003C4F80C31D4F810315B07B8
:102DC000FBD4D9E7002038BD002000522DE9F74F91
:102DD00004468846104644EA0203DB0603D000207E
:102DE00003B0BDE8F08F20F01F00334D334EFFF7E6
:102DF0003BFF08EB000A324FD04503D10120FFF71B
:102E000055FFEDE720224146204601F01FFE18B98C
:102E1000203408F12008EFE7234604F12002196866
:102E20000131DCD104339342F9D104F17843B3F595
:102E3000801F35BF234A2A462348384634BFDFF86F
:102E400090B0B3460192FFF701FF4FF0FF33A4EBC0
:102E5000080E08F11C0C019ACBF80030036843F00F
:102E600002030360A8F10403116811F00509FBD106
:102E700053F8041F63454EF80310F5D1BFF34F8F8D
:102E8000FFF7E4FE4FF0FF33CBF80030036823F088
:102E900002030360BFF34F8F0C4BC3F85C42BFF3D8
:102EA0004F8FBFF36F8F20224146204601F0CEFDA9
:102EB0000028ADD04846A2E710210052142100524C
:102EC0000C210052102000520C20005200ED00E0B6
:102ED0001420005210B5084C237828B11BB9FFF715
:102EE000C3FE0123237010BD002BFCD02070BDE871
:102EF0001040FFF7DBBE00BF784600202DE9F74FFA
:102F00000E460546002878D011F00D0839D1002969
:102F100044D04FF0080A4FF00109394F06F004037E
:102F200006EA090BBBF1000F44D07969CC0741D404
:102F300009F101090C37B9F1060FF3D1B8F1000F0F
:102F400013D1304E5246294606EB080001F0B0F985
:102F5000044658BB08F11808B8F1780FF2D1524670
:102F6000294601F0A5F9044600BB524629462648E9
:102F700001F09EF9044600283AD1204603B0BDE88E
:102F8000F08F0F0707D5431E034236D182461F3507
:102F900025F01F05BFE74FF0200AF8E70146082299
:102FA000304601F085F904460028B2D02A460021B7
:102FB00020461FE0B3B1796911F0040FB8D0310792
:102FC00002D579690A07B3D5019318200F4B5246F1
:102FD000294600FB093001F06BF9019B04460028EB
:102FE000A6D0E3E7B007EAD5796911F0020FE5E76B
:102FF0002A460021FDF774FFBFE70024BDE700BFAC
:10300000684D0008AC4600207C4600209446002015
:103010000121FFF773BF0000F8B500231A461A60BC
:103020000433B3F5806FFAD1114D01241827114EE6
:1030300007FB046001342A6955F80C1F01F024F9DC
:10304000062CF5D137254FF4C0542046FFF7E0FF9A
:10305000014628B122460848BDE8F84001F014B9FD
:10306000C4EBC404013D4FEAD404EED1F8BD00BF67
:10307000684D0008944600207C46002008B101F00D
:1030800091B970470244064BD2B210B5904200D1BC
:1030900010BD441C53F8200041F8040BE0B2F5E7E2
:1030A000504000580E4B30B51C6F240405D41C6FE3
:1030B0001C671C6F44F400441C670A4C02442368DC
:1030C000D2B243F480732360074B904200D130BDED
:1030D000441C51F8045B43F82050E0B2F5E700BF10
:1030E00000440258004802585040005807B50122D9
:1030F00001A90020FFF7C6FF019803B05DF804FBAB
:1031000013B50446FFF7F2FFA04205D0012201A942
:1031100000200194FFF7C6FF02B010BD0144BFF3C9
:103120004F8F064B884204D3BFF34F8FBFF36F8F8F
:103130007047C3F85C022030F4E700BF00ED00E008
:10314000034B1A681AB9034AD2F8D0241A607047A0
:10315000244700200040025808B5FFF7F1FF024B5A
:10316000D878C0F3800008BD2447002070470000D5
:1031700070470000EFF30983054968334A6B22F07A
:1031800001024A6383F30988002383F3118870479F
:1031900000EF00E0302080F3118862B60D4B0E4A3C
:1031A000D96821F4E0610904090C0A430B49DA608B
:1031B000D3F8FC2042F08072C3F8FC20084AC2F821
:1031C000B01F116841F0010111602022DA7783F805
:1031D0002200704700ED00E00003FA0555CEACC5B3
:1031E000001000E0302310B583F311880E4B5B68AC
:1031F00013F4006314D0F1EE103AEFF309844FF0AA
:103200008073683CE361094BDB6B236684F30988B8
:10321000FFF7F4F910B1064BA36110BD054BFBE7B6
:1032200083F31188F9E700BF00ED00E000EF00E054
:103230002F0400083204000870B5BFF34F8FBFF3AE
:103240006F8F1A4A0021C2F85012BFF34F8FBFF39D
:103250006F8F536943F400335361BFF34F8FBFF354
:103260006F8FC2F88410BFF34F8FD2F8803043F6CF
:10327000E074C3F3C900C3F34E335B0103EA0406F1
:10328000014646EA81750139C2F86052F9D2203B05
:1032900013F1200FF2D1BFF34F8F536943F4803302
:1032A0005361BFF34F8FBFF36F8F70BD00ED00E030
:1032B000FEE700001E4A1F4B1F4970B58B422ED3FC
:1032C0001E4A002193422FD31D4AC2F88410BFF337
:1032D0004F8FD2F8803043F6E074C3F3C900C3F3D4
:1032E0004E335B0103EA0406014646EA8175013963
:1032F000C2F86C52F9D2203B13F1200FF2D1BFF388
:103300004F8FBFF36F8FBFF34F8FBFF36F8F0023CC
:10331000C2F85032BFF34F8FBFF36F8F70BD52F8BA
:10332000040B43F8040BC9E743F8041BCAE700BFCA
:10333000844F0008984800209848002098480020B2
:1033400000ED00E0074BD3F8D82022EA0002C3F8D2
:10335000D820D3F8002122EA0002C3F80021D3F8D4
:10336000003170470044025870B5D0E92443002270
:103370004FF0FF359E6804EB42135101D3F800096A
:10338000002805DAD3F8000940F08040C3F80009AE
:10339000D3F8000B002805DAD3F8000B40F080408A
:1033A000C3F8000B013263189642C3F80859C3F8FA
:1033B000085BE0D24FF00113C4F81C3870BD000068
:1033C000F0B5D0E92463012508309F6800231A4630
:1033D00050F8041F59B18C6924B103F1100405FAA7
:1033E00004F42243496911B105FA03F10A43013398
:1033F0009F42EDD2C6F81C28F0BD0000890141F0C3
:103400002001016103699B06FCD41220FFF738B943
:1034100008B50A48FEF7D8FD084A094B0948C2F822
:103420009030094BC2F89430FEF7CEFD074B054AA9
:10343000C2F89030064BC2F8943008BDDC4700203B
:103440000000084040470020BC4D00080000044038
:10345000B04D000870B503780546012B5CD1434B95
:10346000D0F89040984258D1414B0E216520D3F8B6
:10347000D82042F00062C3F8D820D3F8002142F0EF
:103480000062C3F80021D3F80021D3F8802042F075
:103490000062C3F88020D3F8802022F00062C3F8D5
:1034A0008020D3F88030FEF7C7F9324BE360324B0F
:1034B000C4F800380023D5F89060C4F8003EC0235B
:1034C00023604FF40413A3633369002BFCDA012358
:1034D0000C203361FFF7D4F83369DB07FCD41220EA
:1034E000FFF7CEF83369002BFCDA00262846A660E9
:1034F000FFF73AFF6B68C4F81068DB68C4F814681B
:10350000C4F81C6883BB1D4BA3614FF0FF3363619C
:10351000A36843F00103A36070BD194B9842C9D161
:10352000134B4FF080600E21D3F8D82042F0007288
:10353000C3F8D820D3F8002142F00072C3F800216C
:10354000D3F80021D3F8802042F00072C3F8802025
:10355000D3F8802022F00072C3F88020D3F88030A6
:10356000FFF7F0FE4D209EE7064BCDE7DC4700203D
:10357000004402584014004003002002003C30C0C8
:1035800040470020083C30C0F8B5D0F890400546D0
:1035900000214FF000662046FFF730FFD5F8941069
:1035A00000234FF001128F684FF0FF30C4F8343819
:1035B000C4F81C2804EB431201339F42C2F800698F
:1035C000C2F8006BC2F80809C2F8080BF2D20B6807
:1035D000D5F89020C5F898306362102313611669FE
:1035E00016F01006FBD11220FFF74AF8D4F8003885
:1035F00023F4FE63C4F80038A36943F4402343F086
:103600001003A3610123C4F810380923C4F8143847
:103610000B4BEB604FF0C043C4F8103B094BC4F8B0
:10362000003BC4F81069C4F80039D5F8983003F1AC
:10363000100243F48013C5F89820A362F8BD00BFC0
:10364000C84D000840800010D0F8902090F88A10F3
:10365000D2F8003823F4FE6343EA0113C2F80038BD
:103660007047000000EB8103DA682DE9F047166827
:103670008046D0F890500C4606F003064FEA8109C8
:1036800005EB4110731E4FEA411A1031022B4FF027
:10369000000398BFB604C0F8103B4FF001038CBF85
:1036A000324E06F1805603FA01F3916998BF06F590
:1036B000004600293AD0508A04F1580130434901AC
:1036C0006850D5F81C180B43C5F81C38AA440023D1
:1036D0000127611ECAF81039A74053698BB3138ABA
:1036E000928B9B08012A88BF5343D8F898209818DA
:1036F00042EA034201F140032146C8F898002846F7
:1037000005EB83035A60FFF779FE08EB0900C368F5
:103710001B8A43EA84534834334364012B51D5F860
:103720001C383B43C5F81C38BDE8F087D0F8001BB7
:1037300021F40041C0F8001BD5F81C1821EA03034E
:10374000C2E704F13F030A4A2146284605EB8303FA
:103750005A60FFF753FEDAF8003923F40043CAF841
:103760000039D5F81C3823EA0703DBE70080001096
:1037700000040002D0F894201268C0F89820FFF7E7
:10378000F3BD00005831D0F8903049015B5813F474
:10379000004004D013F4001F14BF01200220704722
:1037A0004831D0F8903049015B5813F4004004D000
:1037B00013F4001F14BF01200220704700EB8100AA
:1037C000C368196A0B6813604B6853607047000048
:1037D00000EB810330B5DD68AB691A68DA6019B9AE
:1037E000402A84BF40221A606B8A5C1E1444D0F8C1
:1037F0009020480102EB4111B4FBF3F4634303331F
:1038000023F0030343EAC44343F0C043C1F8103B31
:103810002B6803F00303012B0CD1D2F8083813F402
:10382000807FD1F8003B14BF43F0805343F0005336
:10383000C1F8003B0244D2F8003B43F00443C2F815
:10384000003B30BD2DE9F041D0F8906005460C46B4
:1038500006EB4113D3F8087B3A07C3F8087B08D579
:10386000D6F814381B0704D500EB8103DB685B68CE
:103870009847FA071FD5D6F81438DB071BD505EB98
:103880008403D968CCB98B69488A5A68B2FBF0F6D0
:1038900000FB16228AB91868DA6890420DD2121A13
:1038A000C3E90024302383F3118821462846FFF71B
:1038B0008FFF84F31188BDE8F08101226B89A2405B
:1038C00023EA02036B81CB68002BF4D02146284603
:1038D000BDE8F0411847000000EB8103D0F89020CC
:1038E000480170B5DD686C692368E36033BB131869
:1038F0004FF40024C3F810492B6803F00303012B95
:103900000DD1D2F80838141813F4807FD4F8003998
:1039100014BF43F0805343F00053C4F800391044FF
:10392000D0F8003943F00443C0F800390123D2F83D
:1039300034088B400343C2F8343870BD19B9402BAA
:1039400084BF402323602E8A741E1C44B4FBF6F40B
:1039500043EAC443141843F00053C4F81039CBE7CA
:103960002DE9F84FD0F8907005460C464E0107EB54
:103970004113D3F8088918F0010FC3F808891CD047
:10398000D7F81038DB0718D500EB8103D3F80CC04B
:10399000DCF81430D3F800E0DA6896452FD2A2EBB9
:1039A0000E024FF000091A60C3F80490302383F32D
:1039B0001188FFF791FF89F3118818F0800F1CD050
:1039C0000120D7F83438A040034216D005EB840319
:1039D0000134D5F89050DF68E4B205EB0609796947
:1039E00005EB0434D1F800C04E68664513D3D5F812
:1039F000343823EA0003C5F83438BDE8F88F0122D3
:103A000003898A4023EA02030381DCF80830002B93
:103A1000D3D09847D1E7ACEB06033A8A934228BF4C
:103A20001346D9F8182992B2B3EB820FE5D8D1F832
:103A300008E01A4603EB0E08032AA8EB020A1CD87A
:103A400013F0030214D023F0030B022A4FEA930A67
:103A5000F34418D0032A18D19BF8022012049BF8D3
:103A600001B042EA0B221EF82AE04EEA020222606E
:103A70003344C1F808804B60B6E7DAF800A0043A96
:103A8000C4F800A0D8E70022E9E70022EBE7000035
:103A90002DE9F74F0446D0F890504FF040094FF011
:103AA000010A6F69AB691F4017F480586F6105D038
:103AB000204603B0BDE8F04FFEF7F6BA002F15DA46
:103AC000D5F8003E9E0705D0D5F8003E23F003034D
:103AD000C5F8003E2046FFF773FCD5F804382046B1
:103AE00023F00103C5F80438FEF70EFB380505D5B1
:103AF0002046FFF739FC2046FEF7F4FAB9040CD54E
:103B0000D5F8083813F0060FEB6823F470530CBF98
:103B100043F4105343F4A053EB603A071AD563689B
:103B2000DB681BB9AB6923F00803AB612378052B75
:103B300008D1D5F8003E204623F00303C5F8003E27
:103B4000FEF7E2FA2046FFF73BFC6368DB680BB147
:103B500020469847FB026AD4BE0209D5D4F89020CB
:103B60000026D4F89430F1B29B688B4280F09780A5
:103B70003803D5F8186800F1B0807A0335D5F3071B
:103B800003D500212046FFF7EBFEB00703D5012146
:103B90002046FFF7E5FE710703D502212046FFF717
:103BA000DFFE320703D503212046FFF7D9FEF306D7
:103BB00003D504212046FFF7D3FEB00603D5052127
:103BC0002046FFF7CDFE710603D506212046FFF7FC
:103BD000C7FE320603D507212046FFF7C1FEF305D5
:103BE00003D508212046FFF7BBFEFE0640F1E58025
:103BF000D4F89060336AC3F30A1203F00F0103F4A0
:103C0000F013B3F5802F00F0AD80B3F5402F09D14C
:103C100004EB810106F58056CB6800211B6A8A42BD
:103C200040F09380B9F101097FF43BAFC9E0D4F8CB
:103C300090604FF0000BD4F894205FFA8BF19268FB
:103C40008A4289D306EB4112D2F8000900F44020E1
:103C5000B0F5802F20D1D2F8000900281CDAD2F864
:103C6000000940F09040C2F80009D2F8000900288D
:103C7000FBDBD4F890000191FFF7C0FB019922898A
:103C80000AFA01F022EA0002228104EB8102D268E2
:103C900092680AB1204690470BF1010BCBE702EB8B
:103CA0004110D0F8003B03F44023B3F5802F12D12C
:103CB000D0F8003B002B0EDA63890AFA01F023EA00
:103CC0000003638104EB8103DB68DB681BB12046E2
:103CD00001929847019A013643E7F10303D5002189
:103CE0002046FFF7AFFDB20303D501212046FFF7C1
:103CF000A9FD730303D502212046FFF7A3FD30037E
:103D000003D503212046FFF79DFDF10203D50421D1
:103D10002046FFF797FDB20203D505212046FFF7A5
:103D200091FD730203D506212046FFF78BFD30027B
:103D300003D507212046FFF785FDF1017FF51DAF73
:103D400008212046FFF77EFD17E7880701D1D6F846
:103D50000080072901F101019CBF03F8018B4FEAA4
:103D600018285CE704EB810106F58056CB689F6953
:103D7000D7E90003C31AB8680027BA420FD1C9684F
:103D800093428969D1E901608BBF8018C0189219EC
:103D90009B1987BF88604A6088604B6042E717F0D4
:103DA000030F01D1D6F80080BB4207F1010784BFA1
:103DB00000F8018B4FEA1828DFE7034B1F427FF41E
:103DC00031AF03B0BDE8F08F3000000408B5034800
:103DD000FFF75EFEBDE80840FFF704BADC470020AD
:103DE00008B50348FFF754FEBDE80840FFF7FAB9ED
:103DF00040470020D0F8903003EB4111D1F8003B50
:103E000043F40013C1F8003B70470000D0F8903035
:103E100003EB4111D1F8003943F40013C1F8003924
:103E200070470000D0F8903003EB4111D1F8003B0F
:103E300023F40013C1F8003B70470000D0F8903025
:103E400003EB4111D1F8003923F40013C1F8003914
:103E50007047000030B50433039C0172002103FB5E
:103E60000425C160C0E90653049B0363059BC0E9B8
:103E70000000C0E90422C0E90842C0E90A11436316
:103E800030BD00000022416AC260C0E90411C0E9EF
:103E90000A226FF00101FEF763BC0000D0E9043292
:103EA000934201D1C2680AB9181D704700207047BB
:103EB000036919600021C2680132C260C2691344FB
:103EC00082699342036124BF436A0361FEF73CBCED
:103ED00038B504460D46E3683BB162690020131D06
:103EE0001268A3621344E36207E0237A33B92946D8
:103EF0002046FEF719FC0028EDDA38BD6FF001000E
:103F0000FBE70000C368C269013BC3604369134417
:103F100082699342436124BF436A43610023836201
:103F2000036B03B11847704770B53023044683F321
:103F30001188866A3EB9FFF7CBFF054618B186F3B4
:103F40001188284670BDA36AE26A13F8015B9342A8
:103F5000A36202D32046FFF7D5FF002383F3118825
:103F6000EFE700002DE9F84F04460F4691469A46C8
:103F70004FF0300888F311880026B346A56A4DB982
:103F800051462046FFF7A4FF20B185F31188304643
:103F9000BDE8F88FD4E90A15A9EB06036D1A9D4216
:103FA00028BF1D46402D1AD93B4601F1400251F869
:103FB000040B914243F8040BF9D1A36A4037403611
:103FC0004033E26AA3629A4202D82046FFF79AFF82
:103FD0008BF311884E45DAD288F31188CEE7384644
:103FE0002A46FCF75DFFA36A2F442E442B44E8E7E2
:103FF00010B5029C0433017203FB0421C460C0E9C4
:1040000006130023C0E90A33039B0363049BC0E942
:104010000000C0E90422C0E90842436310BD00006B
:10402000026A6FF00101C260426AC0E90422002204
:10403000C0E90A22FEF794BB0346D0E9042082427D
:1040400001D1DB681BB950F8043B0B6070470023BB
:104050001846FAE7C3680021C2690133C3604369A7
:10406000134482699342436124BF436A4361FEF76C
:104070006BBB000038B504460D46E3683BB12369CD
:1040800000201A1DA262E2691344E36207E0237A6A
:1040900033B929462046FEF747FB0028EDDA38BD44
:1040A0006FF00100FBE7000003691960C268013A84
:1040B000C260C269134482699342036124BF436AA8
:1040C000036100238362036B03B11847704700004C
:1040D00070B530230D460446114683F31188866A75
:1040E0002EB9FFF7C7FF10B186F3118870BDA36A20
:1040F0001D70A36AE26A01339342A36204D3E169AB
:1041000020460439FFF7D0FF002080F31188EDE747
:104110002DE9F84F05460C4691469A464FF0300877
:1041200088F311880027BB46AE6A4EB9514628462F
:10413000FFF7A0FF20B186F311883846BDE8F88F5D
:10414000D5E90A06A9EB0703361A9E4228BF1E4688
:10415000402E1AD904F1400354F8042B9C4240F835
:10416000042BF9D1AB6A40374033EA6AAB629A421A
:1041700004D8E96928460439FFF796FF8BF31188C4
:104180004F45DAD288F31188CEE721463246FCF754
:1041900087FEAB6A344437443344E6E7D0E9042170
:1041A00003468A4216D1C068A8B1986A98B104380B
:1041B000801A10D010600120D9680139D960D969FE
:1041C0000A4499698A421A6124BF5A6A1A61002214
:1041D0009A6270470020704700F06ABA014B586A33
:1041E000704700BF000C0040034B002258631A6167
:1041F0000222DA60704700BF000C0040014B002231
:10420000DA607047000C0040014B5863704700BFF4
:10421000000C0040024B034A1A60034A5A60704780
:10422000784800209848002000000220094B70B513
:10423000D3E90054661BB04209D8201A494208400D
:10424000821A954203D8944201D35A6070BD00206F
:10425000FCE700BF7848002008B5302383F31188BD
:10426000FFF7E4FF002383F3118808BD0448012110
:10427000044B03600023C0E901330C3000F01EB989
:104280008048002059420008CB1D083A23F007035C
:10429000591A521A012110B4D2080024C0E900436F
:1042A00084600C301C605A605DF8044B00F006B965
:1042B0002DE9F84F3A4BCD1D0E469046002814BF0D
:1042C00007461F4625F00703994203D900242046DC
:1042D000BDE8F88F082A07F10C094FEAD50538BF69
:1042E0004FF00808484600F005F93B1D08F1070C9F
:1042F000C8F1000E19461B687BB9484600F004F966
:104300003B68002BE2D008224146E800984704466B
:104310000028DCD040E90276D9E703EB0C02D3F8A1
:1043200004A002EA0E020AF10100A2F1080403EB64
:10433000C000A042DED9821AB5EBE20F4FEAE20BD1
:10434000D8D8A3421BD203F10802AB45A4EB02026A
:104350004FEAE2025A600BD9681CABEB050B04EB89
:10436000C0010BF1FF324A601A6844F8302019602E
:104370006660484644F8087B00F0C6F8A7E7AA45FF
:104380001A680AD0013503EBC50443F8352004F15F
:104390000802801A2246C01060601C460A60E7E7E7
:1043A00080480020F8B550F8043C044650F8085CFA
:1043B000A0F1080607332F1D0C35DB0840F8043C3C
:1043C000284600F097F83B469F421A6801D0B34256
:1043D00028D20AB1964225D244F8082C54F8042C6D
:1043E0001E60013254F8081C06EBC200814206D15F
:1043F000486810440A6844F8040C44F8082C5968CA
:104400004A1C03EBC202964207D154F8042C013235
:104410000A445A6054F8082C1A602846BDE8F8404F
:1044200000F072B81346CFE7FEE7000070B5002534
:1044300004461A4B86B085620E4601635860FEF74B
:10444000A9FE04F11003A560E562C4E904334FF04E
:10445000FF33C4E90044C4E90635FFF7BFFE2B462D
:10446000024604F134012046C4E9082380230C4AA3
:104470002565FEF70FF901230A4AE06000920375F3
:10448000684672680192B268CDE90223064BCDE915
:104490000435FEF727F906B070BD00BF382B0020A9
:1044A000F54A0008FA4A000829440008024AD36A7B
:1044B0000343D362704700BFE02A0020C0E9000038
:1044C000816070478368013B002B10B583600CDA74
:1044D000074BDC684368A061206063601C60446037
:1044E0000520FEF733F8A06910BD0020FCE700BFEF
:1044F000E02A002008B5302383F31188FFF7E2FF9C
:10450000002383F3118808BD08B53022034682F3E7
:10451000118882680132002A826006DC006800216E
:1045200002681A605360FEF747F8002383F311888E
:1045300008BD00004B6843608B688360CB68C36034
:104540000B6943614B6903628B6943620B680360CB
:104550007047000008B53B4B40F2FF713A48D3F872
:1045600088200A43C3F88820D3F888206FF30A0212
:10457000C3F88820D3F88820D3F8E0200A43C3F892
:10458000E020D3F808210A433049C3F808210A463D
:10459000D3F80831FFF7CEFF00F580601C31FFF73C
:1045A000C9FF02F1380100F58060FFF7C3FF02F197
:1045B000540100F58060FFF7BDFF02F1700100F5C6
:1045C0008060FFF7B7FF02F18C0100F58060FFF714
:1045D000B1FF02F1A80100F58060FFF7ABFF02F127
:1045E000C40100F58060FFF7A5FF02F1E00100F5CE
:1045F0008060FFF79FFF02F1FC0100F58060FFF78C
:1046000099FF02F58C7100F58060FFF793FF00F0D1
:104610001BF90F4BD3F8902242F00102C3F890220D
:10462000D3F8942242F00102C3F894220522C3F881
:1046300098204FF06052C3F89C20064AC3F8A0208F
:1046400008BD00BF0044025800000258EC4D0008AD
:1046500000ED00E01F00080308B500F0E3F9FDF7E6
:10466000F3FF104BD3F8DC2042F04002C3F8DC200B
:10467000D3F8042122F04002C3F80421D3F8043116
:10468000094B1A6842F008021A601A6842F00402E4
:104690001A60FEF755FDFEF7BFFCBDE80840FEF7C7
:1046A0003FBA00BF0044025800180248704700009B
:1046B000114BD3F8E82042F00802C3F8E820D3F801
:1046C000102142F00802C3F810210C4AD3F810312F
:1046D000D36B43F00803D363C722094B9A624FF0B0
:1046E000FF32DA6200229A615A63DA605A6001226C
:1046F0005A611A60704700BF004402580010005C05
:10470000000C0040094A08B51169D3680B40D9B2C2
:104710009B076FEA0101116107D5302383F31188EC
:10472000FDF7ACFF002383F3118808BD000C0040A7
:10473000064BD3F8DC200243C3F8DC20D3F8042175
:104740001043C3F80401D3F8043170470044025801
:1047500008B53C4B4FF0FF31D3F8802062F00042A7
:10476000C3F88020D3F8802002F00042C3F88020F4
:10477000D3F88020D3F88420C3F88410D3F88420A1
:104780000022C3F88420D3F88400D86F40F0FF40A3
:1047900040F4FF0040F4DF4040F07F00D867D86F5E
:1047A00020F0FF4020F4FF0020F4DF4020F07F00E5
:1047B000D867D86FD3F888006FEA40506FEA50503E
:1047C000C3F88800D3F88800C0F30A00C3F8880053
:1047D000D3F88800D3F89000C3F89010D3F8900075
:1047E000C3F89020D3F89000D3F89400C3F8941045
:1047F000D3F89400C3F89420D3F89400D3F8980029
:10480000C3F89810D3F89800C3F89820D3F898000C
:10481000D3F88C00C3F88C10D3F88C00C3F88C202C
:10482000D3F88C00D3F89C00C3F89C10D3F89C10EC
:10483000C3F89C20D3F89C30FCF718FEBDE8084074
:1048400000F0E0B80044025808B5554BD3F8F42006
:1048500042F00202C3F8F420D3F81C2142F0020215
:10486000C3F81C210222D3F81C314E4BDA605A687F
:104870009104FCD54C4A4FF440411A6001229A60E1
:104880004A4ADA6000221A619961494BDA6203F5FB
:1048900011339A699204FCD51A6842F480721A6046
:1048A0003F4B1A6F12F4407F04D04FF480321A67E6
:1048B00000221A671A6842F001021A60384B1A681F
:1048C0005007FCD500221A611A6912F03802FBD198
:1048D000012119604FF0804159604FF00051D960BB
:1048E0005A67344ADA62344A1A611A6842F48032EA
:1048F0001A602B4B1A689103FCD51A6842F4805257
:104900001A601A689204FCD52C4A2D499A6200223A
:104910005A63196301F57C01DA6301F50E7199633D
:104920005A64284A1A64284ADA621A6842F0A8527D
:104930001A601B4B1A6802F02852B2F1285FF9D1B5
:1049400048229A614FF48862DA6140221A621F4A53
:10495000DA641F4A1A651F4A5A651F4A9A6532234C
:104960001E4A1360136803F00F03022BFAD10C4A9E
:10497000136943F003031361136903F03803182B21
:10498000FAD14FF00050FFF7D3FE4FF08040FFF711
:10499000CFFE4FF00040BDE80840FFF7C9BE00BFA2
:1049A000004402580048025800C000F00200000114
:1049B000000400580000FF010088900822505000B9
:1049C0003F0209012F0E04079D0BBF0120000020AC
:1049D000000001100910E000000101100020005249
:1049E00008B50348FCF7AAFEBDE80840FEF7FABB8D
:1049F0006428002008B5FFF785FEBDE80840FEF7F3
:104A0000F1BB000008B509217A20FCF715FF07214A
:104A10003220FCF711FF0C215220BDE80840FCF7C2
:104A20000BBF000008B5FFF793FE00F00DF8FDF78F
:104A3000C7F8FDF7C7FAFDF775F9FFF737FEBDE8D0
:104A40000840FFF7C9BB00007047000010B50139EE
:104A50000244904201D1002005E0037811F8014F93
:104A6000A34201D0181B10BD0130F2E7034611F834
:104A7000012B03F8012B002AF9D1704763656538D3
:104A80003731343163653837353134380053544D5C
:104A9000333248373F3F3F0053544D33324837336A
:104AA000782F3732780053544D3332483734332F10
:104AB0003735332F373530006330006D526F0025A6
:104AC000424F415244252D424C0025534552494105
:104AD0004C250025424F41524425006D526F4E65D2
:104AE00078757300303132333435363738394142D6
:104AF00043444546006D61696E0069646C65000061
:104B000012110000121300001210000001105A00D0
:104B100003105900012058000320560010000240E5
:104B2000080002400008024000000B00280002407C
:104B3000080002400408024006010C004000024048
:104B4000080002400808024010020D005800024010
:104B5000080002400C08024016030E0070000240DC
:104B60000C0002401008024000040F0088000240C0
:104B70000C0002401408024006051000A00002408C
:104B80000C0002401808024010061100B800024054
:104B90000C0002401C08024016072F0010040240BF
:104BA000080402402008024000083800280402409F
:104BB000080402402408024006093900400402406B
:104BC0000804024028080240100A3A005804024033
:104BD000080402402C080240160B3B0070040240FF
:104BE0000C04024030080240000C3C0088040240E3
:104BF0000C04024034080240060D4400A0040240A8
:104C00000C04024038080240100E4500B80402406F
:104C10000C0402403C080240160F460000960000BB
:104C20000000000000000000000000000000000084
:104C30000000000000000000811B00086D1B000840
:104C4000A91B0008951B0008A11B00088D1B00086C
:104C5000791B0008651B0008B51B00080000000058
:104C6000991C0008851C0008C11C0008AD1C000828
:104C7000B91C0008A51C0008911C00087D1C000838
:104C8000191D0008010000000000000000000000E5
:104C9000B84A0008D0280020E02A0020DC47002085
:104CA00001010200C12A0008CD2900086D2A000870
:104CB000512A000803000000000000008D1F0008BA
:104CC0000000000010000000402B00200000000049
:104CD00001000000000000000200000000000000D1
:104CE000C51E0008411F000840004000602B002046
:104CF000502B002002000000000000000403090403
:104D000043000000084D000809024300020100C0F2
:104D1000320904000001020201000524001001050F
:104D20002401000104240202052406000107058273
:104D3000030800FF09040100020A00000007050142
:104D40000240000007058102400000001200000040
:104D5000544D000812011001020000400912415791
:104D60000002010203010000000000200000020018
:104D700002000000000000300000040008000000F5
:104D800000000024000008000400000000040000EF
:104D900000FC000002000000000004300080000061
:104DA00008000000000000380000010001000000C1
:104DB000000100000010000008000000800000005A
:104DC0004001000008000000000000002121000850
:104DD000C92300086124000840004000304700203B
:104DE0003047002001000000284700200050806A62
:104DF00000000000AAAAAAAA00000064FFFF0000A9
:104E00000000000000A00A000500400100000000B2
:104E1000AAAAAAAA00004001FDFF000000000000AD
:104E2000000000000000000000000000AAAAAAAADA
:104E300000000000FFFF0000000000000000000074
:104E40000000000000000000AAAAAAAA00000000BA
:104E5000FFFF000000000000000000004081020091
:104E600000000000AAAAAAAA40410100FFFF00001A
:104E700000000070070000000000000000000000BB
:104E8000AAAAAAAA00000000FFFF0000000000007C
:104E9000000000000000000000000000AAAAAAAA6A
:104EA00000000000FFFF0000000000000000000004
:104EB0000000000000000000AAAAAAAA000000004A
:104EC000FFFF0000000000000000000000000000E4
:104ED00000000000AAAAAAAA00000000FFFF00002C
:104EE00000000000000000000000000000000000C2
:104EF000AAAAAAAA00000000FFFF0000000000000C
:104F0000000000000000000000000000AAAAAAAAF9
:104F100000000000FFFF0000000000000000000093
:104F2000F70300000000000000001E000000000069
:104F3000FF000000D02D00206428002000000000A9
:104F40008D4A000883040000984A000850040000BD
:104F5000A64A0008009600000000080004000000B7
:104F6000FC4C0008000000000000000000000000F1
:104F7000000000000000000000000000009600009B
:044F80000000080025
:00000001FF
