:020000040800F2
:1000000000090020C5010008013300089D320008E6
:10001000DD3200089D320008BD320008C70100082B
:10002000C7010008C7010008C7010008B54600085D
:10003000C7010008C7010008C7010008C701000880
:10004000C7010008C7010008C7010008C701000870
:10005000C7010008C7010008C7010008C701000860
:10006000C7010008C7010008C7010008C701000850
:10007000C7010008C7010008C7010008C701000840
:10008000C7010008C7010008C7010008A131000826
:10009000B1310008C1310008C7010008C7010008DC
:1000A000C7010008C7010008C7010008C701000810
:1000B00051790008C7010008C7010008C7010008FE
:1000C000C7010008C7010008C7010008C7010008F0
:1000D000C70100083D790008C7010008C7010008F2
:1000E000C7010008C7010008C7010008C7010008D0
:1000F000C7010008C7010008C7010008C7010008C0
:10010000C7010008C7010008C7010008C7010008AF
:10011000C7010008C7010008C7010008C70100089F
:10012000C7010008C7010008C7010008C70100088F
:10013000C7010008C7010008C7010008C70100087F
:10014000C7010008C7010008C70100089D7000082A
:10015000C7010008C7010008C7010008C70100085F
:10016000C7010008C7010008C7010008C70100084F
:10017000C7010008C7010008C7010008C70100083F
:10018000C7010008C7010008C7010008C70100082F
:10019000C7010008C7010008C7010008C70100081F
:1001A000C7010008C7010008C7010008C70100080F
:1001B000C7010008C7010008C7010008C7010008FF
:1001C0008117000802E000F000F8FEE772B6374839
:1001D00080F30888364880F3098836483649086035
:1001E00040F20000CCF200004EF63471CEF2000175
:1001F0000860BFF34F8FBFF36F8F40F20000C0F273
:10020000F0004EF68851CEF200010860BFF34F8F28
:10021000BFF36F8F4FF00000E1EE100A4EF63C7115
:10022000CEF200010860022080F31488BFF36F8FC4
:1002300006F06EF907F02AFA4FF055301F491B4AB5
:1002400091423CBF41F8040BFAE71D49184A91421C
:100250003CBF41F8040BFAE71A491B4A1B4B9A4270
:100260003EBF51F8040B42F8040BF8E70020184990
:10027000184A91423CBF41F8040BFAE706F04CF9EA
:1002800007F00AFA144C154DAC4203DA54F8041B7B
:100290008847F9E700F042F8114C124DAC4203DAFE
:1002A00054F8041B8847F9E706F034B90009002028
:1002B000001100200000000808ED00E0000100200F
:1002C00000090020307E000800110020AC11002041
:1002D000B011002048440020C0010008C4010008FB
:1002E000C4010008C40100082DE9F04F2DED108A6B
:1002F000C1F80CD0C3689D46BDEC108ABDE8F08FF4
:10030000002383F311882846A047002005F0DCFB7A
:10031000FEE705F043FB00DFFEE70000F8B501F063
:100320009DFA06F08BF8054606F0E0F80746A8B9F6
:10033000224B9D422ED001339D422ED025F0FF024C
:100340001F4B9A4203D006464FF47A7408E0E8B295
:1003500001F02AF93E4642F2107401E006460024FC
:1003600001F028F908B10024264602F01DF8B8B9BA
:1003700017B1144B9D4219D1002006F06BF8D6B985
:1003800001F006FC01F050F9204600F023F900F0DE
:10039000C5F8F9E706460024E2E700240126DFE776
:1003A000032000F09DF800242646E1E706F096F8C9
:1003B00000242646E0E700F0B1F8E1E7010007B0CD
:1003C000000008B0263A09B0302383F3118885462F
:1003D00080F308880847704700B583B00190042176
:1003E0000DEB010001F026FA03B05DF804FB00BF3D
:1003F00008B50221014801F01DFA08BD587A00082D
:1004000008B50221014801F015FA08BD547A000828
:1004100008B50221014801F00DFA08BD507A000824
:10042000F8B504460D4616461F4603680BB105F0A5
:1004300013FC3B4632462946204605F0FFFBF8BD3B
:1004400008B5302383F3118800231C4A4FF47A71D6
:100450001B48FFF7E5FF002383F3118801E0013318
:10046000DBB2012B0BD8174A52F82320002AF6D012
:10047000144951F82320013A41F82320EFE7124BA9
:100480001B7813B90F4B5B6823B10F4B1B78032B01
:1004900007D008BD022001F09FFA0A4B32225A60B1
:1004A000F3E7084B5B68002BF3D1022001F094FACC
:1004B000044B4FF47A725A60EBE700BF4104000826
:1004C000C0120020B4120020BC12002008B5C0EBFE
:1004D000401300EB8300C00005F0FEFA08BD00BF2A
:1004E00008B50C4B1870032806D8DFE800F00A06A0
:1004F000020E022001F066FA08BD022001F058FA4F
:10050000FAE7054B00225A60F6E7034B00225A60D7
:10051000F2E700BFBC120020B412002008B501F0C1
:1005200043FF034668B9072B0FD89A0002F1006217
:1005300002F520421268B2F1FF3F05D00133DBB271
:10054000F1E70320FFF7CCFF08BD1F4B5A689A4222
:10055000FAD31E4B9B6803F1006303F520439A42D4
:10056000F2D205F08DFF05F09FFF002001F092F917
:100570000220FFF7B5FF164B9A6D00229A65996F1E
:100580009A67996FD96DDA65D96FDA67D96F196E85
:100590001A66D3F88010C3F88020D3F88020DA6A76
:1005A00042F48052DA62DA6A22F48052DA62DB6A5A
:1005B00072B6054B4FF0E022C2F8083D5968186842
:1005C000FFF702FFC0E700BF00A0000800110020F5
:1005D000001002402DE9F04F91B00546BF4BD3F813
:1005E00008902022FF210DEB020001F071FABC4BB4
:1005F0001B787BB10DB1BB4B1D60BB4B1B78032B34
:100600001AD12C460026B0463746B246012001F0EA
:10061000D9F91EE0B24B01221A70B44800240460DC
:10062000302383F311882346B14A4FF47A71FFF7E0
:10063000F7FE84F31188DDE70020FFF751FFE0E7C4
:10064000002001F0D7F8B0F1000B0BDBBBF1000F7D
:100650000BDA002CF4D0A34B1B68002BF0D111B0A7
:10066000BDE8F08F01F030F8F0E7012001F0A0F9CB
:10067000ABF121001628C9D801A353F820F000BF20
:10068000DD060008F1060008970700080D060008BF
:100690000D0600080D0600080F080008E70900080D
:1006A000F90800085909000887090008AD09000881
:1006B0000D060008C10900080D0600083B0A0008E5
:1006C0003B0700080D0600087B0A000871090008B6
:1006D0003B0700080D06000859090008022001F038
:1006E00089F8202840F0448101F048FA012727E0EA
:1006F0004FF47A7001F07EF8B0F1000BC0F238814F
:10070000022001F077F8202840F032810BF1FF330E
:10071000052B00F2D781DFE803F0031B20253639D3
:100720000520FFF759FE0BF1FF320123934048EA01
:1007300003035FFA83F84FF0000A01F01FFA27B1B4
:1007400008F00B030B2B00F0BB81FFF751FE5DE7B8
:10075000624B1868FFF740FEE5E7604B5868FFF70B
:100760003BFEE0E75D4B9868FFF736FEDBE74FEABC
:100770008A0001F093F8FFF72FFE0AF1010ABAF19F
:100780000A0FF4D9CFE74FF0070AF8E7534BD868C0
:10079000FFF722FEC7E7002F00F0EA8008F00B0306
:1007A0000B2B40F0E580022001F024F8202840F0D7
:1007B000DF80012001F06EF80220FFF791FE002695
:1007C000304601F07BF8044648B10021304601F084
:1007D00091F8002800F079810136B6B2F0E70120E7
:1007E000FFF77EFEA1463D4B9B684B4509D9484625
:1007F00001F054F8B0F1FF3F40F06C8109F10409B9
:10080000F1E70020FFF76CFE3E46A14695E7002F7A
:1008100000F0AE8008F00B030B2B40F0A980022003
:10082000FFF75EFE322000F0E5FFB0F1000BC0F2F2
:100830009F801BF0030F40F09B80CDF804B00BEBC2
:100840000903264A9268934200F29280BBF5807FAA
:1008500000F28E8000230093009B9B450CDD4FF43B
:100860007A7000F0C7FF0028C0F28280214B009A06
:100870009854531C0093EFE7C82000F0BBFF2028DA
:1008800076D1B9F11F0F13D8C9F120039B4500D9C8
:10089000019329F003039DF804200092154908A84C
:1008A000184401F0E9F8009AFF21124801F010F90C
:1008B0005A46BBF1000F0DDB4FEAA20BC2F38702D1
:1008C0000C49484601F00EF9002800F0008109EBC0
:1008D0008B0932E70BF10302EEE700BF00110020A5
:1008E000B0120020B4120020BC120020C012002060
:1008F00041040008B0110020022000F07BFF2028F6
:1009000036D101F009F898B34FF0000BCDF800B0E4
:100910000BE0584600F0C2FF0390042203A90098A0
:1009200001F090FC00900BF1040B6B4B9B685B4556
:100930000ED9BBF11F0FECD8089BB3F1FF3FE8D0F5
:100940002BF0030340336B4453F8203C0393E4E75C
:100950000098FFF741FDF0E600230393642103A80C
:1009600000F05CFF20B9022000F044FF202804D0F2
:1009700006B92C46FFF744FD48E6039800F0C4FF93
:10098000FFF72AFDD9E600230393642103A800F0B2
:1009900045FF0028ECD1022000F02CFF2028E7D1F1
:1009A000039800F0B3FFFFF717FDC6E6022000F042
:1009B00021FF2028DCD100F0C1FFFFF70DFDBCE6D0
:1009C000022000F017FF2028D2D10DF10C0B594660
:1009D000142000F0B9FF0090FFF7FEFC0099584684
:1009E00000F028FFA9E6322000F004FFB0F1000B70
:1009F000BEDB1BF0030FBBD10BEB0A03364A926838
:100A00009342B5D8022000F0F5FE2028B0D15B4615
:100A1000BBF1000F01DB9B100AE00BF10303FAE7C7
:100A2000504600F03BFFFFF7D7FC0AF1040A5B4693
:100A300003F1FF3B002BF3DC7FE64FF47A7000F00C
:100A4000D9FE202894D100F067FF00283FD0089BF2
:100A5000B3F1FF3F0BD0082208A9002001F042F8B3
:100A6000A8B32022FF210DEB020001F031F8FFF7BF
:100A7000BFFC6420FFF72AFDF1E5002F3FF478AFBB
:100A800008F00B030B2B7FF473AF00230393642157
:100A900003A800F0C3FE00287FF46AAF022000F034
:100AA000A9FE20287FF464AFFFF7A2FC0520FFF722
:100AB0000DFD039801F08AF801F060F80024A5E527
:100AC000002442E64FF0000A52E73E460024FFF7BA
:100AD0009FFC9BE53E46FAE700110020BFF34F8FD5
:100AE0000549CA6802F4E062044B1343CB60BFF3CC
:100AF0004F8F00BFFDE700BF00ED00E00400FA05E6
:100B0000094A136899B21B0C49F2690000FB0133D2
:100B10001360064B186882B2000C44F2506101FB6E
:100B20000200186080B270471411002010110020DC
:100B300010B50446FFF7E4FFB0FBF4F304FB130029
:100B400080B210BD70B50E4614461D4603F0BEF8C7
:100B500060B9022D33D1012C01D0002030E019A35F
:100B6000D3E90023C6E90023012029E0282C1FD067
:100B70000CD8012C15D0052C06D114A3D3E90023E1
:100B8000C6E9002301201BE0002019E0302C06D12B
:100B900010A3D3E90023C6E90023012010E00020C0
:100BA0000EE00EA3D3E90023C6E90023012007E0ED
:100BB0000CA3D3E90023C6E90023012000E00020B4
:100BC00070BD00BF401DA12026812A0BF017304ABE
:100BD00039059E5678F6339F93CACD8D9E6AC421FF
:100BE000818A46EE26417272DF25D7B710B40346DC
:100BF0000022026042608260C260044C07CC186030
:100C000059609A605DF8044B704700BF9075FF1FF4
:100C100070B58AB006460D4602F07AFB04464FF4E2
:100C2000C870FFF785FF044404F51674184B1C6068
:100C3000EB7E23B9174B00221A700AB070BD05A9CC
:100C4000284601F06DF90028F7D101AC2046FFF7E6
:100C5000CDFF9DF816502A4621460DF1170006F0EB
:100C6000AFFE48B90F2D0BD80A4B1D70084A136808
:100C7000A3F516731360E0E7064B00221A70DCE759
:100C80009DF814100029D8D0304603F017F8D4E7A7
:100C900014180020101800202DE9F041ADF5507D0A
:100CA00007460E460EAC4FF4C4720021204600F0F9
:100CB0000FFF02F02DFB304BA3FB003080092F4BC0
:100CC000186093E8070084E80700022323744FF0BC
:100CD000000884F811800DF15A00FFF787FF042304
:100CE00084F82030172384F821300DF11C0CE646DF
:100CF000234D0FCDAEE80F0095E80700AEE80300E6
:100D0000AEF80020192384F83231BCE80F00CDF88A
:100D10006B01CDF86F11CDF87321CDF87731BCE8B8
:100D20000300CDF87B01CDF87F119CF800308DF8E1
:100D3000833171AD01222946204601F053F880B27B
:100D400005900495CDF80C80B37E029306F119034B
:100D500001930123009306A3D3E90023F17E3846D3
:100D600003F068F80DF5507DBDE8F081AFF3008029
:100D70009E6AC421818A46EED34D62101818002065
:100D80005C7A0008F0B5FDB006460D462B4B1C7A88
:100D90006CBB07A9284601F02FF9002846D19DF821
:100DA0001D70C82F42D84FF4A6620021234800F0DE
:100DB0008FFE09E02202214B4FF48A7101FB0433BC
:100DC000C3F8E4200134E4B2032CF3D91C4C3A46B6
:100DD0000DF11E01204600F04FFE093CE2190023F0
:100DE00053729DF81C3023720BB9EA7E22723AAF1F
:100DF00081220021384600F06BFE5BAC01222146C7
:100E0000384601F053F980B205900494002303930F
:100E1000AB7E029305F1190301932823009305A3E8
:100E2000D3E90023E97E304603F004F87DB0F0BD3D
:100E3000AFF3008026417272DF25D7B7E0120020A1
:100E4000E9120020134BB3F82C35834200D97047C8
:100E500010B50446002100F04DFD01340D4BA3F800
:100E60002C450C4BB3F82C0500F028FD88B1094B3C
:100E7000B3F82C0500F034FD58B9064C0021B4F845
:100E80002C0500F037FDB4F82C350133A4F82C35CF
:100E9000E7E710BDE01200202DE9F043F1B006466F
:100EA000294C94F8D8304FF48A7505FB004585F835
:100EB000DC30002785F8E8700DF1E808D8223946C3
:100EC000404600F005FE04F10909484600F0F6FD31
:100ED0008DF8F000D5F8E4303A933B97C2B249461A
:100EE0000DF1F10000F0C8FD06AD01222946404693
:100EF00001F032F980B20590049501230393082391
:100F0000029304F1D8030193302300930CA3D3E997
:100F10000023217A0D4802F08DFFB84203DC002047
:100F200071B0BDE8F08302F0F3F94FF48A7202FB6E
:100F30000643C3F8E0000120F2E700BFAFF30080F2
:100F400078F6339F93CACD8DE0120020143900202B
:100F500038B502F0DDF90546002408E00532B3EBB0
:100F6000420F02D3FFF798FFF8B10134E4B2032C2B
:100F70001BD80E4B93F8D900204400F003004FF427
:100F80008A7202FB003393F8E830002BEDD1074B57
:100F900002FB0033D3F8E030002BE3D0EB1A034A16
:100FA0001268F92ADAD8FA22D8E738BDE012002010
:100FB00010B586B0BDF828400494099C03949DF8B0
:100FC000204002940193009202460B46024802F030
:100FD000D1FE06B010BD00BF1439002010B58AB094
:100FE000244802F073FE08B10AB010BD02F090F977
:100FF000214B1B689842F7D302F08AF904464FF45C
:10100000C870FFF795FD044404F516741A4B1C6074
:1010100000238DF82030194B1B7813B901238DF86C
:10102000203004A8FFF7E2FD144B1B78C3F1100435
:10103000E4B2062C00D90624224604A919440DF175
:10104000210000F019FD0134029408AB019318232C
:1010500000930B4B012205A1D1E90001FFF7A8FF86
:10106000064B00221A70BFE7AFF30080401DA1209D
:1010700026812A0B14390020141800201018002093
:101080002418002010B586B002F042F90F4BA3FBE4
:1010900000239B090E48036004AC0122214600F0A6
:1010A000E7FE80B20290019418230093094B40F2AE
:1010B000551204A1D1E90001FFF77AFF06B010BD77
:1010C000AFF30080F1C6A7C1D068080FD34D6210FE
:1010D00018180020DC12002010B502460B46094CFF
:1010E000204602F0E1FE204602F0F0FD38B1064B4A
:1010F0001B7A2BB10322054B5A71FFF7C3FF10BDBA
:101100000222F8E714390020E0120020181800200D
:1011100038B50025084C002D05DA084A084900209A
:1011200006F038FC38BD204601F0E0FB013D04F537
:1011300087540834EFE700BF2818002098390020B2
:101140005D170008002202600273427342608260F1
:10115000704700BFF0B587B020E041F2E80304FB20
:1011600003F3214A9E18D3581F6902F0D5F81F4A8D
:1011700082184FF00003009341F1000302A93046AA
:10118000B8470028C8BF45F001050134E4B21AE0B1
:10119000174802F081FE174B00221A70144802F023
:1011A00077FE0446D0B102A8FFF7CCFF237B8DF871
:1011B000143003AB6068A16803C3236843F00043A5
:1011C000029300242546002CC7D0002DE0D1094B06
:1011D0001B78072B04D80133064A137007B0F0BD03
:1011E000034802F059FEF9E72818002040420F009A
:1011F00014390020DD120020CA7EA14B1B7A9A42CE
:1012000040F03D812DE9F04700AF08460024032C53
:101210000CD89B4B4FF48A7202FB043393F8DC200A
:10122000437E9A4211D00134E4B2F0E7002373B94F
:10123000934B1B68FA3340F6B832934200D91346F9
:101240008F4A1360BD46BDE8F0870123EFE74FF4F6
:101250008A7104FB01F1E031894B19440A3100F035
:10126000CDFF0028EED1864B4FF48A7202FB043486
:10127000012384F8E83002F04BF8D4F8E030C31AC8
:10128000192B05D940F6B832934202D9134600E033
:1012900019237B4AD2ED007AF8EE677A9FED797ACE
:1012A00027EE877A07EE903AF8EE677ADFED766AF6
:1012B00067EEA67A77EE277AFCEEE77AC2ED007A3F
:1012C0003CE013464FF48A7202FB0533002283F898
:1012D000E820C3F8E020B546694B5B689B0A013300
:1012E0006A4A1381AEE7002042F8040B013B002B51
:1012F000F9DA2246484600F0BFFB614B5B68002BE1
:101300004CD05F4B93F8D20000F0D8FA8246002808
:1013100048D05B4BD3F8D430002B4FD0584BD3F888
:10132000D430234453454FD85FFA88F24946544B92
:10133000586800F0D7FB00284DD1B546504B93F8C4
:10134000D9504FF48A7202FB053393F8E830002B32
:10135000C2D06E464A4A4FF48A7303FB0523D3F882
:10136000E41053689942ACD145484FF48A7205FBAA
:1013700002F28318B3F8EC40E31C4FEA930802F141
:10138000E00101440E3143469A000732D208A6EB31
:10139000C2029546E94608F1FF33A8E7012000F0B4
:1013A00079FAAEE70024364B1C7200F0B5FA2046FD
:1013B00000F070FA354B0B221A818CE7304B93F812
:1013C000D200FFF73FFDA9E72D4B93F8D200013083
:1013D000FFF738FDA8E72A4B5A6822445A60D3F831
:1013E000D42004EB0208C3F8D48093F8D20000F0B4
:1013F00065FA80450BD3224B93F8D220013283F853
:10140000D220D3F8D420A2EB0A02C3F8D420FF2CB8
:1014100023D91B4C4FF48A7303FB0543002283F846
:10142000E820C3F8E020D3F8E42002F58062C3F896
:10143000E42094F8D900FFF72FFDFFF78BFE94F816
:10144000D93001335A4203F0030302F0030258BFBC
:10145000534284F8D930B54670E70024084B1C721B
:1014600000F05AFA204600F015FA00F09DFF074AF6
:10147000108108B1B546E5E6FFF750F8FAE7704786
:10148000E01200206666663FCDCCCC3D18180020E7
:1014900038B505460C4602F019FC50B1E38A282BFA
:1014A0001ED016D8012B10D121462846FFF7F4FB99
:1014B00002E0237E022B00D038BDE38A012BFBD152
:1014C00021462846FFF7A4FBF6E7052BF4D1FFF7EA
:1014D00005FB302BF0D121462846FFF78DFEEBE7C8
:1014E00021462846FFF74EFCE6E700BF2DE9F04114
:1014F0008EB00AA8FFF726FE0024254624B1002D51
:10150000FAD10EB0BDE8F08101238DF80C30002334
:101510008DF80D3041F2E80204FB02F21F49561823
:101520008A5800200021CDE9000197680DF10D02D5
:1015300003A93046B8479DF80C705FB3184A536949
:1015400083F08003536106AD00230693079308934D
:10155000099341F2E80304FB03F3104AD358D3F88C
:1015600014800DF10E0304AA0AA93046C04707AB48
:101570000BAA92E8030083E803009DF834308DF84D
:1015800024300A9B0693DDE904232946054802F02E
:1015900055FE3D460134E4B2B0E700BF28180020F4
:1015A0000004004814390020014B1870704700BF38
:1015B000102900204FF000531A68184B9A4201D0AE
:1015C000002070474FF00053587D08B90020704745
:1015D00010B5FFF7E9FF4FF000531A7D104B1A7258
:1015E000002309E019020E4A4FF48A7000FB03221F
:1015F000C2F8E4100133DBB2032BF3D94FF00054EF
:10160000C92204F11601074800F036FAE022002151
:10161000204600F05DFA012010BD00BF9AAD44C520
:10162000E0120020E912002010B582B000F0BCFEEC
:101630001C4B188102225A7100240CB30023019321
:10164000194B0093194B4FF480521949194802F075
:1016500019FB194B197801BB01F05AFE04464FF4EF
:10166000C870FFF765FA044404F51674134B1C6048
:1016700004F03CFF10B10B4B0F221A8102B010BDD9
:1016800041F2E80304FB03F30D48C25852680D49C8
:10169000184490470134E4B2CFE7064802F00EFB4D
:1016A000DAE700BF18180020450B00089114000865
:1016B00014290020143900201029002014180020BB
:1016C0002818002040420F0008B50CE0114B1860AC
:1016D00001F022FEFFF700FD13E0C82004F0FCF942
:1016E0000D4B1B7AA3B1FFF735FDFFF7FFFEFFF7A8
:1016F00075FC01F00DFE074B1B68C31AB3F57A7F2A
:10170000E4D2054B1B7A002BE7D0FFF721FCE4E77E
:1017100008BD00BFD8120020E012002038B50446F2
:1017200003793BB905682DB1284600F04BFE2846E9
:1017300000F0A4FF204638BD10B50446064B0360F8
:1017400000F583500C30FFF7E9FF04F582501830A4
:1017500000F038FE204610BD187B000810B5064C7E
:10176000064B9C4206D0A4F58754083C2046FFF760
:10177000E3FFF5E710BD00BF102900202818002066
:1017800008B5FFF7C5FC08BD2DE9F04107460E4638
:101790001546002411E0144B53F824000368D3F8D5
:1017A0002080C5EB451305EB8303DB003246394649
:1017B000C04786420CD00134E4B2012C0CD80B4B4C
:1017C00093F90030B3F1FF3FE5D0A342F3D1E2E754
:1017D000074B1C70012004E04FF4FA7004F07CF910
:1017E0000020BDE8F08100BF1C110020181100206E
:1017F0007439002000B583B0024600238DF807300D
:1018000001210DF10700FFF7BFFF20B19DF8070090
:1018100003B05DF804FB4FF0FF30F9E708B50A4666
:101820000421FFF7B1FF08B1002008BD4FF0FF30E1
:10183000FBE700BF10B584460A46054B1978054BF7
:1018400053F821000368DC69034B6146A04710BDD3
:10185000743900201C110020A086010010B504F08E
:10186000CFFC0A4B1880002406E004F0C5FC0444B9
:10187000074A136801331360B4F5204F05D2034BB8
:101880001B88034A10688342EFD810BD6C390020D2
:101890007039002008B504F0FDFC08BD00F10060BF
:1018A00000F520400068704708B5920000F1006024
:1018B00000F5204004F0EAFC08BD00BF08B5064B67
:1018C0001B88064A12689B1A834201D8002008BD73
:1018D000104404F091FCFAE76C39002070390020C4
:1018E00008B5034B1B68184404F08CFC08BD00BF0E
:1018F0007039002008B5034B1B68184404F09AFCAB
:1019000008BD00BF7039002000207047014BC0584F
:10191000704700BF9075FF1F08B5074B93F8243040
:101920000BB9012008BD0449002381F824300822A6
:10193000086AFFF7B9FFF5E744390020014B186842
:10194000704700BF002004E0164B1B68C3F30B0C6C
:10195000431E0B44144A1548824207D10846984258
:1019600002D22C2300F8013B401A704710886045D2
:1019700001D00832EFE7526808469942EFD210B41E
:1019800092F9004024B1013200F8014B9842F7D39C
:10199000984202D22C2300F8013B401A5DF8044B18
:1019A000704700BF002004E0241100202C1100200B
:1019B000022800D07047024B80229A61FAE700BFEC
:1019C00000040048022800D07047024B4FF4000288
:1019D0009A61F9E700040048022800D07047034AE2
:1019E000536983F080035361F8E700BF00040048A7
:1019F00038B504460AE02546412C28BF41254FF45E
:101A00007A7005FB00F004F067F8641B002CF2D13B
:101A100038BD00BF38B5144B1B7803B138BD124B2D
:101A200001221A70114D284603F084FA104C214609
:101A3000284603F0ADFA2468E26ED2F8043843F089
:101A40000203C2F804384FF47A70FFF7D1FF094956
:101A5000204603F033FCE26ED2F8043823F0020390
:101A6000C2F80438DAE700BF90390020083F0020B0
:101A7000287C0008307C0008002304E011F803C033
:101A800000F803C001339342F8D3704702E00130FD
:101A90000131624690F9003043B191F900C06345CD
:101AA00004D102F1FF3C002AF1D162461AB191F94A
:101AB0000020981A70470020704700BF034600209E
:101AC00000E0013013F9012B002AFAD1704700BF62
:101AD000034602E003F8011B624602F1FF3C002AC4
:101AE000F8D170472DE9F84380460F461546224B42
:101AF00093F8243073B3204A126A02EB83038342C3
:101B000028D0FFF709FF034620BB31E01A48C0F890
:101B100020802022FF21FFF7DBFF174E96F82400DC
:101B2000C0F10804AC4228BF2C46E4B24FEA840955
:101B30004A46394606EB8000FFF79EFFC8444F44F3
:101B40002D1BEDB296F824302344DBB286F8243006
:101B5000082B06D05DB1084B93F82430002BDCD164
:101B6000D4E7FFF7D9FE03460028F3D100E00123B4
:101B70001846BDE8F88300BF44390020024B93F9B2
:101B80000020024B1A707047743900201811002091
:101B900010B5FFF73FFF094B4FF461421A60084C44
:101BA00000E00434074B9C4207D02068064B984263
:101BB000F7D0024903F000F9F3E710BD78390020AF
:101BC0001C11002024110020083F002038B50C4BC8
:101BD0001A780C4B53F822200B4B9A420FD0044634
:101BE0000A4D182200212846FFF772FF2C60044B93
:101BF0001A782946034B53F8220003F0DDF838BD6C
:101C0000743900201C110020083F00207839002082
:101C100070B506460C46154613462022096802F0A8
:101C200089FA2168203121602B1D0222304602F002
:101C300081FA2168023121606B1D0322304602F0D7
:101C400079FA216803312160AB1D0322304602F08E
:101C500071FA21680331216005F108031022304632
:101C600002F068FA23681033236070BD70B5064631
:101C70000C46154613460822096802F05BFA2168F3
:101C8000083121606B1C0822304602F053FA2168AB
:101C900008312160AB1C0822304602F04BFA216863
:101CA000083121602B1D2022304602F043FA2168C2
:101CB0002031216005F108034022304602F03AFA53
:101CC00023684033236070BD2DE9F04182B00746A0
:101CD0000C461646984613460822096802F02AFA6E
:101CE000216808312160731C0822384602F022FA6C
:101CF00023680833236000250AE0731902330822A1
:101D00002168384602F016FA216808312160013551
:101D10000F2DF2D9B37C8DF80730B8F1000F01D048
:101D2000002517E00DF1070308222168384602F06C
:101D300001FA236808332360F2E705F11003334406
:101D4000033308222168384602F0F4F92368083387
:101D5000236001359DF80730AB42EED802B0BDE8F4
:101D6000F08100BFF0B583B007460D4616461C460D
:101D70000023FFF74DFF002306F1100229463846E5
:101D8000FFF774FF002306F1200229463846FFF7CB
:101D90009BFF96F83231502B28BF50238DF8073027
:101DA0000CB1002417E00DF107030722296838461B
:101DB00002F0C0F92B6807332B60F2E704F5987343
:101DC0003344033308222968384602F0B3F92B68FC
:101DD00008332B6001349DF80730A342EED803B0DE
:101DE000F0BD00BF70B582B005460C461646002116
:101DF000019140F279122046FFF76AFE33462A46E7
:101E000001A92046FFF7AEFF01980730C00802B0D5
:101E100070BD00BF70B506460C461546134620221D
:101E2000096802F087F92168203121602B1D022208
:101E3000304602F07FF92168023121606B1D0322D8
:101E4000304602F077F9216803312160AB1D03228F
:101E5000304602F06FF921680331216005F1080373
:101E60001022304602F066F923681033236070BDFB
:101E700000B583B0844608461346002101910160F5
:101E8000C0F80310624601A9FFF7C4FF01980730AC
:101E9000C00803B05DF804FBF0B583B007460C46FC
:101EA00016461D46009200230722096802F044F8F6
:101EB000216807312160731C0093002301223846FA
:101EC00002F03AF82168013121604DB1BB8AC1EBC3
:101ED000C301C908B170B378102B1FD8002517E0D3
:101EE000B31C009300230522384602F025F823682E
:101EF00005332360EFE773190333009300230822AF
:101F00002168384602F018F8236808332360013549
:101F1000B378AB42EFD8002003B0F0BD0120FBE75F
:101F200010B582B004460A46037F13B1818A122994
:101F300010D80021019101A92046FFF7ADFF03460B
:101F400040B9019B0733DB08227F32B1A28AD31A42
:101F500018BF0123184602B010BDA28A9A422CBFB6
:101F600000230123F6E700BFF0B583B007460D4616
:101F7000164653B1828A0B68C3EBC203DB08337089
:101F80003378C82B1DD8002415E000920822096878
:101F900001F0D2FF2B6808332B60F1E733190133CE
:101FA0000093002308222968384601F0C5FF2B68FA
:101FB00008332B6001343378A342EFD8002003B0FC
:101FC000F0BD0120FBE700BFF0B583B006460C462C
:101FD00015461F46009200230822096801F0ACFF55
:101FE0002368083323603B466A1C21463046FFF7CE
:101FF000BBFF03B0F0BD00BF10B582B004460A4677
:10200000037F13B1818ACA2910D80021019101A947
:102010002046FFF7D9FF034640B9019B0733DB0891
:10202000227F32B1A28AD31A18BF0123184602B008
:1020300010BDA28A9A422CBF00230123F6E700BFFD
:10204000F0B583B007460D4616461C4613460822D7
:10205000096802F06FF8296808312960737896F9E9
:102060000120002A04DB8DF807301CB1002416E0A3
:102070007F23F8E70DF107030722384602F05AF8EC
:102080002B6807332B60F1E73319023308222968E4
:10209000384602F04FF82B6808332B6001349DF866
:1020A0000710A142F0D803B0F0BD00BF70B582B0F8
:1020B00005460C4616460021019181222046FFF775
:1020C00007FD33462A4601A92046FFF7B9FF0198CC
:1020D0000730C00802B070BDF0B583B007460D46AA
:1020E00016461278C82A28BFC8228DF807200BB1DF
:1020F000002414E00DF107030822096802F01AF821
:102100002B6808332B60F3E7331901330822296861
:10211000384602F00FF82B6808332B6001349DF825
:102120000730A342F0D803B0F0BD00BFF8B50646B3
:102130000C4615461F4613462822096801F0FAFF8F
:102140002368283323603B4605F1080221463046C8
:10215000FFF7C2FFF8BD00BF70B582B005460C4660
:10216000164600210191CE222046FFF7B1FC3346EE
:102170002A4601A92046FFF7D9FF01980730C00879
:1021800002B070BDF0B583B007460D4616461C463A
:10219000009201231022096801F0CEFE2968103157
:1021A000296054B1BB8AC1EBC301C908718073882F
:1021B000B3F5807F1FD8002417E0B31C00930023E1
:1021C0000922384601F0B8FE2B6809332B60EEE790
:1021D000331904330093002308222968384601F09C
:1021E000ABFE2B6808332B6001347388A342EFD811
:1021F000002003B0F0BD0120FBE700BF10B582B0A6
:1022000004460A46037F1BB1818AB1F5827F10D84C
:102210000021019101A92046FFF7B4FF034640B910
:10222000019B0733DB08227F32B1A28AD31A18BF81
:102230000123184602B010BDA28A9A422CBF002387
:102240000123F6E700B596460AE040F3000C0A4A7F
:102250000CEA020282EA50000133DBB2072BF4D908
:1022600073460EF1FF3E23B111F8013B58400023A5
:10227000F4E75DF804FB00BF2083B8EDF0B583B050
:102280001F4B6A4693E80300CDE9000108231D496E
:102290001D4805F0A5FB30B304460369B3F5583F6C
:1022A00023D8418B40F21742914220D100F1180708
:1022B000164A024402F110018B421BD39B1AA3F170
:1022C000100511490020FFF7BDFF06462A46394692
:1022D0000020FFF7B7FFA368B3420DD1E368834244
:1022E0000CD1002004E00A2002E00B2000E00C20CA
:1022F00003B0F0BD1020FBE70D20F9E70D20F7E754
:10230000847A0008DC5F030000A000080860FFF783
:10231000F0B583B0204B6A4693E80300CDE9000195
:1023200008231E491E4805F05BFB38B304460369C9
:10233000B3F5583F24D8B0F8661040F217429142E6
:1023400020D100F16407174A024402F15C018B427C
:102350001BD39B1AA3F15C0511490020FFF772FF04
:1023600006462A4639460020FFF76CFFA368B342B1
:102370000DD1E36883420CD1002004E00A2002E082
:102380000B2000E00C2003B0F0BD1020FBE70D2077
:10239000F9E70D20F7E700BF907A0008905F03008F
:1023A00000A000080860FFF710B5FFF767FF0446BC
:1023B00008B9204610BDFFF7ABFF0028F9D104464D
:1023C000F7E700BF10B50446037C0BB1204610BDF3
:1023D000006805F0EDFAF9E7BFF35B8FC368BFF360
:1023E0005B8FBFF35B8F8268BFF35B8F9A4208D924
:1023F0004268BFF35B8F8168BFF35B8F521AD018BE
:102400007047BFF35B8F8268BFF35B8F981A70478A
:102410000023BFF35B8FC360BFF35B8FBFF35B8FA2
:102420008360BFF35B8F70470346406800B9704715
:10243000BFF35B8F9A68BFF35B8FBFF35B8FD96885
:10244000BFF35B8F914209D35868BFF35B8FDB68A2
:10245000BFF35B8FD21A013A1044E8E70020F4E79B
:1024600038B505460C46FFF7B7FFA04201D2002061
:1024700038BDBFF35B8FAB68BFF35B8F1C446B68E9
:10248000B4FBF3F203FB1244BFF35B8FAC60BFF30A
:102490005B8F0120ECE700BF70B504460E46154681
:1024A000FFF7C2FFA84200D3284608B9002070BD3C
:1024B0002368BFF35B8FE268BFF35B8F1344336025
:1024C0006268BFF35B8FE368BFF35B8FD11A88420A
:1024D00007D971602168B1609B1A0344F360022040
:1024E000E5E770600120E2E738B505460C46FFF7E6
:1024F0009BFFA04201D2002038BDBFF35B8FEB6889
:10250000BFF35B8F1C446B68B4FBF3F203FB124414
:10251000BFF35B8FEC60BFF35B8F0120ECE700BF84
:102520002DE9F04385B0814688466946FFF7B4FF40
:102530000746002425460EE004AB03EBC40656F81C
:102540000C2C08EB050156F8100CFFF795FA56F81D
:102550000C3C1D440134A742EEDC29464846FFF7F7
:10256000C3FF284605B0BDE8F08300BFBFF35B8F13
:10257000C368BFF35B8FBFF35B8F8268BFF35B8F72
:102580009A4210D94368BFF35B8F8268BFF35B8FB9
:102590009B1A0B6073B10368BFF35B8F8268BFF354
:1025A0005B8F98187047BFF35B8F8268BFF35B8FB8
:1025B0009B1AEEE700207047F0B583B007460E4641
:1025C0001546FFF709FF04460190A84200D32C46A8
:1025D00014B9002003B0F0BD01A93846FFF7C6FFCB
:1025E000019B6BB1A34200D901943060019B7360E1
:1025F000A3420DD23A68B260E41AF4600220E9E71F
:102600003B68336074600023B360F3600120E1E74E
:102610000120DFE72DE9F04184B088466946FFF7E5
:10262000CBFF0746002425460EE004AB03EBC406AF
:1026300056F80C2C56F8101C08EB0500FFF71CFA96
:1026400056F80C3C1D440134A742EEDC284604B089
:10265000BDE8F08138B50546FFF7DCFF04460146CA
:102660002846FFF7FDFE204638BD00BF08B500B97B
:102670000120012105F094F908BD00BF18B108B58B
:1026800005F096F908BD704708B503685B68984780
:1026900008BD00BF00207047704700BF0020704792
:1026A00000F5805090F8D800C0F34000704700BF9C
:1026B00000F5805090F9E000704700BF00F58050B1
:1026C000C0F8DC1001207047F0B583B0BDF8205091
:1026D0000C6814F0005F40F089800C7B082C00F23D
:1026E0008880302484F31188046AA66816F0806F0D
:1026F0000ED1A66816F0006F6BD1A66816F0805F49
:1027000002D04FF0020E05E0002080F311885EE059
:102710004FF0000EF4460E68002E5DDB76050EF1DC
:10272000180E4FEA0E1E44F80E600E6816F0804F29
:1027300006D00CF118063601A75947F00207A75139
:102740000F7B0CF118064FEA061E04EB06167760A5
:102750008E6804EB0C17C7F88C614E68C7F8886167
:1027600054F80E6046F0010644F80E6041F2780E0F
:102770000EEB4C14044400EB4C1CE644CEF8002055
:10278000CEF80430D1F800E04F688E68C4F808E055
:10279000E76026618E89A6820CF5845C9CF8144063
:1027A00065F300048CF81440C5F34006E4B266F308
:1027B00041048CF81440E4B224F008048CF814406E
:1027C000002484F31188009500F018FE012003B066
:1027D000F0BD4FF0010E9DE7F60046F004060EF145
:1027E000180E4FEA0E1E44F80E609EE74FF0FF30C1
:1027F000EDE74FF0FF30EAE708B5302383F31188A7
:1028000000F58050C06EFFF703FE002383F31188AC
:1028100008BD00BF2DE9F04106460F4603462F4A8A
:1028200043F8042B002444605C609C60DC601C6105
:102830005C612B4B40F8243BFEF784FC0022002314
:10284000C6E90E23A6F8404006F14400FEF77AFCE4
:1028500006F1580844467F250BE000220023C4E916
:1028600000230023238104F10C00FEF76BFC013DE3
:102870002034002DF1DA06F58053C3F858804FF468
:102880008052DA6500221A665A66012183F86810C0
:1028900006F582521832DA6683F8701006F5835412
:1028A000183402250AE0204600220023E0E8022333
:1028B000FEF748FC0023A361013D2034002DF2DA2D
:1028C00006F5805383F8E07027B9064B3362304633
:1028D000BDE8F081044800F015FD00BF6C7B0008E6
:1028E000187B0008006400409C7A000810B504467C
:1028F000034B19784A1C1A70FFF78CFF204610BD55
:1029000091390020002978D070B582B00C46424B36
:10291000994211D90A234149B1FBF4FC013BDBB2D6
:102920009E46581CBCFBF0F100FB11C131B1022BDB
:1029300065D9013BDBB2F3E71123ECE7BCFBF0FC0C
:102940000CF1FF31B1F5806F5CD2C3EBC30E1EF109
:1029500003004DD4C0F3C7008DF800001D1AEDB27E
:102960008DF80150461C4FF47A7100FB011170196B
:1029700091FBF0F189B2ADF80210B1F5617F18D981
:10298000BEF1010E36D4CEF3C70E8DF804E0A3EBF2
:102990000E03DBB28DF805300EF101004FF47A71B1
:1029A0000EFB0111034491FBF3F1ADF80610019BFE
:1029B00000939DF800104B1C9DF801502B440CFB1C
:1029C00003F31648B0FBF3F3A3421DD10139C9B29A
:1029D0000F291BD8E5B1082D1CD80CF1FF3CA2F83B
:1029E00000C000239370D170013D1571012007E0F4
:1029F0000730AFE70EF1070EC5E700207047002053
:102A000002B070BD0020FBE70020F9E70020F7E7E7
:102A10000020F5E70020F3E73F420F0000B4C404B4
:102A200070B506460D460024B4F57A7F0BD2336AA2
:102A30005B6803F00103AB4207D04FF47A7003F0F8
:102A40004BF80134F0E7002000E0012070BD00BF2A
:102A5000032963D82DE9F04188B004460D46164697
:102A600000F5805393F8D830C3F3800113F0040FBE
:102A700000D1114604F5805393F8D82061F3820207
:102A800083F8D82041F2780303EB4513E71804EBF1
:102A9000451303F5845310331B7913F0010F09D04C
:102AA000CEB104EB451303F5845310331B7913F0B7
:102AB000080F13D07EB104EB451303F58453103394
:102AC0001B7913F0080F06D104EB451404F5845468
:102AD00043F00803237508B0BDE8F081002200230D
:102AE000CDE900230023ADF808300DF10C08404675
:102AF000FEF728FB4346B868F9683A6907C3BA8A03
:102B00001A80DDE90E23CDE900230123ADF808305A
:102B100023689B6B694620469847CBE7704700BF08
:102B2000026A936913F0700F25D00023936100E0CF
:102B30000133022B1FDC00EB431202F584521032EA
:102B4000127912F0040FF3D000EB431202F5845215
:102B50001032127912F0020FEAD0026A064951F8D7
:102B60002310916000EB431202F58452117D41F075
:102B700004011175DCE77047547B000870B582B022
:102B8000044616461D46036A9A6812F0010F16D1D4
:102B9000236A9A6812F4807F1CD1236A9A6812F41F
:102BA000803F24D104F58053D3F8DC0010B10368D2
:102BB0001B6998472046FFF7B3FF02B070BD9A68C3
:102BC0000121996000960195C2F340020021FFF7B0
:102BD0003FFFDDE79A684FF4807199600096019598
:102BE000C2F3402201212046FFF732FFD5E79A6861
:102BF0004FF48031996000960195C2F34042022162
:102C00002046FFF725FFCDE710B50B4B1C5604B14E
:102C100010BD00F081FB02460B4652EA030102D0D0
:102C2000013A43F1FF33054951F824000028EFD061
:102C3000FFF7A4FFECE700BF607B00089439002099
:102C400038B50446084600297CD1216A01F10C0CF4
:102C5000DCF8001011F0030F73D0DCF80010216ACB
:102C600000F11B052D014D5915F0040F6ED100F137
:102C70001B052D014D596D0D656200F11B052D01E0
:102C80004D5915F0020F03D0656A45F08045656225
:102C900000F11B0501EB05156D6805F00F0E84F8BA
:102CA00030E001EB0011D1F8B80184F82800D1F828
:102CB000B801000A84F82900D1F8B801000C84F8A2
:102CC0002A00D1F8B801000E84F82B00D1F8BC011D
:102CD00084F82C00D1F8BC01000A84F82D00D1F84A
:102CE000BC01000C84F82E00D1F8BC11090E84F848
:102CF0002F103821CCF80010656AA06AE16A65647B
:102D0000A064E164218EA4F85010A263E363002361
:102D1000A4F8403023689B6B04F1380120469847A3
:102D200004F5805393F8D82042F0040283F8D820A9
:102D3000D3F8DC0010B103681B6998472046FFF701
:102D4000EFFE38BD216A01F1100C81E700F11B058F
:102D50002D014D59ED08656245F0004565628CE72F
:102D600038B50C4B1D5605B138BD0C4600F0D4FAF1
:102D700002460B4652EA030102D0013A43F1FF3307
:102D8000054951F825000028EED02146FFF758FFED
:102D9000EAE700BF607B000894390020302181F30E
:102DA00011880021022937DC30B502E00131022907
:102DB0002EDC00EB411C0CF5845C0CF1100C9CF833
:102DC00004C01CF0040FF1D100EB411C0CF5845C35
:102DD0009CF8144014F0100FE8D000EB411C41F2B5
:102DE00078040CEB040E5CF80450DEF804409542C5
:102DF0009C41DBD2046A0A4D55F82150A5600CF5C0
:102E0000845C9CF8144044F004048CF81440CDE732
:102E1000002383F3118830BD002383F311887047AA
:102E2000547B000808B5302383F31188FFF778FE40
:102E3000002383F3118808BD036A9B6813F0E05FE9
:102E400001D0012070470020704700BF08B5302333
:102E500083F3118800F58050C06EFFF7BDFA0023A0
:102E600083F311881F288CBF0020012008BD00BFFC
:102E7000F8B507460E4614461D4600231370FFF7AB
:102E8000E5FF80F0010333701DB13846FFF7D4FF32
:102E90002070F8BDF8B504460D4616461F4600F0F2
:102EA0003BFA02460B46297809B9307860B12046D2
:102EB000FFF774FF2046FFF7B5FF3B463246294631
:102EC0002046FFF7D5FF0120F8BD00BF302383F374
:102ED00011881B4B9A6D42F000729A659A6B42F012
:102EE00000729A639A6B22F000729A63002383F354
:102EF000118800F5805393F8D83013F0010F1ED1DC
:102F000010B5044601B910BD302383F311880321A5
:102F1000132001F07DFD0321142001F079FD032130
:102F2000152001F075FD04F5805494F8D83043F075
:102F3000010384F8D830002383F31188E3E7704756
:102F40000010024000F5805393F8E030012B00F2AE
:102F500022812DE9F0418AB005460F468F4A52F88A
:102F60002320002A35D0EF618C4B1B68002B34D016
:102F700005F5805393F8E030012B06D1874B186894
:102F800003689B6A9847002836D001212846FFF73E
:102F90009DFF302383F311882A6A136823F002030C
:102FA00013602A6A136843F0010313602A6A00233E
:102FB000536183F3118801212846FFF731FD034651
:102FC00040BB2A6A4FF40041116018460AB0BDE8C0
:102FD000F081724A42F82300C5E741F2E800FFF7AA
:102FE00045FB044610B10021FFF714FC6B4B1C603D
:102FF000002CBDD10023E8E7684C00212068FFF7D2
:1030000065FF206803685B683946984703460028D7
:10301000BBD1DAE705F58053D86EFFF7F9F94FF029
:10302000000827E0202200216846FEF751FD02A893
:10303000FEF788F80023069341F2780606EB48165F
:1030400005EB060EEC46BCE80F00A851CEF80410C4
:10305000CEF80820CEF80C30BCE80700CEF81000FF
:10306000CEF81410CEF818209CF800308EF81C30E2
:1030700008F10108B8F1020FD4D905F5805292F891
:10308000D83023F0040382F8D8300023ADF8203084
:103090008DF822308DF823308DF8243008AA394677
:1030A0002846FFF72FFC034620B92A6A4FF4004157
:1030B00011608AE72B6A65221A609DF822301B0690
:1030C00003F040739DF82320120402F4702213438E
:1030D0009DF82420120502F4E0021343BDF82020DD
:1030E000C2F30902296A1343CB612B6A13225A6186
:1030F0002A6A136823F00103136000212846FFF7B2
:103100008FFC0346002841D005F5805292F8E0205C
:103110009ABB296AD1F8002242F00102C1F80022CC
:10312000296AD1F8002222F47C5222F00E02C1F862
:103130000022296AD1F8002242F46062C1F800221C
:10314000296A0022C1F81422296AC1F80422296AD6
:1031500041F6FF70C1F80C02296AC1F84022296AC1
:10316000C1F844222A6A0121C2F81C12296AD1F846
:10317000002222F00102C1F8002205F5805595F8E1
:10318000D82042F0020285F8D8201EE72A6A4FF4C0
:103190000041116019E70023184670479439002058
:1031A00008B50020FFF730FD01F0B8FA08BD00BFF8
:1031B00008B500210846FFF7D3FD01F0AFFA08BDBE
:1031C00008B501210020FFF7CBFD01F0A7FA08BDEB
:1031D00038B504460D460068FFF726F91F2801D8C8
:1031E000002038BD202229462068FFF799F92028C1
:1031F00014BF00200120F4E708B500F583500C301F
:10320000FFF7E6FF08BD00BF38B504460D4600686D
:10321000FFF7E2F81F2801D8002038BD20222946F8
:103220002068FFF717FA202814BF00200120F4E7D8
:10323000F0B589B005460C4616461F46302383F389
:10324000118800220023CDE900230023ADF80830C7
:1032500003A8FDF777FF694605F583500C30FFF7AB
:10326000D3FF18B980F3118809B0F0BD03AB07CBC9
:1032700020606160A2601B88A381DDE90023C6E9AC
:103280000023BDF808303B80002383F311883B46C0
:1032900032462146284600F04BF8E5E700B59BB0E2
:1032A000EFF3098168226846FEF7E6FBEFF305833A
:1032B000014B9B6BFEE700BF00ED00E000B59BB04B
:1032C000EFF3098168226846FEF7D6FBEFF305832A
:1032D000014B9B6BFEE700BF00ED00E000B59BB02B
:1032E000EFF3098168226846FEF7C6FBEFF305831A
:1032F000014B5B6BFEE700BF00ED00E0FEE700BFA7
:10330000FEE700BF0FB408B5029802F07FFBFEE7AE
:1033100008B503F02DF808BD08B503F005F808BDA1
:10332000002070470120704700207047704700BFA1
:103330002DE9F04383B01E461B8813F0040F1ED105
:1033400005468946041D00F11C080CE02B685B6BE8
:1033500028469847338843F004034A46C1B22068A0
:103360006768B8470834444509D0002000900190B0
:103370002368002BEAD16368002BE7D1F2E7012034
:1033800003B0BDE8F08300BF84B0CDE90012002295
:1033900001E00132D2B2022A18D800210291039131
:1033A00000EBC20149680029F3D100EBC201896832
:1033B0000029EED100EBC20000F1040CDDE90001B0
:1033C0008CE8030001321A70012000E0002004B0F4
:1033D000704700BF0139C9B202290DD882B000235D
:1033E0000093019300EBC100031D02AA12E9030040
:1033F00083E8030002B07047704700BF2DE9F04733
:103400008AB005468A46BDF84870041D00F11C08C4
:103410004FF0000906E0636863B902E0B9F1000FFC
:1034200016D00834444539D0002308930993236803
:10343000002BF0D017F0040FF0D12B685B6B2846FF
:1034400098473B465246C1B220686668B047E8E7F5
:1034500000220023CDE900230023ADF808300DF150
:103460000C094846FDF76EFE4B46DAF80000DAF824
:103470000410DAF8082007C3BAF80C201A80FFF706
:103480004BFFCDE900010423ADF808302B689B6B9E
:103490006946284698474FF00109C2E701200AB063
:1034A000BDE8F087084670470846704708467047F1
:1034B00008467047401A83B2002800DB704720336B
:1034C00018B2FBE703780133DBB203701F2B01D97D
:1034D00000230370704700BF0E2809D8DFE800F012
:1034E0001515151515151515150A0C0E10121400C5
:1034F000402070470C207047102070471420704700
:10350000182070472020704730207047082818D9AD
:103510000C280BD910280BD914280BD918280BD933
:1035200020280BD930280BD90F207047092070476D
:103530000A2070470B2070470C2070470D20704701
:103540000E207047034621F0604C20F06042C00F0F
:1035500091EA030F0AD4C1F38071C3F380709445DC
:1035600014D094452CBF002001207047002908DBAF
:10357000002B09DB9445F8D094452CBF0020012096
:1035800070474FEA9C4CF3E7920CF3E78142ECD191
:10359000E7E700BF2DE9F04107460D46D0F824804B
:1035A000B8F1000F0CD046464446A4B16968606883
:1035B000FFF7C8FF30B9236826465BB11C46F4E725
:1035C000796208E0A04502D035602C6003E02C60F1
:1035D0007D6200E02560BDE8F08100BFC37DC3F3DC
:1035E0008402013262F38603C375C38A6FF3090351
:1035F000C382C37D23F08003C375704738B504468A
:103600000D46006A04E0016804F10C00FFF74EFF6C
:1036100010B10369AB42F6D138BD00BF2DE9F043CC
:10362000079ECD0803EBD60401F0070E06F0070352
:1036300072442AE00EF0070803F00706C446B045BE
:1036400038BFB446CCF1080CA2EB0E018C4528BF64
:103650008C464FF47F4121FA0CF1C9B241FA06F7CA
:103660004FEADE0100EB050919F8011001FA08F133
:10367000F140C9B24FEAD30814F8086071403940EC
:103680004E4004F80860E64463449645D2D1BDE854
:10369000F08300BF2DE9F04F87B00393838AB1EB2D
:1036A000C30F80F0878082460E461546DA006918FF
:1036B0008A4203D2D3B2F2B29B1ADDB2DAF80C30EE
:1036C00043B3272E36D8C6F128039D4230D35FFA84
:1036D00086FBCBF1280B5FFA8BFB00230093039B47
:1036E0005A463146DAF80800FFF798FF5E44A5EB2A
:1036F0000B04E4B2BAF8147007F10057053FFF005D
:10370000DAF80C9028214B46B946CDF810A0059563
:103710001F4626E0DAF81030002BD2D100230093A8
:10372000039B2A463146DAF80800FFF777FF35E0B9
:10373000AB46D2E72C464FF0000BDBE72546CDF831
:1037400000B0039B2A46711A381DFFF767FF2E440D
:10375000AB445FFA8BFB651BECB2A9EB0A093F682F
:103760004146A7B19CB1CA46B9F1E00F28BF4FF05E
:10377000E00A0AEB01084645EFD2A8EB06039C429B
:10378000DCD35FFA88F5F3B2ED1AEDB2D7E7DDF8D6
:1037900010A0059DDAF8100000B11CB928B207B0DE
:1037A000BDE8F08FCDF800B0039B2246711AFFF7F9
:1037B00035FFF3E70020F2E70020704701390023CE
:1037C00007E0C25C10F801C000F803C042540133A6
:1037D00001398B42F5D3704780EA0120002307E0CE
:1037E000400080B280F4815080F001000133DBB2F0
:1037F000072B05D810F4004FF2D1400080B2F5E756
:10380000704700BF70B516461D46002411E0C4F194
:103810002003A4F1200C26FA04F105FA03F319435E
:1038200025FA0CFC41EA0C01C9B2FFF7D5FF0834B8
:10383000A4B23F2CEBD970BD38B50C4604E014F8A7
:10384000011BFFF7C9FF2A46551E002AF7D138BDD4
:1038500038B5058C072D0BD90446D0E902234FF665
:10386000FF70FFF7CFFF2A46E169FFF7E5FF38BD9C
:103870004FF6FF70FBE700BF10B4016100F1040CCC
:10388000002305E001EB4314CCF80040A4460133CB
:103890009A42F7D80023CCF800300281438183811B
:1038A00003605DF8044B70470346406848B1026806
:1038B0005A605A89013292B25A8199898A4200D952
:1038C0009A81704708B5FFF7EFFF08B10023036046
:1038D00008BD00BF2DE9F84F8246894617461D46B0
:1038E000CB8AC3F30903052B32D018460024042BDE
:1038F0000AD8A54208D9395D09EB0302D176013314
:103900009BB20134A4B2F2E7A54218D9B9F816B0B7
:10391000CBF3090BABF1050293083D49A1FB03135F
:10392000C3EBC303A2EB83021FFA82F8D9F8041099
:1039300081B15046FFF7B6FD064601231CE028443E
:10394000B9F8163060F30903A9F81630012054E0E5
:103950000024DBE75046FFF7B5FF06460146504618
:10396000FFF7A2FDC9F80400002E48D04FF0000870
:103970002CE001339BB216463268002AF9D105EBE0
:103980000B02053A92082249A1FB021292B20132BF
:1039900092B293421AD2B8F1000F17D15046FFF7F6
:1039A00091FF306070B3064610E03A5D06EB0C0301
:1039B0001A710CF1010C1FFA8CFC0134A4B2BCF199
:1039C0001B0F01D8A542F0D8A54203D8A5420AD9B9
:1039D000C446F4E75046FFF775FF3060A8B10646CD
:1039E0004FF00008F2E7B9F81630C3F309021544A6
:1039F00065F30903A9F816300120BDE8F88F6FF0D0
:103A00000200FAE76FF00200F7E76FF00200F4E758
:103A10002549922443680B6041604389013B4381FF
:103A2000704700BFF8B506460D460EE006F10C04DF
:103A30002046FFF737FD014607682046FFF7EAFFFB
:103A400039462046FFF730FD686069680029EDD1EE
:103A5000EB8A6FF30903EB8200200021F8BD00BF61
:103A600008B5FFF721FF034628B10022026042603B
:103A70008260C2600261184608BD00BF2DE9F04FA8
:103A800083B001921D465B69002B00F0998081464E
:103A90008B462B8C1BB1EA69002A00F09480072B1F
:103AA00018D902339BB206334D4A82FB03121344EA
:103AB000C3F38F03B9F81420B9F81610521A92B252
:103AC000934200F286804FF0800A4FF0000844468F
:103AD000474654E009F10C00FFF7C2FF04460028F6
:103AE00074D02A8CE9690830FDF7C6FF288C0130B4
:103AF00080B2FFF70BFDFFF7EFFC431E9BB22B8458
:103B0000013323746B691B7803F01F032A8C43F085
:103B1000C003224413724BF00043636021464846C1
:103B2000FFF738FD0127384603B0BDE8F08F0020CD
:103B300035E02B8CA34240D0013080B2FFF7E6FC89
:103B4000FFF7CAFC431E9BB24FEA4812D2B242EAC8
:103B50000A026969097801F01F010A43F1180A7223
:103B60004BF0004272600133337431464846FFF730
:103B700011FD01373FB288F001084FF0000A2B8C8D
:103B8000A342D0D009F10C00FFF76AFF064618B334
:103B9000002CCCD1019B03721B0A43720220062821
:103BA000C7D82B8CA342C4D9EB691A5D33181A729B
:103BB000013080B20134A4B2F1E74FF0400ABBE714
:103BC0006FF00107AFE76FF00107ACE76FF0020796
:103BD000A9E76FF00207A6E76FF00207A3E700BFAF
:103BE0009324499230B589B004460D462022002125
:103BF0006846FDF76DFF04952046FFF755FE8646A3
:103C0000A0B1EC46BCE80F00CEF80000CEF80410DE
:103C1000CEF80820CEF80C30BCE80F00CEF810002B
:103C2000CEF81410CEF81820CEF81C30704609B02B
:103C300030BD00BF70B5044600F10C063046FFF7FA
:103C4000D1FF054628B1216A3046FFF731FC2860D4
:103C50002562284670BD00BF38B504460D46036A8C
:103C60001BB1FFF7CBFC38B138BD0C30FFF7BAFF02
:103C70000028F9D02062F7E729462046FFF7DAFF4F
:103C8000F2E700BFF8B504460E4615461F4630223F
:103C90000021FDF71DFFA760069B6360079BA362E1
:103CA0006A09B5F5001F01D34FF6FF7292B2314693
:103CB00004F10C00FFF7E0FDF8BD00BF037823B965
:103CC00019B111F0800F00D1017070470078704772
:103CD0002DE9F84305460C46D1F81C90B9F1000FC8
:103CE00022D094F81880B8F11F0F3AD82846FFF771
:103CF000EDFF0646F0B9228C072A35D8278A032F14
:103D000035D849464FF6FF70FFF796FD47F6FE732C
:103D100003405B0243EA08633F0207F440773B43FA
:103D20001E434FF6FF720EE00B8C002BD9D06FF0C4
:103D300001050FE0238A1B0243EA08631E43204665
:103D4000FFF786FD0246234631462846FFF796FEDA
:103D5000051E02DC2846BDE8F8836069FFF7B2FB68
:103D6000F8E76FF00105F5E76FF00305F2E76FF094
:103D70000105EFE7F0B58BB0044616461D46282234
:103D800000216846FDF7A4FE02960395BDF8403079
:103D9000ADF81030119B05939DF848308DF8183020
:103DA000139B0793BDF85030ADF82030694620468C
:103DB000FFF78EFF0BB0F0BD2DE9F04106460F4630
:103DC0001546D3692BB395F81880B8F11F0F2AD880
:103DD0003046FFF77BFF48B32C8A240444EA08648A
:103DE0002A7844EAC23444EA0724044344F08004B5
:103DF0002846FFF72DFD02462B4621463046FFF7A9
:103E00003DFE041E02DD2B78012B08D02046BDE8C4
:103E1000F081138C002BD6D06FF00104F6E76869AF
:103E2000FFF750FBF2E76FF00104EFE76FF00304D8
:103E3000ECE700BF2DE9F0418AB004460D46174675
:103E40001E46282200216846FDF742FE9DF84C30B0
:103E5000012B14BF002301238DF800300297039635
:103E60009DF84030ADF81030119B05939DF8483017
:103E70008DF81830149B0793BDF85430ADF82030FE
:103E80006A4629462046FFF797FF0AB0BDE8F08151
:103E9000406A00B10430704708B5416A0B6843625C
:103EA0000C30FFF7B7FD08BD2DE9F0410546164679
:103EB0009846076A3C4619E021462846FFF7B2FDBE
:103EC00005F10C072B6A19683846FFF7EFFA2862EC
:103ED00021463846FFF79EFD2C6A274606E02168FA
:103EE00005F10C00FFF7E2FA2746044604B3A16887
:103EF000E368711A68EB03030E4A8A424FF000022E
:103F00009A41ECD22B6AA342D6D021462846FFF72D
:103F100089FD23683B6005F10C0321461C461846C9
:103F2000FFF778FD39682046FFF7C0FA0446DDE761
:103F3000BDE8F08180841E002DE9F04182B0089E2A
:103F4000002800F0DF8014461D460746002E00F0D2
:103F5000DC80013AD2B23F2A00F2DA80012C02D191
:103F6000002B40F0D8806B4600220092019222463E
:103F70003846FFF78FFB071E3DDD14F0070F0CD00E
:103F800002AB03EBD40111F8083C624202F00702D5
:103F9000134101F8083C012C0BD0082C0BD9102C34
:103FA0002DD9202C2ED9402C00F2B8804FF00808D3
:103FB00003E0A04601E04FF00108FFF7FDFB20BB46
:103FC000002D6FD0B4EBC80F10D0082C22D89DF86C
:103FD0000020631E22FA03F313F0010F06D0012321
:103FE000A3405B42DBB21A438DF80020082C61D855
:103FF0009DF900303370384602B0BDE8F0814FF0D3
:104000000208DAE74FF00408D7E741466846FFF7B1
:10401000D5FBD5E7102C0FD8BDF80020631E22FA7F
:1040200003F313F0010FE1D00123A3405B429BB2E5
:104030001A43ADF80020D9E7202C0CD8009A631E53
:1040400022FA03F313F0010FD0D00123A3405B4207
:104050001A430092CAE73F2C63D8009D019A631E61
:10406000C4F12100A4F1210125FA03F302FA00F0C2
:10407000034322FA01F10B4313F0010FB6D00123E1
:10408000A4F12001C4F1200003FA01F123FA00F0A9
:104090000143A3405B4261EB41011D430A4300958C
:1040A0000192A3E7012C17D0082C19D89DF80030F5
:1040B0003370A0E7102C03D8BDF9003033809AE7A5
:1040C000202C02D8009B336095E7402C2CD8DDE9EA
:1040D0000023C6E900238EE79DF8003033708AE79D
:1040E000102C03D8BDF80030338084E7202C02D890
:1040F000009B33607FE7402C19D8DDE90023C6E937
:10410000002378E76FF0010775E76FF0010772E7AA
:104110006FF001076FE76FF001076CE76FF00807BA
:1041200069E76FF0080766E76FF0080763E76FF06D
:10413000080760E7F0B585B005460E46402A03D86B
:10414000144612B9012400E0402400220292039296
:10415000012C06D0082C22D81B788DF808300127B6
:1041600003E01B788DF808302746FFF725FB68BB76
:1041700014F0070F0AD004AB03EBD40111F8083C8C
:10418000624202F00702934001F8083C00962B4679
:104190002246002102A8FFF741FA05B0F0BD102C1D
:1041A00004D81B88ADF808300227DEE7202C03D89E
:1041B0001B6802930427D8E7402C05D8D3E90023D5
:1041C000CDE902230827D0E70027CEE7394602A829
:1041D000FFF7F4FACCE700BF70B506460C4605E0E1
:1041E0000D6806F10C00FFF715FCE560E168002999
:1041F000F6D10023E360A3602361A38270BD00BFFA
:1042000010F0800F04D010F4004F03D0012070474D
:10421000022070470020704710B50446FFF7F0FFFA
:10422000022802D0C4F3074010BDC4F30F2014F0DD
:104230007F0FF9D100F00300F6E700BF2DE9F04F42
:1042400099B006460D4605920693D1F8009048466F
:10425000FFF7D6FF0746022800F0E580C9F30628DD
:10426000B9F1000F80F2038219F0C04F40F00282D2
:104270002C7B002C00F00182022F05D03046FFF786
:1042800025FD404540F0FC81C9F304630A9309F021
:104290007F0104914846FFF7BFFF099040EA0749B4
:1042A000049949EA814949EA4869013C2C4494F857
:1042B000048000220023CDE916235FEAD81302937D
:1042C00000F0B480746800913B46024616A930465F
:1042D000A047002800F0D78149463046FFF7BCFCD4
:1042E0000446002800F0D281A368D4F80CA0059AF7
:1042F0000393D21A0792069860EB0A0008906A7B33
:104300000B92A07E0C9094F81790C9F3840908F0E2
:104310001F0B59464846FFF7CDF80D9049465846C1
:10432000FFF7C8F86268039B53EA0A0A18D08D4B5E
:1043300007998B424FF0000308998B4110D30B9BD8
:104340000C998B4200F08880874B079A93424FF07C
:104350000003089A934114D2029B93B10F2810DCFA
:10436000E37D68F38603E375DBB223F08003E37536
:1043700021463046FFF756FB6B7BA376029B002B52
:1043800076D06A7BA37E9A4240F08681029B13B16D
:1043900018F0400F76D1E27DC8F34013B3EBD21F83
:1043A00040F07E81C2F384039B4540F07C81029BF8
:1043B000002B00F0A38018F0400F40F0A2802B7B70
:1043C000032B40F27381059BA360069BE360E38AA5
:1043D0006FF30903E382AF1D2B7B033BDBB23A464D
:1043E000214606F10C00FFF775FA00287CDB2B79DB
:1043F0006A7943EA02232383DDE916234FF6FF702F
:10440000FFF700FAA0822A7B033AD2B23946FFF7BF
:1044100013FAA082E37DDA43C2F3C01262F3C7133A
:10442000E375002039E14FF0000819E749463046AE
:10443000FFF7E4F8044600287FF456AF7468049B45
:1044400000933B46099A16A93046A047002840F041
:1044500020816FF00B0020E1029B002B3FF474AF32
:104460000D9B012B3FF77CAF002A7FF479AF6BE700
:10447000E37DC3F38402013262F38603E3756FF0D8
:104480000C000AE1059BA360069AE2600DF1380872
:10449000202200214046FDF71BFB059B0E93069A48
:1044A0000F922B1D10932B7B013BDBB2ADF84C30F0
:1044B000099BADF84E308DF850708DF851B00A9BC5
:1044C0008DF85230049B8DF8533096F82C3083F0E1
:1044D00001038DF85430B368414630469847204672
:1044E000FFF77CF80020D8E021463046FFF79AFA23
:1044F0002046FFF773F86FF00200CEE018F0400F8F
:1045000010D095F80C9009F1FF395FFA89F9B4F8E9
:104510001680C8F30908B8F1040F7BD843464FF062
:1045200000082DE02F1D2B7B013BDBB23A462146D4
:1045300006F10C00FFF7CEF9002808DB2A7B013AD0
:10454000D2B23946A08AFFF777F9A08262E7214606
:104550003046FFF767FA2046FFF740F86FF0020099
:104560009BE000BF80841E0040420F0005EB080264
:104570001179E218D176013308F101085FFA88F861
:10458000042B01D8C845F1D3059B0E93069B0F93CE
:1045900004F11B031093616806F10C00FEF782FF23
:1045A0001190C8455AD2A84408F104031293E38A33
:1045B000C3F309039944ADF84C90099BADF84E3014
:1045C0008DF850708DF851B00A9B8DF85230049BD5
:1045D0008DF8533096F82C3083F001038DF8543069
:1045E000002363602A7B013A291DA08AFFF724F982
:1045F000A082238B984233D00EA93046FFF7ECFD02
:104600002046FEF7EBFFA28A238B9A422DD06FF053
:10461000100042E0616806F10C00FEF743FF02461D
:1046200008B1052104E04FF00008ADE71C311A463F
:104630001368002BFAD1A8EB01034FF000081B2BE5
:10464000A2D8C845A0D205EB08010879D118087195
:10465000013308F101085FFA88F8F0E70023A5E7C5
:10466000B3680EA930469847C6E7002015E06FF002
:10467000090012E06FF009000FE06FF009000CE094
:104680006FF00A0009E06FF00B0006E06FF0020027
:1046900003E06FF00C0000E0002019B0BDE8F08FDF
:1046A0006FF00D00F9E76FF00E00F6E76FF00F0006
:1046B000F3E700BFEFF30983683305494A6B22F043
:1046C00001024A6383F30988002383F3118870474A
:1046D00000EF00E0302080F3118862B60C4BD968FF
:1046E00021F4E0610904090C0A4A0A43DA60D3F8AC
:1046F000FC2042F08072C3F8FC2007490A6842F0AF
:1047000001020A602022DA7783F82200704700BF96
:1047100000ED00E00003FA05001000E0302383F311
:104720001188104B5B6813F4006F03D1002383F3EF
:104730001188704710B5F1EE103AEFF30984683C28
:104740004FF08073E361084BDB6B236684F30988C9
:1047500001F018F910B1054BA36110BD044BA36122
:10476000FBE700BF00ED00E000EF00E013030008EE
:104770001603000810B4C26D8166036E0C6803EB6B
:104780005403B3FBF4F34C6814F4004F05D023F04A
:10479000070403F0070343EA4403D3608B6843F044
:1047A00040035360CB6843F0010393604B6843F4CC
:1047B000967343F0010313604FF0FF3313624B68AD
:1047C00013F4806F11D013F0102306D0B3F1805F83
:1047D00007D0FF2380F864300AE07F2380F864303C
:1047E00006E03F2380F8643002E0FF2380F8643065
:1047F0005DF8044B704700BF08B5024611F008038E
:1048000001D04FF4807311F0010F01D043F0200369
:1048100011F0020F01D043F0400311F0040F01D05A
:1048200043F08003302181F31188101D51680B4340
:104830005360936803B19847002383F3118808BD40
:10484000024A136843F0C003136070470038014008
:1048500010B582B00C4C204600F0A2FA0094002360
:1048600020220A4904F1140000F04EF90094084B8C
:104870002022084904F1380000F0CCF9064BE3652A
:10488000064B236602B010BDDC390020BC39002085
:10489000414800089C3900200038014000B4C4049D
:1048A00008B529B1037C012B04D0FFF763FF08BDD5
:1048B0000949F7E7094B9842F7D1094B1A6E42F4C0
:1048C00080421A66D3F8802042F48042C3F88020E8
:1048D000D3F88030E9E700BFA87B0008DC3900206E
:1048E00000100240F8B50646C56DEC692C6214F064
:1048F0000F0F11D114F4807F20D0302383F311885F
:10490000301D736843F480637360B36803B19847E4
:10491000002383F3118811E02146FFF76DFFE9E7DB
:10492000302383F31188AB8C96F86410194030461D
:1049300000F050FA002383F31188EC6914F0200F83
:10494000EED12F6817F0800F27D117F0400F0CD051
:1049500014F0400F09D0302383F31188F26C336DCB
:104960009A422DD0002383F311882F6014F0100F8A
:1049700004D0B26E13690BB150699847F8BD301D71
:10498000736843F008037360B36803B1984727F076
:104990008007002383F31188D7E714F0800FD4D069
:1049A000302383F3118806F1380000F067F90028FE
:1049B000E5DB80B22885002383F31188EC69ECE7FE
:1049C000336C002BCED0301D736843F0100373603E
:1049D000B36803B1984727F04007C3E710B44FF01E
:1049E000E0235C6800230BE0084A03F120004FF04D
:1049F000FF3142F8201003F1600042F8201001332B
:104A0000A342F1D95DF8044B704700BF00E100E01C
:104A10000901C9B2074A131883F8001300F01F01F7
:104A2000400901238B4000F1600142F8213042F837
:104A30002030704700E100E02DE9F04104460F46C8
:104A400015468368934200D285682669A169761A63
:104A5000B54215D3B5421BD932463846FDF70CF89E
:104A6000A5EB06084246E168B819FDF705F8E368CA
:104A70004344A361A3685B1BA3602846BDE8F081A3
:104A80002A463846FCF7F8FFA3692B44A361F1E7F7
:104A90002A463846FCF7F0FFE368A361EAE700BF67
:104AA0002DE9F04104460F4615468368934200D233
:104AB000856826696069361AB54215D3B5421BD997
:104AC00032463946FCF7D8FFA5EB06084246B9192D
:104AD000E068FCF7D1FFE36843446361A3685B1BB4
:104AE000A3602846BDE8F0812A463946FCF7C4FF9A
:104AF00063692B446361F1E72A463946FCF7BCFF42
:104B0000E3686361EAE700BF10B40060406000241E
:104B10008460C1608161416111440161C361019B95
:104B200003625DF8044B704708B54369826993429C
:104B300010D08268013282605A1C42611970426949
:104B400003699A4201D3C3684361002100F0E2FF88
:104B5000002008BD8268002AEBD04FF0FF30F8E754
:104B600038B505460C46302383F31188AB684BB942
:104B70002146284600F0BCFF0028F7DA002383F323
:104B8000118813E0AB68013BAB60AA69531CAB61B1
:104B900014782A69934201D3EB68AB61EB690BB1DE
:104BA00028469847002383F31188204638BD00BF6C
:104BB0002DE9F04707460D4692469946D0F81C80ED
:104BC000302383F31188144613E04946384600F039
:104BD0008FFF70B1002383F31188AAEB0400BDE8B6
:104BE000F087002383F31188A41B3544302383F31B
:104BF0001188002CEED0224629463846FFF71CFFCC
:104C000006460028E1D0B8F1000FEAD03846C04788
:104C1000E7E700BF006040608260C1608161416180
:104C200011440161C361009B0362704770B5044683
:104C30000E461546302383F31188A3684BB92946E5
:104C4000204600F055FF0028F7DA002383F311888F
:104C500013E0A368013BA36063695A1C62611E7084
:104C6000626923699A4201D3E3686361E3690BB126
:104C700020469847002080F3118870BD42698369FF
:104C80009A4210D010B58268013282605A1C82614B
:104C90001C7803699A4201D3C3688361002100F044
:104CA00039FF204610BD8268002AEBD04FF0FF305C
:104CB000704700BF2DE9F04707460D4692469946DA
:104CC000D0F81C80302383F31188144613E0494642
:104CD000384600F00DFF70B1002383F31188AAEB72
:104CE0000400BDE8F087002383F31188A41B35443A
:104CF000302383F31188002CEED022462946384613
:104D0000FFF7CEFE06460028E1D0B8F1000FEAD04A
:104D10003846C047E7E700BF012901D100207047AE
:104D20006FF01300704700BF08B51430FFF740FF65
:104D300008BD00BF08B54FF0FF331430FFF738FF50
:104D400008BD00BF08B53830FFF7B4FF08BD00BF8D
:104D500008B54FF0FF333830FFF7ACFF08BD00BF98
:104D600008B51430FFF7FCFE08BD00BF08B54FF0D2
:104D7000FF311430FFF7F4FE08BD00BF08B538302E
:104D8000FFF754FF08BD00BF08B54FF0FF323830C1
:104D9000FFF74CFF08BD00BF08B5FFF759FD08BD80
:104DA000044B0360002343608360C36001230374EA
:104DB000704700BFC07B000810B50446302383F362
:104DC0001188FFF76DFD02232374002080F3118802
:104DD00010BD00BF38B504460D46C3693BB9043069
:104DE000636843F004036360A36803B198472946EE
:104DF00004F11400FFF798FE002800DB38BD201DE9
:104E0000636843F400636360A368002BF6D098479F
:104E1000F4E700BF09B1002070476FF0130070473E
:104E200010B582B0446BD4F894341A681178042910
:104E300008D1217C022905D11289197901238B40DF
:104E4000134201D002B010BD01A904F14C0002F0E0
:104E500061FA0246D4F89444019B2179206800F05D
:104E6000CFFBEFE7D0F894341A68117804291BD1EE
:104E700010B50446017C022918D1528959790123C1
:104E80008B40134201D0012011E0143002F056F99A
:104E9000024668B1D4F894044FF4807341790068F5
:104EA00000F098FB002002E001207047012010BDB7
:104EB0000120FCE708B5406BFFF7D4FF08BD00BF39
:104EC00008B5143002F0A8F908BD00BF08B54FF0CE
:104ED000FF33143002F0A0F908BD00BF08B54C3014
:104EE00002F08EFA08BD00BF08B54FF0FF334C301A
:104EF00002F086FA08BD00BF08B5143002F06CF964
:104F000008BD00BF08B54FF0FF31143002F064F95E
:104F100008BD00BF08B54C3002F04EFA08BD00BF16
:104F200008B54FF0FF324C3002F046FA08BD00BF22
:104F3000704700BF70B584B00446124B0360002375
:104F400043608360C3600125057402900E4B01939A
:104F5000022600964FF4807300F184022946143033
:104F600002F0C6F80294094B019300964FF4807347
:104F700004F52372294604F14C0002F0A3F904B0B1
:104F800070BD00BFE87B0008B54E0008214E000848
:104F9000302383F311880A680B79073302EB83030C
:104FA00058604B790D3342F823008B791BB10733DE
:104FB00002EB83025060C0F89414022303740020B3
:104FC00080F31188704700BF38B50446037F13B1E2
:104FD00090F85430BBB9201D636843F0020363604E
:104FE000A36803B19847012525776FF0010104F10B
:104FF000140000F09BFD84F854506FF0010104F19F
:105000004C0000F093FD38BD10B50446436843F0F2
:105010000103436083680BB1043098470023237772
:1050200084F8543010BD00BF38B50446143002F087
:1050300077F80025257704F14C0002F05DF984F83B
:105040005450636843F001036360A3680BB1201DF3
:1050500098472046FFF706FF38BD00BF90F85C3048
:1050600003F06003202B01D00020704790F85D30E2
:10507000212B05D0222B13D0202B09D000207047E4
:105080000A4B0365072343650023836501207047AE
:10509000064B0365072343650023836501207047A2
:1050A0000023036543658365012070472C110020B0
:1050B000D0F894341A681178042921D130B583B01E
:1050C0000446017C022905D11289197901238B40FC
:1050D000134201D003B030BD00F14C05284602F068
:1050E000E7F90028F6D001A9284602F013F9024694
:1050F000D4F89444019B2179206800F081FAE9E713
:10510000704700BF00294ED070B582B004460E46ED
:10511000CB1D00EB83035D68C5B1302383F3118899
:105120008B1C00EB83035B685B691B6883B901A977
:1051300005F14C0002F0EEF80246B8B1019B314691
:10514000204600F05DFA002383F3118802B070BDA1
:1051500005F14C0002F0EEF8281D6B6843F00803DF
:105160006B60AB68002BE2D09847E0E7B31C04EB20
:1051700083035A6853691B681BB1128A013A1342B0
:1051800009D0281D6B6843F010036B60AB68002BDF
:10519000D9D09847D7E7002304F15C023146204676
:1051A00000F02EFACFE7704739B338B50B460D3310
:1051B00050F8234004B3302383F31188D4F89424A7
:1051C00013685279023203EB82035B689B695D6866
:1051D00065B1201D636843F004036360A36803B1F5
:1051E0009847294604F1140001F0B4FF2046FFF768
:1051F00039FE002383F3118838BD7047704700BF24
:105200000378407843EA0020704700BF438923F0C9
:1052100001034381038923F00103038100234365D4
:1052200080F84C30704700BF10B50446002101F0F3
:1052300047FF0021204601F03BFF63681B6813B164
:10524000062120469847638923F00103638123895F
:1052500023F00103238100236365062384F84C3087
:1052600010BD00BF10B5044690F85E3080F866307F
:1052700001F004FC63681B6813B1012120469847C4
:105280000323237010BD00BF08B501F035FB08BD36
:1052900001230370002343600AE003F1080200EBDE
:1052A00082020021516003F10E0240F82210013306
:1052B000042BF2D9002303814381704710B50446C3
:1052C000302383F311884160002305E09A1C04EB2E
:1052D0008202002151600133052BF7D9204601F0ED
:1052E0001BFB02232370002080F3118810BD00BF38
:1052F00008B58B1C00EB83035A6053694BB14FF028
:10530000000CC3F800C0C3F804C0C3F808C0C3F859
:105310000CC0936923B100221A605A609A60DA6067
:1053200001F0B8FB08BD00BF08B5038903F0010315
:105330000381438903F001034381012305E09A1CA3
:1053400000EB8202002151600133052BF7D901F0F7
:1053500043FC08BDF8B5044690F85C3003F07F03C9
:1053600090F85D2043EA022340F20232934200F0BB
:105370000B8123D8B3F5807F6ED010D8012B61D07C
:10538000022B00F0B18043B900F1640303650223EE
:105390004365002383650120F8BD0020FCE7B3F5D9
:1053A000817F00F0DB80B3F5407F05D190F85E305F
:1053B000012B63D00020EFE70020EDE7B3F5006F8D
:1053C00076D022D8B3F5A06F64D0C0F0F380A3F5F7
:1053D000C063012B00F2F08043685D6890F85F6065
:1053E00090F85E706030FFF70BFF03463A46314697
:1053F0002046A847002800F0E18042682265036843
:1054000063650023A3650120C6E7B3F5106F15D1CE
:105410000378042B54D094F85E304BB184F8673095
:105420000423237063681B6813B102212046984748
:10543000002323656365A3650120ADE740F60242C2
:10544000934207D1604B2365022363650023A36564
:105450000120A1E700209FE790F85E30012B01D0EA
:10546000002099E7B0F8643023F00203A0F864301C
:10547000002303654365836501208DE7B0F8643040
:1054800043F00203A0F8643000230365436583659D
:10549000012081E7B0F85C30B3F5A06F05D00023A0
:1054A00023656365A365012076E7FFF7DBFEF6E77A
:1054B00000F167030365012060650023A3656BE7C6
:1054C000302383F31188FFF72FFF002383F3118824
:1054D00084F867300323237063681B68002B9AD01D
:1054E00003212046984796E790F8601090F96030C5
:1054F000002B09DB01F00F0101F076FB01281DD024
:10550000022823D0002047E701F00F0101F07CFBC7
:10551000012803D0022809D000203DE72B4B23654A
:10552000022363650023A365012035E7284B23652B
:10553000022363650023A36501202DE7234B236528
:10554000022363650023A365012025E7204B236523
:10555000022363650023A36501201DE790F85E30F8
:1055600073BB90F8603013F00F0104D013F0800F7C
:1055700007D101F0ADFD002323656365A36501201C
:105580000AE701F0ADFDF6E790F85E30D3B990F888
:10559000603013F00F0104D013F0800F07D101F039
:1055A00087FD002323656365A3650120F4E601F010
:1055B00087FDF6E70020EFE60020EDE60020EBE6B1
:1055C0000020E9E60020E7E6187C0008107C0008CF
:1055D000147C000838B5458901248C40A4B22C43C2
:1055E000448101F1020E00EB8E0CDCF80440A4694A
:1055F000A26023600023636001F020FB38BD00BF80
:1056000038B5058901248C40A4B22C43048101F1F2
:10561000020E00EB8E0CDCF804406469A26023608B
:105620000023636001F0A4FB38BD00BF10B5044641
:10563000022303700023A0F8643080F8663080F8FD
:10564000673043650381438105E09A1C04EB8202C5
:10565000002151600133052BF7D9002384F84C3029
:10566000204601F0B1F963681B6813B100212046A0
:10567000984710BD0378052B0ED010B5044680F86E
:1056800068300523037043681B680BB104219847F9
:1056900000232381638110BD704700BF08B50378E4
:1056A000052B00D008BD90F86830037043681B6874
:1056B000002BF7D005219847F4E700BF10B504464A
:1056C00090F84C3093BB04F15C020021204601F0BD
:1056D000ABFA63689B6813B12046984740B994F8C9
:1056E0005C3013F0600F24D12046FFF733FE00B387
:1056F00004F16200FFF784FD636D834200D96065A9
:1057000094F95C30002B18DB636DC3B3152384F868
:105710004C30302383F31188636D226D00212046C5
:10572000FFF758FF002383F3118805E0FFF76EFDB4
:10573000C9E72046FFF778FD10BD636D7BB10923F3
:1057400084F84C30302383F31188636D226D00217F
:105750002046FFF755FF002383F31188ECE714235D
:1057600084F84C30302383F3118800231A461946FD
:105770002046FFF72FFF002383F31188DCE70B237C
:1057800084F84C30302383F3118800231A461946DD
:105790002046FFF735FF002383F31188CCE700BFD5
:1057A00010B5044690F84C30152B42D8DFE803F0D2
:1057B0003F41414141413F41410B18384141414145
:1057C00041414141413F6230FFF71AFD636D834221
:1057D00006D2E268128AB3FBF2F102FB11337BB10D
:1057E000142384F84C30302383F3118800231A46A5
:1057F00019462046FFF7EEFE002383F3118818E0D8
:10580000302383F3118800231A4619462046FFF7F8
:10581000F7FE002383F311880A2384F84C3008E054
:10582000836D03B198472046FFF7F0FC01E0FFF7D6
:10583000FBFC10BD10B5044690F84C30152B28D851
:10584000DFE803F0252727272727252727272525D2
:1058500027272727272727271A0B0B2380F84C30C9
:10586000302383F3118800231A461946FFF7C8FE38
:10587000002383F311880CE0C3689B695B6843B91C
:10588000836D03B198472046FFF7C0FC01E0FFF7A6
:10589000CBFC10BD0023037503691B6899688268FF
:1058A0009142FAD203605A684260106058607047B3
:1058B00008B50846302383F311880B7D032B05D0F0
:1058C000042B0FD02BB983F311880AE08B690022D7
:1058D0001A604FF0FF338361FFF7DCFF002383F38F
:1058E000118808BD4A680B6813604A685A60F0E77F
:1058F0000023037503691B68996882689142FAD88E
:1059000003605A68426010605860704708B5FFF73E
:10591000C1FF08BD38B50A4BDD6828751C682268D0
:105920001A60536001222275DC60A368934204D0A0
:1059300029462046FAF7D8FC38BD00F0E5FDF7E728
:10594000183C002030B587B004460C4BDD68B1F13F
:10595000FF3F0FD02B460A4A684600F06FF92046F9
:10596000FFF7D8FF009B13B1684600F075F9A869EE
:1059700007B030BDFFF7CEFFF9E700BF183C0020AD
:10598000B1580008044BDA681B689868936898421D
:1059900094BF002001207047183C002038B50B4B05
:1059A000DD681C6822681A60536001222275DC6081
:1059B000AB68934207D02846FFF79AFF014620467E
:1059C000FAF792FC38BD00F0A1FDF4E7183C002086
:1059D00008B50B4B01221A70002353B109490A483C
:1059E00001F0A6FD064B02221A70002383F31188F2
:1059F00008BD034A02EB8302002151600133ECE74A
:105A0000703C00201C7C0008183C002008B572B6D1
:105A1000044B186500F056FC00F030FD024B0322E9
:105A20001A70FEE7183C0020703C002008B500F01A
:105A30004DF908BD401A521A90422CBF0020012097
:105A4000704700BF38B5064B5D684419044B586871
:105A500022462946FFF7EEFF0028F7D138BD00BFE8
:105A6000001000E08B6002230B7500234B7508616A
:105A70000846704708B58168A1F1840341F8143CD9
:105A8000026941F8442C426941F8402C044A41F82B
:105A9000242CC368026820390248FFF7E3FF08BDE1
:105AA00001030008183C002008B5FFF7E3FFFFF7EB
:105AB0002DFF08BD08B5034BDB6898610F20FFF789
:105AC00029FF08BD183C002008B5302383F3118856
:105AD000FFF7F0FF08BD00BF08B50146302383F390
